:020000040800F2
:1000000000100020C5100008630400080B11000850
:1000100000000000000000000000000000000000E0
:10002000000000000000000000000000650400085F
:1000300000000000000000006704000869040008D8
:100040001111000800000000171100081D11000820
:1000500023110008291100082F110008351100088C
:10006000000000003B110008411100084711000882
:100070004D1100085311000859110008000000003C
:100080005F1100080000000000000000651100087A
:10009000000000006B1100087111000877110008C2
:1000A000000000007D11000800000000831100081E
:1000B0000000000000000000000000000000000040
:1000C00010B5064C2378002B07D1054B002B02D02E
:1000D000044800E000BF0123237010BD0C00002085
:1000E00000000000E0110008044B10B5002B03D005
:1000F0000349044800E000BF10BDC04600000000F6
:1001000010000020E0110008002243088B4274D345
:1001100003098B425FD3030A8B4244D3030B8B4208
:1001200028D3030C8B420DD3FF22090212BA030C11
:100130008B4202D31212090265D0030B8B4219D3F2
:1001400000E0090AC30B8B4201D3CB03C01A524112
:10015000830B8B4201D38B03C01A5241430B8B425A
:1001600001D34B03C01A5241030B8B4201D30B0343
:10017000C01A5241C30A8B4201D3CB02C01A52416A
:10018000830A8B4201D38B02C01A5241430A8B422D
:1001900001D34B02C01A5241030A8B4201D30B0216
:1001A000C01A5241CDD2C3098B4201D3CB01C01A30
:1001B000524183098B4201D38B01C01A524143093A
:1001C0008B4201D34B01C01A524103098B4201D328
:1001D0000B01C01A5241C3088B4201D3CB00C01A95
:1001E000524183088B4201D38B00C01A524143080D
:1001F0008B4201D34B00C01A5241411A00D2014632
:10020000524110467047FFE701B5002000F006F8A4
:1002100002BDC0460029F7D076E770477047C04658
:10022000F0B5CE46474680B589B01422002103A818
:1002300000F0CEFF4A4B5969802000030143596109
:100240005A6902400092009A596980208002014355
:1002500059615A6902400192019A5A698021C90282
:100260000A435A615B690B400293029B8024A401FC
:100270003C4B984600222100180000F0CFFE90274A
:10028000FF0500222621380000F0C8FE364B9946B3
:10029000364E00221900300000F0C0FE0394012504
:1002A000049500240594069403A9404600F0EEFD51
:1002B0002623039304950594069403A9380000F0BF
:1002C000E5FD2B4B03930494059403A9380000F03B
:1002D000DDFD102303930E3B98460493059406948A
:1002E0000233079303A9380000F0D0FDC023039325
:1002F0004346049305940694079503A9380000F03B
:10030000C5FD0F2303930494059403A9300000F066
:10031000BDFDC0231B0103931223049305950F3BDE
:100320000693079503A9300000F0B0FD4B460393F8
:1003300004950594069403A9300000F0A7FD8023DE
:100340001B0203934346049305940694079303A961
:10035000300000F09BFD09B0C0BCB946B046F0BD0E
:10036000001002400008004830100000000400485F
:10037000089D000072B6FEE700B585B00C22002192
:1003800001A800F025FF1748174B036000234360C6
:100390008360C360012202610421416103764376D8
:1003A0008376C376C221FF31C16103629E39FF3972
:1003B0004354826200F0A4F800280FD10023019377
:1003C00080235B01029380235B05039301A9054809
:1003D00000F058F9002803D105B000BDFFF7CAFFAF
:1003E000FFF7C8FF280000200024014010B590B09E
:1003F0003022002104A800F0EBFE1024102200217E
:10040000684600F0E5FE12230493113B079309931D
:1004100008940A9401330C93A0239B030E9304A821
:1004200000F0CAF900280ED107230093053B019381
:100430000023029303930121684600F043FC002847
:1004400003D110B010BDFFF795FFFFF793FF10B574
:1004500000F0FAFCFFF7CAFFFFF7E2FEFFF78CFFA0
:10046000FEE7FEE77047704710B500F0FDFC10BDD9
:1004700082B00A4B996901221143996199690A4036
:100480000092009ADA69802149050A43DA61DB6942
:100490000B400193019B02B07047C0460010024020
:1004A00010B588B004001422002103A800F090FECB
:1004B0002268114B9A4201D008B010BD0F4B9969C8
:1004C00080208000014399619A6902400192019A5B
:1004D0005A69802189020A435A615B690B40029381
:1004E000029B01230393023304937138FF3803A95D
:1004F000C00500F0CBFCDFE7002401400010024003
:1005000070B5041E00D1B4E0836B002B00D180E0F5
:10051000A36BDB0600D5A6E02268916804200500E5
:100520000D40084200D09EE0A16B534B19400633AA
:10053000FF331943A163916801330B40012B6ED047
:10054000D36818218B43A1680B43D36022681369D9
:100550009B009B0861680B4313612268D36847497D
:100560000B40D360237E9B03627ED2031343A17EA4
:100570004A031343A26A012A58D08022520113432E
:10058000E26813432269022A52D02B432422A25C40
:1005900052001343E27E012A4CD0E269C221FF31AE
:1005A0008A4202D0216A0A4313432168CA681A4367
:1005B000CA60E26A802149058A420DD0012A0BD027
:1005C000022A09D0032A07D0042A05D0052A03D01D
:1005D000062A01D0072A0AD12068416907229143DF
:1005E000416120684169E56A2A400A434261226804
:1005F000D26823490A409A422BD0A36B122293431C
:10060000023A1343A363E36B0F3A1343E3630120FE
:100610002EE0C36334228354FFF742FF78E7136868
:10062000DB079AD4D3681B0497D489E72A00A6E78E
:100630000425AAE7002903D1802252021343ACE724
:10064000A26B20210A43A263E26B1F390A43E263D3
:10065000A3E70023E363A36B03229343023A13430C
:10066000A363002004E0A36B10221343A3630120C3
:1006700070BD0120FCE7C046FDFEFFFF1902FEFF32
:10068000E7FF3F8330B583B0040000230193343388
:10069000C35C012B00D181E034230122C2540368E2
:1006A0009A68520770D43E4A4868904253D09A6A7A
:1006B00001200D68A84002439A62E36A8022520535
:1006C00093421ED0012B1CD0022B1AD0032B18D022
:1006D000042B16D0052B14D0062B12D0072B10D0CC
:1006E00022685069072303408868984209D05069FE
:1006F000072398435061206842698D682B4013435B
:1007000043610B681A00103A012A01D9002040E029
:10071000244A1268102B09D08023DB031343214A9B
:1007200013600B68102B04D0002032E080231B04E0
:10073000F4E71D4B18681D49FFF7E6FC83001B1802
:100740005B00019302E0019B013B0193019B002BA5
:10075000F9D100201DE09A6A01200D68A84082436B
:100760009A620B681A00103A012A01D9002010E0A1
:100770000C4A1268102B05D00D4B1340094A136028
:10078000002006E00B4BF8E7836B202213438363C2
:10079000012034230022E25403B030BD0220FBE7E5
:1007A00001100000082701400800002040420F000F
:1007B000FFFFBFFFFFFF7FFF70B582B0041E00D1B7
:1007C0002EE20368DB0726D5AE4B5A680C23134094
:1007D000042B18D0AB4B5A680C231340082B0ED0B7
:1007E0006368012B3CD0002B51D1A64B1A68A64957
:1007F0000A401A601A68A5490A401A6036E0A14BFF
:100800005B68DB03ECD59F4B1B689B0303D56368D8
:10081000002B00D107E223689B0772D5994B5B68D8
:100820000C221A425DD0974B5A680C231340082BB8
:1008300053D0E368002B00D185E0924A1368012170
:100840000B43136000F01CFB05008E4B1B689B07DD
:1008500070D400F015FB401B0228F6D90320E0E11C
:10086000884A116880235B020B4313606368002B86
:1008700025D000F005FB0500824B1B689B03CAD402
:1008800000F0FEFA401B6428F6D90320C9E1052BCD
:1008900009D07C4B1A687C490A401A601A687B4967
:1008A0000A401A60E2E7774B19688022D2020A43B5
:1008B0001A601968802252020A431A60D6E700F0D3
:1008C000DFFA05006F4B1B689B03A4D500F0D8FA34
:1008D000401B6428F6D90320A3E16A4B5B68DB0365
:1008E000A7D4684B1B689B0703D5E368012B00D096
:1008F0009BE164490B68F82293432269D2001343B9
:100900000B6023681B0744D5E369002B2ED05D4A9A
:10091000536A01210B43536200F0B2FA0500594BB0
:100920005B6A9B0735D400F0ABFA401B0228F6D96E
:10093000032076E153490B68F82293432269D200E1
:1009400013430B60DDE74F4A136801218B431360AB
:1009500000F096FA05004B4B1B689B07D1D500F0C1
:100960008FFA401B0228F6D903205AE1454A536A00
:1009700001218B43536200F083FA0500414B5B6A0F
:100980009B0706D500F07CFA401B0228F6D903200D
:1009900047E123685B0700D480E03A4BDB69DB006A
:1009A0001DD4384AD169802040050143D161D36903
:1009B00003400193019B0125354B1B68DB0510D5D6
:1009C000A368012B21D0002B36D12E4B1A6A0121AE
:1009D0008A431A621A6A03318A431A621AE00025AE
:1009E000EAE72B4A116880235B000B43136000F099
:1009F00047FA0600264B1B68DB05E1D400F040FAFD
:100A0000801B6428F6D903200BE11E4A136A0121DA
:100A10000B431362A368002B24D000F031FA0600C8
:100A2000184B1B6A9B0737D400F02AFA801B194B1E
:100A30009842F5D90320F4E0052B09D0114B1A6A2E
:100A400001218A431A621A6A03318A431A62E1E772
:100A50000C4B1A6A04210A431A621A6A03390A43C0
:100A60001A62D7E700F00CFA0600064B1B6A9B07D8
:100A700012D500F005FA801B064B9842F5D90320E9
:100A8000CFE0C04600100240FFFFFEFFFFFFFBFF6C
:100A90000070004088130000012D33D02368DB066E
:100AA00010D56369012B33D0053351D1654A536B9F
:100AB00004218B435363536BF4318B43A169C90009
:100AC0000B435363236A002B00D1B0E05D4A5168A9
:100AD0000C220A40082A00D18AE0022B4FD0594A42
:100AE000136859490B40136000F0CAF90400554BD4
:100AF0001B689B017AD500F0C3F9001B0228F6D9C8
:100B000003208EE04F4AD36950490B40D361C5E7BB
:100B10004C4B5A6B04210A435A635A6B03390A43FC
:100B20005A6300F0ADF90500464B5B6B9B0706D49A
:100B300000F0A6F9401B0228F6D9032071E04149D4
:100B40004B6BF8229343A269D20013434B63B9E77E
:100B50003C4B5A6B04210A435A635A6B03398A434C
:100B60005A6300F08DF90500364B5B6B9B07A9D5E6
:100B700000F086F9401B0228F6D9032051E0314AE3
:100B8000136831490B40136000F07AF905002D4BD2
:100B90001B689B0106D500F073F9401B0228F6D9AB
:100BA00003203EE0274BDA6A0F218A43E16A0A43B9
:100BB000DA625A6826490A40A16A606A01430A4318
:100BC0005A601968802252040A431A6000F058F9EA
:100BD00004001C4B1B689B0106D400F051F9001B5C
:100BE0000228F6D903201CE000201AE0002018E0BB
:100BF000012B1ED0134B5A68D96A80235B02134025
:100C0000606A834217D10F230B40E16A8B4214D1F3
:100C1000F0239B031A40A36A9A4210D1002000E0FF
:100C2000012002B070BD0120FBE70120F9E70020A0
:100C3000F7E70120F5E70120F3E70120F1E70120C4
:100C4000EFE7C04600100240FFFFFFFEFFFFFFEF8F
:100C5000FFFFC2FF10B588B004AA164B13CB13C216
:100C60001B6813606A46144B13CB13C21B681360D6
:100C7000124B5A680C231340082B02D0104808B0BE
:100C800010BD910C0733194004A8445C0B49C96A94
:100C90000B406946C95CD30304D50948FFF734FA11
:100CA0006043ECE763011B1B9801C01AC0000019E8
:100CB0000002E4E7F81100080C12000800100240DE
:100CC00000127A0070B504000D00002800D17EE00B
:100CD000434B1A68012313408B420AD240490B68E8
:100CE000012293432B430B600B681A40AA4200D0A9
:100CF0006FE023689A070ED55B0705D5394A51681E
:100D0000E023DB000B435360364A5368F0218B43EA
:100D1000A1680B4353602368DB072DD56368012B63
:100D20001ED0022B22D02F4A1268920753D52D498C
:100D30004A680320824313434B6000F0A1F8060089
:100D4000284B5B680C221A4063689B009A4213D0C0
:100D500000F096F8801B244B9842F1D9032035E02F
:100D6000204A12689203E2D401202FE01D4A126843
:100D70009201DCD4012029E0194B1A6801231340A9
:100D8000AB4209D916490B68012293432B430B60F0
:100D90000B681A40AA4220D123685B0706D5114A86
:100DA000536812490B40E1680B435360FFF752FF51
:100DB0000C4B5A6812090F2313400D4AD35CD840DC
:100DC0000C4B1860002000F017F8002070BD0120C7
:100DD000FCE70120FAE70120F8E70120F6E7C0462A
:100DE000002002400010024088130000FFF8FFFFBF
:100DF000201200080800002010B504000F4B1978DD
:100E0000FA208000FFF780F901000D4B1868FFF70A
:100E10007BF900F039F900280DD1032C01D901200C
:100E20000AE0013000222100404200F0FDF8054BAD
:100E30001C60002000E0012010BDC0460000002022
:100E4000080000200400002010B5064A1368102195
:100E50000B4313600020FFF7CFFFFFF709FB0020D3
:100E600010BDC04600200240034A1168034B1B78A6
:100E70005B1813607047C046680000200000002027
:100E8000014B18687047C04668000020F0B5CE4698
:100E9000474680B583B0002333E0032600E00026F8
:100EA000A64034003C4302329200564E9451564ABA
:100EB0001468EA432600AE434F68FF0301D52C4374
:100EC0002600514C26606468260016404F68BF0318
:100ED00001D52C4326004C4C6660A46826001640C1
:100EE0004F68FF0201D52C432600474CA660E468FA
:100EF00022404E68B60201D52A002243424CE260ED
:100F000001330C682200DA4077D001229A40250094
:100F100015401442F4D04C68661E012E03D9112CE2
:100F200001D0122C12D184685F000326BE40B44366
:100F30002600CC68BC4034438460446894434A68CB
:100F40001609012232409A4022434260C4685F0081
:100F50000326BE40F2439446B44326008C68BC404E
:100F60003443C4604A68022A01D0122A10D1DE0834
:100F70000836B2009146145807221A4092000F26F4
:100F80009640B4430E699640320022434C462250AC
:100F900004686246144003224E683240BA4022433D
:100FA00002604A68D200ABD5184CA66901221643EC
:100FB000A661A46922400192019A9A08941CA40097
:100FC000104EA75903241C40A4000F26A640B74387
:100FD0009026F605B04200D161E70D4EB04208D030
:100FE0000C4EB04207D00C4EB04200D155E705265A
:100FF00056E7012654E7022652E703B0C0BCB946C3
:10100000B046F0BD00000140000401400010024065
:101010000004004800080048000C0048002A01D0E5
:10102000816170478162FCE770B5002811DB83089D
:10103000134EC0339B009D5903242040C000FF2263
:1010400014008440A54389010A4082402A439A51F2
:1010500070BD0F230340083B9B0806339B00094AE1
:10106000944663445C6803221040C000FC321500C3
:101070008540AC4389010A40824022435A60E7E739
:1010800000E100E000ED00E0013880235B049842BD
:101090000FD2094A50600948036A1B021B0AC0218B
:1010A00009060B430362002393600733136000209B
:1010B00070470120FCE7C04610E000E000ED00E0D2
:1010C0007047000010B50B4B0B4A01E002CA02C387
:1010D0000A498B42FAD30A4B01E0002204C3094AB1
:1010E0009342FAD3FFF7ECFF00F04EF8FFF7AFF9A9
:1010F000FEE7C04600000020381200080C00002067
:101100000C0000206C000020FEE710B5FFF7FCFF8C
:1011100010B5FFF7F9FF10B5FFF7F6FF10B5FFF7B1
:10112000F3FF10B5FFF7F0FF10B5FFF7EDFF10B5B7
:10113000FFF7EAFF10B5FFF7E7FF10B5FFF7E4FF91
:1011400010B5FFF7E1FF10B5FFF7DEFF10B5FFF7B1
:10115000DBFF10B5FFF7D8FF10B5FFF7D5FF10B5CF
:10116000FFF7D2FF10B5FFF7CFFF10B5FFF7CCFFA9
:1011700010B5FFF7C9FF10B5FFF7C6FF10B5FFF7B1
:10118000C3FF10B5FFF7C0FF70B500260C4D0D4C26
:10119000641BA410A64209D1002600F021F80A4DD4
:1011A0000A4C641BA410A64205D170BDB300EB58D5
:1011B00098470136EEE7B300EB5898470136F2E75F
:1011C00030120008301200083012000834120008F3
:1011D00003008218934200D1704719700133F9E778
:1011E000F8B5C046F8BC08BC9E467047F8B5C04686
:0811F000F8BC08BC9E467047E4
:1011F80002030405060708090A0B0C0D0E0F101050
:10120800000000000102030405060708090A0B0C88
:101218000D0E0F100000000000000000000000008C
:08122800010203040607080996
:04123000E9000008C9
:04123400C1000008ED
:0C123800010000000400000000127A0019
:04000005080010C51A
:00000001FF
