:020000040800F2
:1000000000100020A923000829050008EF2300089C
:1000100000000000000000000000000000000000E0
:100020000000000000000000000000002B05000898
:1000300000000000000000002D0500082F0500084A
:10004000F523000800000000FB230008012400083D
:10005000072400080D2400081324000819240008B0
:10006000000000001F240008252400082B2400089D
:1000700031240008372400083D2400080000000057
:10008000432400080000000000000000492400088C
:1000900000000000792400084F24000855240008BF
:1000A000000000005B24000800000000612400083C
:1000B0000000000000000000000000000000000040
:1000C00010B5064C2378002B07D1054B002B02D02E
:1000D000044800E000BF0123237010BD0C00002085
:1000E00000000000D8240008044B10B5002B03D0FA
:1000F0000349044800E000BF10BDC04600000000F6
:1001000010000020D8240008002243088B4274D33A
:1001100003098B425FD3030A8B4244D3030B8B4208
:1001200028D3030C8B420DD3FF22090212BA030C11
:100130008B4202D31212090265D0030B8B4219D3F2
:1001400000E0090AC30B8B4201D3CB03C01A524112
:10015000830B8B4201D38B03C01A5241430B8B425A
:1001600001D34B03C01A5241030B8B4201D30B0343
:10017000C01A5241C30A8B4201D3CB02C01A52416A
:10018000830A8B4201D38B02C01A5241430A8B422D
:1001900001D34B02C01A5241030A8B4201D30B0216
:1001A000C01A5241CDD2C3098B4201D3CB01C01A30
:1001B000524183098B4201D38B01C01A524143093A
:1001C0008B4201D34B01C01A524103098B4201D328
:1001D0000B01C01A5241C3088B4201D3CB00C01A95
:1001E000524183088B4201D38B00C01A524143080D
:1001F0008B4201D34B00C01A5241411A00D2014632
:10020000524110467047FFE701B5002000F006F8A4
:1002100002BDC0460029F7D076E770477047C04658
:10022000F0B5CE46474680B589B01422002103A818
:1002300002F04AF9444B5969802000030143596197
:100240005A6902400092009A596980208002014355
:1002500059615A6902400192019A5A698021C90282
:100260000A435A615B690B400293029B8024A401FC
:10027000364F00222100380001F085FE9025ED0563
:1002800000222621280001F07EFE314B9946314E96
:1002900000221900300001F076FE039401239846F5
:1002A000049300240594069403A9380001F09CFDF2
:1002B00026230393434604930594069403A9280038
:1002C00001F092FD244B03930494059403A92800A4
:1002D00001F08AFD102303930227049705940694E6
:1002E0000C3B079303A9280001F07EFDC023039374
:1002F0000497059406944346079303A9280001F048
:1003000073FD0F2303930494059403A9300001F0B7
:100310006BFD4B460393434604930594069403A94F
:10032000300001F061FD80231B02039304970594C4
:100330000694079703A9300001F056FD09B0C0BC30
:10034000B946B046F0BDC046001002400008004863
:100350003050000000040048089D000072B6FEE71F
:1003600000B585B00C22002101A802F0ADF81748B5
:10037000174B0360002343608360C3600122026166
:1003800004214161037643768376C376C221FF312F
:10039000C16103629E39FF394354826200F092FBCF
:1003A00000280FD10023019380235B010293802357
:1003B0005B05039301A9054800F046FC002803D122
:1003C00005B000BDFFF7CAFFFFF7C8FF28000020F7
:1003D0000024014010B50948094B03602F234360F6
:1003E00000238360074AC26003614361836101F0B7
:1003F0009FFF002800D110BDFFF7B0FFB400002020
:1004000000440140E703000010B51248124B03609E
:10041000124B4360002383600122C2600361436189
:100420008361C361036201F0D3F900280CD100217C
:10043000084801F083FC002808D10021054801F09C
:10044000A9FC002804D110BDFFF788FFFFF786FF45
:10045000FFF784FF68000020005400400E090020D0
:1004600010B594B03022002108A802F02DF8102415
:100470001022002104A802F027F81022002168466B
:1004800002F022F812230893113B0B930D930C9466
:100490000E9401331093A0239B03129308A800F03D
:1004A0006DFC002817D107230493053B0593002317
:1004B00006930793012104A800F0E6FE00280CD162
:1004C0002023009300230393684600F077FF002861
:1004D00005D114B010BDFFF741FFFFF73FFFFFF755
:1004E0003DFF000010B501F01FF8FFF7B9FFFFF75F
:1004F00097FEFFF735FFFFF76DFFFFF785FF084811
:1005000001F0AAFD00F0CAF8064800F0F3F900F087
:10051000C3FA00F0B5F9FA20800001F027F8F6E7F9
:10052000B400002068000020FEE77047704710B557
:1005300001F00AF810BD10B500F0BAF810BD0000C7
:1005400082B00A4B996901221143996199690A4065
:100550000092009ADA69802149050A43DA61DB6971
:100560000B400193019B02B07047C046001002404F
:1005700010B588B004001422002103A801F0A4FFE4
:100580002268114B9A4201D008B010BD0F4B9969F7
:1005900080208000014399619A6902400192019A8A
:1005A0005A69802189020A435A615B690B400293B0
:1005B000029B01230393023304937138FF3803A98C
:1005C000C00501F011FCDFE70024014000100240EB
:1005D000F0B5C64600B588B004001422002103A877
:1005E00001F072FF22681A4B9A4203D008B080BC17
:1005F000B846F0BD174C62698021C9020A436261A6
:1006000063690B400193019B402303932E3B984663
:100610000493012505950327069707950E4E03A918
:10062000300001F0E1FB80230393434604930595DA
:100630000697079503A9300001F0D6FBE2698021F7
:1006400089030A43E261E3690B400293029BCDE711
:1006500000540040001002400004004800B583B080
:1006600002680C4B9A4201D003B000BD0A4A91695E
:100670008020800201439161936903400193019BB3
:1006800000220021152001F085FC152001F0B2FCAC
:10069000EAE7C0460044014000100240704710B530
:1006A00000F09EF810BD10B500F03CF810BD000041
:1006B00010B51B4B1A68541C1C6005212000FFF765
:1006C000A9FD002903D1164A5368013353600A215A
:1006D0002000FFF79FFD002913D0114B18686421FB
:1006E000FFF798FD002913D00D4B1868FA218900F7
:1006F000FFF790FD002903D1094A13690133136103
:1007000010BDFFF7CCFF064A936801339360E4E71E
:10071000FFF7C9FF024AD3680133D360E4E7C0465C
:100720006801002010B52C4A136801331360052BB3
:1007300002D9130000221A60274B18680521FFF721
:1007400069FD002923D19024E40501220231200013
:1007500001F019FC01220421200001F014FC1F4CBF
:1007600001221021200001F00EFC01222021200096
:1007700001F009FC802101224901200001F003FC65
:1007800080210122C901200001F0FDFB10BD902451
:10079000E40500220221200001F0F5FB00220421E3
:1007A000200001F0F0FB0D4C00221021200001F090
:1007B000EAFB00222021200001F0E5FB802100223D
:1007C0004901200001F0DFFB80210022C901200047
:1007D00001F0D9FBDAE7C0467C01002000040048A4
:1007E00010B580219024E405C900200001F0C4FB6D
:1007F0000B4B187080210901200001F0BDFB094B53
:10080000187080214901200001F0B6FB064B1870DA
:1008100080214900200001F0AFFB044B187010BD8F
:10082000800100208101002082010020830100203E
:1008300010B584B06C46217362730100054A1068DC
:100840000093022303AA01F029F8034B187004B0A7
:1008500010BDC046900300208401002030B585B053
:1008600014000A00010005480068089D02950193E4
:100870000094012301F0CCF805B030BD90030020B6
:1008800030B583B0002420E0FA25AD002200503AB4
:10089000D2B22B0000217820FFF7CAFF2B000022E4
:1008A00000217820FFF7C4FF2B00102200217820C0
:1008B000FFF7BEFFE201074BD218009580234021CD
:1008C0007820FFF7CBFF0134E4B2072CDCD903B06A
:1008D00030BDC0469001002010B5002806D100218F
:1008E00080229200024801F0EFFD10BDFF21F7E7E2
:1008F0009001002010B5040005230222782101F0A8
:1009000057F9002801D0002010BD614B1C606430F5
:1009100000F02CFEFA24A4002300AE22002178204F
:10092000FFF786FF2300A82200217820FFF780FF31
:1009300023001F2200217820FFF77AFF2300D32213
:1009400000217820FFF774FF230000220021782087
:10095000FFF76EFF2300402200217820FFF768FF99
:100960002300A12200217820FFF762FF2300C82284
:1009700000217820FFF75CFF2300812200217820EE
:10098000FFF756FF23007F2200217820FFF750FF5A
:100990002300A42200217820FFF74AFF2300A6228B
:1009A00000217820FFF744FF2300D5220021782082
:1009B000FFF73EFF2300802200217820FFF738FF59
:1009C00023008D2200217820FFF732FF230014221C
:1009D00000217820FFF72CFF23002E220021782011
:1009E000FFF726FF2300202200217820FFF720FFB9
:1009F0002300102200217820FFF71AFF2300DA22BB
:100A000000217820FFF714FF230002220021782024
:100A1000FFF70EFF2300D92200217820FFF708FFFF
:100A20002300222200217820FFF702FF2300DB228F
:100A300000217820FFF7FCFE2300202200217820EF
:100A4000FFF7F6FE2300B02200217820FFF7F0FE2A
:100A50002300002200217820FFF7EAFE2300102265
:100A600000217820FFF7E4FE2300AF220021782048
:100A7000FFF7DEFE0120FFF72FFFFFF701FF054B19
:100A800000221A805A8001325A7101203CE7C04688
:100A9000900300208801002010B5FA24A400230050
:100AA0008D2200217820FFF7C3FE230014220021AD
:100AB0007820FFF7BDFE2300AF2200217820FFF74A
:100AC000B7FE10BD70B5041E00D1B4E0836B002BDF
:100AD00000D180E0A36BDB0600D5A6E02268916818
:100AE000042005000D40084200D09EE0A16B534B4E
:100AF00019400633FF331943A163916801330B405A
:100B0000012B6ED0D36818218B43A1680B43D360AF
:100B1000226813699B009B0861680B43136122687C
:100B2000D36847490B40D360237E9B03627ED20388
:100B30001343A17E4A031343A26A012A58D080229C
:100B400052011343E26813432269022A52D02B4315
:100B50002422A25C52001343E27E012A4CD0E269B7
:100B6000C221FF318A4202D0216A0A43134321681D
:100B7000CA681A43CA60E26A802149058A420DD0D8
:100B8000012A0BD0022A09D0032A07D0042A05D053
:100B9000052A03D0062A01D0072A0AD12068416914
:100BA00007229143416120684169E56A2A400A436E
:100BB00042612268D26823490A409A422BD0A36B33
:100BC00012229343023A1343A363E36B0F3A134396
:100BD000E36301202EE0C36334228354FFF7C8FC93
:100BE00078E71368DB079AD4D3681B0497D489E7A6
:100BF0002A00A6E70425AAE7002903D18022520291
:100C00001343ACE7A26B20210A43A263E26B1F39B6
:100C10000A43E263A3E70023E363A36B0322934346
:100C2000023A1343A363002004E0A36B1022134392
:100C3000A363012070BD0120FCE7C046FDFEFFFF5D
:100C40001902FEFFE7FF3F8330B583B004000023A5
:100C500001933433C35C012B00D181E034230122A2
:100C6000C25403689A68520770D43E4A486890425A
:100C700053D09A6A01200D68A84002439A62E36A41
:100C80008022520593421ED0012B1CD0022B1AD079
:100C9000032B18D0042B16D0052B14D0062B12D002
:100CA000072B10D0226850690723034088689842B8
:100CB00009D05069072398435061206842698D68C4
:100CC0002B40134343610B681A00103A012A01D9E3
:100CD000002040E0244A1268102B09D08023DB0357
:100CE0001343214A13600B68102B04D0002032E01C
:100CF00080231B04F4E71D4B18681D49FFF704FA15
:100D000083001B185B00019302E0019B013B0193F0
:100D1000019B002BF9D100201DE09A6A01200D688B
:100D2000A84082439A620B681A00103A012A01D93E
:100D3000002010E00C4A1268102B05D00D4B134018
:100D4000094A1360002006E00B4BF8E7836B202272
:100D500013438363012034230022E25403B030BDE7
:100D60000220FBE7011000000827014008000020D6
:100D700040420F00FFFFBFFFFFFF7FFF70B582B053
:100D8000041E00D12EE20368DB0726D5AE4B5A685D
:100D90000C231340042B18D0AB4B5A680C23134080
:100DA000082B0ED06368012B3CD0002B51D1A64BF1
:100DB0001A68A6490A401A601A68A5490A401A60CA
:100DC00036E0A14B5B68DB03ECD59F4B1B689B03B4
:100DD00003D56368002B00D107E223689B0772D517
:100DE000994B5B680C221A425DD0974B5A680C23D2
:100DF0001340082B53D0E368002B00D185E0924AC2
:100E0000136801210B43136000F0AAFB05008E4B11
:100E10001B689B0770D400F0A3FB401B0228F6D987
:100E20000320E0E1884A116880235B020B431360D2
:100E30006368002B25D000F093FB0500824B1B68F4
:100E40009B03CAD400F08CFB401B6428F6D9032016
:100E5000C9E1052B09D07C4B1A687C490A401A600D
:100E60001A687B490A401A60E2E7774B19688022CA
:100E7000D2020A431A601968802252020A431A6099
:100E8000D6E700F06DFB05006F4B1B689B03A4D5F4
:100E900000F066FB401B6428F6D90320A3E16A4BEF
:100EA0005B68DB03A7D4684B1B689B0703D5E3682B
:100EB000012B00D09BE164490B68F822934322691F
:100EC000D20013430B6023681B0744D5E369002B52
:100ED0002ED05D4A536A01210B43536200F040FB60
:100EE0000500594B5B6A9B0735D400F039FB401B6A
:100EF0000228F6D9032076E153490B68F822934380
:100F00002269D20013430B60DDE74F4A13680121C9
:100F10008B43136000F024FB05004B4B1B689B07C1
:100F2000D1D500F01DFB401B0228F6D903205AE161
:100F3000454A536A01218B43536200F011FB0500BF
:100F4000414B5B6A9B0706D500F00AFB401B022859
:100F5000F6D9032047E123685B0700D480E03A4BD1
:100F6000DB69DB001DD4384AD1698020400501438C
:100F7000D161D36903400193019B0125354B1B6867
:100F8000DB0510D5A368012B21D0002B36D12E4BC9
:100F90001A6A01218A431A621A6A03318A431A6261
:100FA0001AE00025EAE72B4A116880235B000B4317
:100FB000136000F0D5FA0600264B1B68DB05E1D470
:100FC00000F0CEFA801B6428F6D903200BE11E4AFC
:100FD000136A01210B431362A368002B24D000F095
:100FE000BFFA0600184B1B6A9B0737D400F0B8FA0B
:100FF000801B194B9842F5D90320F4E0052B09D04A
:10100000114B1A6A01218A431A621A6A03318A4310
:101010001A62E1E70C4B1A6A04210A431A621A6A3F
:1010200003390A431A62D7E700F09AFA0600064B22
:101030001B6A9B0712D500F093FA801B064B98425F
:10104000F5D90320CFE0C04600100240FFFFFEFFAD
:10105000FFFFFBFF0070004088130000012D33D01C
:101060002368DB0610D56369012B33D0053351D1DA
:10107000654A536B04218B435363536BF4318B43A9
:10108000A169C9000B435363236A002B00D1B0E070
:101090005D4A51680C220A40082A00D18AE0022BDE
:1010A0004FD0594A136859490B40136000F058FA61
:1010B0000400554B1B689B017AD500F051FA001BC8
:1010C0000228F6D903208EE04F4AD36950490B40DD
:1010D000D361C5E74C4B5A6B04210A435A635A6BE0
:1010E00003390A435A6300F03BFA0500464B5B6B39
:1010F0009B0706D400F034FA401B0228F6D90320DF
:1011000071E041494B6BF8229343A269D20013432B
:101110004B63B9E73C4B5A6B04210A435A635A6B41
:1011200003398A435A6300F01BFA0500364B5B6BA8
:101130009B07A9D500F014FA401B0228F6D903201A
:1011400051E0314A136831490B40136000F008FA4E
:1011500005002D4B1B689B0106D500F001FA401BD2
:101160000228F6D903203EE0274BDA6A0F218A4392
:10117000E16A0A43DA625A6826490A40A16A606A4B
:1011800001430A435A601968802252040A431A60D4
:1011900000F0E6F904001C4B1B689B0106D400F02C
:1011A000DFF9001B0228F6D903201CE000201AE01A
:1011B000002018E0012B1ED0134B5A68D96A8023F7
:1011C0005B021340606A834217D10F230B40E16A30
:1011D0008B4214D1F0239B031A40A36A9A4210D188
:1011E000002000E0012002B070BD0120FBE70120DB
:1011F000F9E70020F7E70120F5E70120F3E70120F8
:10120000F1E70120EFE7C04600100240FFFFFFFEBC
:10121000FFFFFFEFFFFFC2FF10B588B004AA164B17
:1012200013CB13C21B6813606A46144B13CB13C253
:101230001B681360124B5A680C231340082B02D012
:10124000104808B010BD910C0733194004A8445C45
:101250000B49C96A0B406946C95CD30304D50948E8
:10126000FEF752FF6043ECE763011B1B9801C01AB5
:10127000C00000190002E4E7F0240008042500087B
:101280000010024000127A0070B504000D00002822
:1012900000D17EE0434B1A68012313408B420AD2EF
:1012A00040490B68012293432B430B600B681A40A3
:1012B000AA4200D06FE023689A070ED55B0705D5D8
:1012C000394A5168E023DB000B435360364A5368C8
:1012D000F0218B43A1680B4353602368DB072DD5B6
:1012E0006368012B1ED0022B22D02F4A126892076E
:1012F00053D52D494A680320824313434B6000F0C5
:101300002FF90600284B5B680C221A4063689B008B
:101310009A4213D000F024F9801B244B9842F1D953
:10132000032035E0204A12689203E2D401202FE026
:101330001D4A12689201DCD4012029E0194B1A6879
:1013400001231340AB4209D916490B68012293438C
:101350002B430B600B681A40AA4220D123685B071D
:1013600006D5114A536812490B40E1680B4353609C
:10137000FFF752FF0C4B5A6812090F2313400D4A16
:10138000D35CD8400C4B1860002000F0A5F800207A
:1013900070BD0120FCE70120FAE70120F8E70120F9
:1013A000F6E7C0460020024000100240881300000B
:1013B000FFF8FFFF182500080800002070B582B074
:1013C00004000368DB0337D53D4BDB69DB0049D400
:1013D0003B4AD169802040050143D161D369034074
:1013E0000193019B0125374B1B68DB053CD5344B32
:1013F0001A6AC0239B00110019401A4213D0626878
:1014000013408B420FD02E4B186A2F4A02401E6A9F
:101410008021490231431962196A2C4E3140196208
:101420001A62C30734D4264A136A27490B406168FD
:101430000B431362012D3AD02368DB0706D5204AFF
:10144000136B03218B43A1680B43136323689B0633
:1014500032D51B4A136B10218B43E1680B43136396
:1014600000202AE00025BEE7164A116880235B00B1
:101470000B43136000F074F80600124B1B68DB0589
:10148000B5D400F06DF8801B6428F6D9032014E071
:1014900000F066F806000A4B1B6A9B07C3D400F0F5
:1014A0005FF8801B0A4B9842F5D9032005E0D36909
:1014B00008490B40D361BFE7002002B070BDC046B1
:1014C0000010024000700040FFFCFFFFFFFFFEFF26
:1014D00088130000FFFFFFEF10B504000F4B1978D1
:1014E000FA208000FEF710FE01000D4B1868FEF791
:1014F0000BFE00F08BFD00280DD1032C01D901203B
:101500000AE0013000222100404200F043FD054B7B
:101510001C60002000E0012010BDC046000000203B
:10152000080000200400002010B5064A13681021AE
:101530000B4313600020FFF7CFFFFFF701F80020F7
:1015400010BDC04600200240034A1168034B1B78BF
:101550005B1813607047C046940300200000002011
:10156000014B18687047C0469403002070B5040012
:10157000FFF7F6FF0500631C02D0044B1B78E4184C
:10158000FFF7EEFF401BA042FAD370BD0000002021
:1015900003689A69920701D500229A6203689A69E2
:1015A000D20703D49A6901210A439A617047000067
:1015B00070B504686068049D6D0D8026F6002E40AD
:1015C000064D3543A8438905890D1204114319437B
:1015D000049B19430143616070BDC046FF63FF0374
:1015E000F8B505000F00160003689B69DB0601D4FF
:1015F0000020F8BD2B689C69A20615D47B1CF9D08D
:10160000FFF7AEFF801BB84201D8002FF2D16B6C00
:10161000202213436B644123EA5400232232AB544B
:10162000023AAB540120E4E71022DA612B6820244F
:10163000DC612800FFF7ACFF2A68536807490B40BC
:1016400053606B6C042213436B644123EC540023FE
:101650003E32AB54023AAB540120CAE700E800FE28
:1016600070B504000D00160023689B699B071CD40D
:10167000320029002000FFF7B3FF002817D16B1CB0
:10168000F2D0FFF76DFF801BA84201D8002DEBD1EF
:10169000636C2022134363644123E254002322320B
:1016A000A354023AA354012000E0002070BD0120A1
:1016B000FCE7F0B5C64600B507000D0090461E00D9
:1016C0003B689C692C40641B63425C41444516D1D5
:1016D000731CF5D0FFF744FF069BC01AB04201D837
:1016E000002EEDD17B6C202213437B644123FA54FE
:1016F00000232232BB54023ABB54012000E00020F8
:1017000080BCB846F0BD000070B582B00400150082
:101710001E008023F2B2194800905B042000FFF7FE
:1017200047FF079A06992000FFF79AFF00281ED16D
:10173000012E0ED12368EDB29D62079B0093069B9C
:10174000002280212000FFF7B4FF002813D102B04F
:1017500070BD23682A0A9A62079A06992000FFF74B
:101760007FFF002805D12368EDB29D62E5E70120E7
:10177000EDE70120EBE70120E9E7C046002000800B
:1017800070B505000C0016002B689B699B061AD4E7
:10179000320021002800FFF723FF002815D1FFF7B2
:1017A000DFFE801BA04201D8002CEDD16B6C202203
:1017B00013436B644123EA5400232232AB54023AB0
:1017C000AB54012070BD0020FCE70120FAE70000C7
:1017D00010B5041E59D04123C35C002B43D04123D4
:1017E0002422E2542268136801218B43136022688B
:1017F000274B61680B4013612268936825490B40B1
:101800009360E368012B34D0226884231B02A16813
:101810000B439360E368022B32D0226851681E4B61
:101820000B4353602268D3681A490B40D360236985
:1018300062691343A269120221681343CB602268D4
:10184000E369216A0B4313602268136801210B438B
:1018500013600023636441221F31A15423630132CA
:10186000A354002010BD40330022C254FEF7B0FE46
:10187000B5E7226880231B02A1680B439360C9E788
:101880002368802212015A60C7E70120EAE7C046B8
:10189000FFFFFFF0FF7FFFFF00800002F0B585B083
:1018A00004000F00029203930A9D4123C35C202B86
:1018B00000D09BE02033C35C012B00D199E0402392
:1018C0000122C254FFF74CFE06008021009019232C
:1018D000012209022000FFF7ECFE002800D08AE078
:1018E00041232122E2540133113AE254002363647C
:1018F000029A6262039A62856363638D9BB2FF2BD7
:101900000BD9FF2323857F3B3F4A00925B04FF22D4
:1019100039002000FFF74CFE18E0628D92B222855C
:101920008023D2B2384900919B0439002000FFF790
:101930003FFE0BE0628D92B222858023D2B200215D
:1019400000919B0439002000FFF732FE638D9BB2AB
:10195000002B34D0320029002000FFF781FE002840
:101960004BD12368626A12789A62636A01336362B8
:10197000638D013B9BB26385238D013B9BB2238525
:10198000628D92B2002AE1D0002BDFD100962B00AD
:10199000002280212000FFF78CFE00282FD1638DCC
:1019A0009BB2FF2BC6D9FF2323857F3B00220092E9
:1019B0005B04FF3239002000FFF7FAFDC6E7320072
:1019C00029002000FFF7DCFE00281AD1236820221E
:1019D000DA6121684B680D4D2B404B604123E25486
:1019E00000232232A354023AA35400E0022005B09F
:1019F000F0BD0220FBE70120F9E70120F7E7012015
:101A0000F5E70120F3E7C0460020008000E800FE73
:101A1000F0B587B004000391049205930CAB20CB82
:101A20001F884123C35C202B00D0B3E0002D18D0C9
:101A3000002F16D04023C35C012B00D1ADE0402322
:101A40000122C254FFF78CFD06008021009019236B
:101A5000012209022000FFF72CFE002806D00120F9
:101A600099E080239B006364012094E041232122BC
:101A7000E25401331F32E2540023636465626785D8
:101A8000636301960E9B0093059B049A03992000C3
:101A9000FFF73AFE00280FD1638D9BB2FF2B10D9C0
:101AA000FF2323857F3B002200925B04FF320399D2
:101AB0002000FFF77DFD21E040230022E2540120B9
:101AC00069E0628D92B222858023D2B2002100911A
:101AD0009B0403992000FFF76BFD0FE0628D92B22B
:101AE00022858023D2B2002100919B04039920001B
:101AF000FFF75EFD638D9BB2002B34D032000E9950
:101B00002000FFF7ADFD002849D12368626A1278F2
:101B10009A62636A01336362638D013B9BB26385A2
:101B2000238D013B9BB22385628D92B2002AE1D0C6
:101B3000002BDFD100960E9B002280212000FFF7B2
:101B4000B8FD00282DD1638D9BB2FF2BC6D9FF2392
:101B500023857F3B002200925B04FF320399200023
:101B6000FFF726FDC6E732000E992000FFF708FEBA
:101B7000002818D123682022DA6121684B680B4DB8
:101B80002B404B604123E25400232232A354023AFB
:101B9000A35400E0022007B0F0BD0220FBE70120C3
:101BA000F9E70120F7E70120F5E7C04600E800FE6D
:101BB000F0B5CE46474680B585B0060089469046CA
:101BC0001D00002303934133C35C202B00D0A6E00B
:101BD00003689B691B0400D5A3E04023C35C012B71
:101BE00000D1A0E040230122C25401332332C25469
:101BF00000234364F368012B18D04B469A05920DDD
:101C0000A0239B01134332685360FFF7A9FC070030
:101C100033689A6920241440621E9441E2B29C69A0
:101C200010232340591E8B41DCB212E04B469A052B
:101C3000920D414B1343E6E733689A692024144020
:101C4000621E9441E2B29B6910241C40631E9C41B9
:101C5000E4B2144317D16B1CEED0FFF781FCC01B1C
:101C6000A84201D8002DE7D120224123F254736C01
:101C70001343736440230022F254012005B0C0BC1A
:101C8000B946B046F0BD33689B69DB0622D50097A4
:101C90002B00002220213000FFF70BFD002846D149
:101CA00033681022DA6133681032DA61039B4345EE
:101CB00022D0039B01330393039B43459AD32022F5
:101CC0004123F254736C1343736440230022F25493
:101CD0000120D3E700972B00002220213000FFF7DE
:101CE000E8FC002821D132682023D3614122B3547B
:101CF00020330022F254C1E7326851688023DB01AF
:101D00000B43536000972B00002220213000FFF787
:101D1000D0FC00280DD133682022DA61C9E7022007
:101D2000ACE70220AAE70220A8E70120A6E70120ED
:101D3000A4E70120A2E7C04600200002F0B541233D
:101D4000C35C202B20D12033C35C012B1ED0402448
:101D500001220255412524234355066833689343E5
:101D60003360066833680A4F3B4033600668336867
:101D70001943316001680B6813430B6020234355FE
:101D8000002303550020F0BD0220FCE70220FAE703
:101D9000FFEFFFFFF0B54123C35C202B1ED12033A2
:101DA000C35C012B1CD04024012202554125242371
:101DB0004355066833689343336006683368094FB8
:101DC0003B4009021943316001680B6813430B6003
:101DD00020234355002303550020F0BD0220FCE7DB
:101DE0000220FAE7FFF0FFFFF0B5CE46474680B588
:101DF00083B0002333E0032600E00026A640340031
:101E00003C4302329200564E9451564A1468EA43BB
:101E10002600AE434F68FF0301D52C432600514CEA
:101E200026606468260016404F68BF0301D52C4326
:101E300026004C4C6660A468260016404F68FF02DE
:101E400001D52C432600474CA660E46822404E682A
:101E5000B60201D52A002243424CE26001330C68ED
:101E60002200DA4077D001229A4025001540144222
:101E7000F4D04C68661E012E03D9112C01D0122C0F
:101E800012D184685F000326BE40B4432600CC68AC
:101E9000BC4034438460446894434A681609012274
:101EA00032409A4022434260C4685F000326BE402D
:101EB000F2439446B44326008C68BC403443C4606B
:101EC0004A68022A01D0122A10D1DE080836B20070
:101ED0009146145807221A4092000F269640B443A8
:101EE0000E699640320022434C46225004686246F6
:101EF000144003224E683240BA40224302604A68CE
:101F0000D200ABD5184CA66901221643A661A4697C
:101F100022400192019A9A08941CA400104EA759DD
:101F200003241C40A4000F26A640B7439026F605C4
:101F3000B04200D161E70D4EB04208D00C4EB04225
:101F400007D00C4EB04200D155E7052656E70126D2
:101F500054E7022652E703B0C0BCB946B046F0BD14
:101F6000000001400004014000100240000400484D
:101F700000080048000C004803690B4201D0012012
:101F800070470020FCE7002A01D081617047816220
:101F9000FCE7000070B5002811DB8308134EC03346
:101FA0009B009D5903242040C000FF221400844060
:101FB000A54389010A4082402A439A5170BD0F23EC
:101FC0000340083B9B0806339B00094A9446634440
:101FD0005C6803221040C000FC3215008540AC4311
:101FE00089010A40824022435A60E7E700E100E0AD
:101FF00000ED00E0002805DB1F2318401E3B834056
:10200000014A13607047C04600E100E001388023B8
:102010005B0498420FD2094A50600948036A1B02C8
:102020001B0AC02109060B43036200239360073398
:102030001360002070470120FCE7C04610E000E07C
:1020400000ED00E070477047704770477047704779
:1020500070477047704700003D23C35C012B1FD1C0
:102060003C330222C2540268D36801210B43D3607F
:1020700003680D4A934208D00C4A934205D01A686F
:1020800001210A431A6000200BE0996807220A40E8
:10209000062A07D01A6801210A431A60002000E0CE
:1020A000012070470020FCE7002C014000040040A4
:1020B00010B5040003681A69920711D5DA6892070F
:1020C0000ED5032252421A610123037703689B69EC
:1020D0009B0700D184E09023C358984700232377BF
:1020E00023681A69520714D5DA68520711D50522F8
:1020F00052421A610223237723689A69C0239B0006
:102100001A4200D174E09023E3582000984700233E
:10211000237723681A69120711D5DA6812070ED5DA
:10212000092252421A61042323772368DB699B0743
:1021300067D09023E3582000984700232377236833
:102140001A69D20613D5DA68D20610D51122524286
:102150001A61082323772368DA69C0239B001A4297
:1021600058D09023E3582000984700232377236812
:102170001A69D20709D5DA68D20706D50222524277
:102180001A618023E3582000984723681A691206D1
:1021900009D5DA68120606D5812252421A61B023A7
:1021A000E3582000984723681A69520609D5DA686F
:1021B000520606D5412252421A618823E358200074
:1021C000984723681A69920609D5DA68920606D5F7
:1021D000212252421A61A823E3582000984710BDDB
:1021E0009823C35898479C23E3582000984775E7E5
:1021F0009823E358200098479C23E35820009847F1
:1022000085E79823E358200098479C23E358200053
:10221000984792E79823E358200098479C23E35877
:1022200020009847A1E7000003681A4A904202D0B4
:10223000194A904203D1702293434A681343154AC6
:1022400090420BD0144A904208D0144A904205D0D4
:10225000134A904202D0134A904203D1124A1340CB
:10226000CA681343802293434A69134303608B680F
:10227000C3620B688362074B984205D0084B9842B3
:1022800002D0084B984201D10B69036301234361DB
:102290007047C046002C0140000400400020004070
:1022A0000044014000480140FFFCFFFF8023134A27
:1022B000C2500433124AC2500433124AC25004338B
:1022C000114AC2500433114AC2500433104AC2505A
:1022D0000433104AC25004330F4AC25004330F4A29
:1022E000C25004330E4AC25004330E4AC250043363
:1022F0000D4AC25004330D4AC250704737050008DA
:1023000045200008512000085320000849200008FB
:102310004B200008472000084D2000084F200008EF
:1023200055200008A1230008A3230008A5230008C6
:1023300070B5041E2FD03D23C35C002B1CD03D255F
:1023400002236355210001C9FFF76EFF01234622D6
:10235000A354083AA3540132A3540132A3540132C6
:10236000A3540132A3540132A3540132A3540132C5
:10237000A3546355002070BD3C330022C254FFF7C4
:1023800095FFA36C002B03D02000A36C9847D6E7E1
:10239000024BA364F8E70120EDE7C0465D060008A4
:1023A000704770477047704710B50B4B0B4A01E000
:1023B00002CA02C30A498B42FAD30A4B01E0002247
:1023C00004C3094A9342FAD3FFF7EDFF00F058F82F
:1023D000FEF788F8FEE7C046000000203025000820
:1023E0000C0000200C00002098030020FEE710B530
:1023F000FFF7FCFF10B5FFF7F9FF10B5FFF7F6FF89
:1024000010B5FFF7F3FF10B5FFF7F0FF10B5FFF7BA
:10241000EDFF10B5FFF7EAFF10B5FFF7E7FF10B5C6
:10242000FFF7E4FF10B5FFF7E1FF10B5FFF7DEFFA0
:1024300010B5FFF7DBFF10B5FFF7D8FF10B5FFF7BA
:10244000D5FF10B5FFF7D2FF10B5FFF7CFFF10B5DE
:10245000FFF7CCFF10B5FFF7C9FF10B5FFF7C6FFB8
:1024600010B5FFF7C3FF000010B50248FFF720FECC
:1024700010BDC046B400002010B5FFF7F5FF10BD39
:1024800070B500260C4D0D4C641BA410A64209D15A
:10249000002600F021F80A4D0A4C641BA410A64245
:1024A00005D170BDB300EB5898470136EEE7B30095
:1024B000EB5898470136F2E7282500082825000840
:1024C000282500082C25000803008218934200D11B
:1024D000704719700133F9E7F8B5C046F8BC08BC7D
:1024E0009E467047F8B5C046F8BC08BC9E4670478B
:1024F00002030405060708090A0B0C0D0E0F101045
:10250000000000000102030405060708090A0B0C7D
:102510000D0E0F1000000000000000000000000081
:0825200001020304060708098B
:04252800E9000008BE
:04252C00C1000008E2
:0C253000010000000400000000127A000E
:04000005080023A923
:00000001FF
