:020000040800F2
:10000000001000206D160008A9040008B3160008AF
:1000100000000000000000000000000000000000E0
:10002000000000000000000000000000AB04000819
:100030000000000000000000AD040008AF0400084C
:10004000B916000800000000BF160008C516000819
:10005000CB160008D1160008D7160008DD160008D8
:1000600000000000E3160008E9160008EF1600087B
:10007000F5160008FB160008011700080000000034
:100080000717000800000000000000000D1700081E
:10009000000000003D17000813170008191700089A
:1000A000000000001F1700080000000025170008CE
:1000B0000000000000000000000000000000000040
:1000C00010B5064C2378002B07D1054B002B02D02E
:1000D000044800E000BF0123237010BD0C00002085
:1000E000000000009C170008044B10B5002B03D043
:1000F0000349044800E000BF10BDC04600000000F6
:10010000100000209C170008002243088B4274D383
:1001100003098B425FD3030A8B4244D3030B8B4208
:1001200028D3030C8B420DD3FF22090212BA030C11
:100130008B4202D31212090265D0030B8B4219D3F2
:1001400000E0090AC30B8B4201D3CB03C01A524112
:10015000830B8B4201D38B03C01A5241430B8B425A
:1001600001D34B03C01A5241030B8B4201D30B0343
:10017000C01A5241C30A8B4201D3CB02C01A52416A
:10018000830A8B4201D38B02C01A5241430A8B422D
:1001900001D34B02C01A5241030A8B4201D30B0216
:1001A000C01A5241CDD2C3098B4201D3CB01C01A30
:1001B000524183098B4201D38B01C01A524143093A
:1001C0008B4201D34B01C01A524103098B4201D328
:1001D0000B01C01A5241C3088B4201D3CB00C01A95
:1001E000524183088B4201D38B00C01A524143080D
:1001F0008B4201D34B00C01A5241411A00D2014632
:10020000524110467047FFE701B5002000F006F8A4
:1002100002BDC0460029F7D076E770477047C04658
:10022000F0B5CE46474680B589B01422002103A818
:1002300001F0ACFA4A4B596980200003014359612F
:100240005A6902400092009A596980208002014355
:1002500059615A6902400192019A5A698021C90282
:100260000A435A615B690B400293029B8024A401FC
:100270003C4B984600222100180000F0E6FF902732
:10028000FF0500222621380000F0DFFF364B99469B
:10029000364E00221900300000F0D7FF03940125EC
:1002A000049500240594069403A9404600F0FEFE40
:1002B0002623039304950594069403A9380000F0BF
:1002C000F5FE2B4B03930494059403A9380000F02A
:1002D000EDFE102303930E3B984604930594069479
:1002E0000233079303A9380000F0E0FEC023039314
:1002F0004346049305940694079503A9380000F03B
:10030000D5FE0F2303930494059403A9300000F055
:10031000CDFEC0231B0103931223049305950F3BCD
:100320000693079503A9300000F0C0FE4B460393E7
:1003300004950594069403A9300000F0B7FE8023CD
:100340001B0203934346049305940694079303A961
:10035000300000F0ABFE09B0C0BCB946B046F0BDFD
:10036000001002400008004830500000000400481F
:10037000089D000072B6FEE700B585B00C22002192
:1003800001A801F003FA1748174B036000234360EC
:100390008360C360012202610421416103764376D8
:1003A0008376C376C221FF31C16103629E39FF3972
:1003B0004354826200F0B4F900280FD10023019366
:1003C00080235B01029380235B05039301A9054809
:1003D00000F068FA002803D105B000BDFFF7CAFF9E
:1003E000FFF7C8FF280000200024014010B509488D
:1003F000094B03602F23436000238360074AC260D8
:1004000003614361836101F0F5F8002800D110BD5C
:10041000FFF7B0FF6800002000440140E703000040
:1004200010B590B03022002104A801F0AFF91024DB
:1004300010220021684601F0A9F912230493113B10
:100440000793099308940A9401330C93A0239B0308
:100450000E9304A800F0C0FA00280ED107230093E1
:10046000053B01930023029303930121684600F0AA
:1004700039FD002803D110B010BDFFF77BFFFFF757
:1004800079FF000010B500F0EFFDFFF7C9FFFFF79F
:10049000C7FEFFF771FFFFF7A9FF024800F03EFF1C
:1004A000FEE7C04668000020FEE77047704710B5C1
:1004B00000F0EAFD10BD10B500F072F810BD0000AC
:1004C00082B00A4B996901221143996199690A40E6
:1004D0000092009ADA69802149050A43DA61DB69F2
:1004E0000B400193019B02B07047C04600100240D0
:1004F00010B588B004001422002103A801F046F9C9
:100500002268114B9A4201D008B010BD0F4B996977
:1005100080208000014399619A6902400192019A0A
:100520005A69802189020A435A615B690B40029330
:10053000029B01230393023304937138FF3803A90C
:10054000C00500F0B3FDDFE70024014000100240C9
:1005500000B583B002680C4B9A4201D003B000BDD5
:100560000A4A9169802080020143916193690340A6
:100570000193019B00220021152000F06DFE152043
:1005800000F09AFEEAE7C046004401400010024035
:1005900010B500F09DF810BD10B500F03BF810BD8F
:1005A00010B51B4B1A68541C1C6005212000FFF776
:1005B00031FE002903D1164A5368013353600A21E2
:1005C0002000FFF727FE002913D0114B1868642183
:1005D000FFF720FE002913D00D4B1868FA2189007F
:1005E000FFF718FE002903D1094A1369013313618B
:1005F00010BDFFF7CDFF064A936801339360E4E72F
:10060000FFF7CAFF024AD3680133D360E4E7C0466C
:100610001C01002010B52C4A136801331360052B10
:1006200002D9130000221A60274B18680521FFF732
:10063000F1FD002923D19024E4050122023120009C
:1006400000F003FE01220421200000F0FEFD1F4CFB
:1006500001221021200000F0F8FD012220212000BD
:1006600000F0F3FD802101224901200000F0EDFDA2
:1006700080210122C901200000F0E7FD10BD902477
:10068000E40500220221200000F0DFFD0022042109
:10069000200000F0DAFD0D4C00221021200000F0B7
:1006A000D4FD00222021200000F0CFFD8021002277
:1006B0004901200000F0C9FD80210022C90120006D
:1006C00000F0C3FDDAE7C046300100200004004816
:1006D00010B580219024E405C900200000F0AEFD93
:1006E0000B4B187080210901200000F0A7FD094B79
:1006F000187080214901200000F0A0FD064B187001
:1007000080214900200000F099FD044B187010BDB5
:10071000340100203501002036010020370100207F
:1007200070B5041E00D1B4E0836B002B00D180E0D3
:10073000A36BDB0600D5A6E02268916804200500C3
:100740000D40084200D09EE0A16B534B1940063388
:10075000FF331943A163916801330B40012B6ED025
:10076000D36818218B43A1680B43D36022681369B7
:100770009B009B0861680B4313612268D36847495B
:100780000B40D360237E9B03627ED2031343A17E82
:100790004A031343A26A012A58D08022520113430C
:1007A000E26813432269022A52D02B432422A25C1E
:1007B00052001343E27E012A4CD0E269C221FF318C
:1007C0008A4202D0216A0A4313432168CA681A4345
:1007D000CA60E26A802149058A420DD0012A0BD005
:1007E000022A09D0032A07D0042A05D0052A03D0FB
:1007F000062A01D0072A0AD12068416907229143BD
:10080000416120684169E56A2A400A4342612268E1
:10081000D26823490A409A422BD0A36B12229343F9
:10082000023A1343A363E36B0F3A1343E3630120DC
:100830002EE0C36334228354FFF75AFE78E713682F
:10084000DB079AD4D3681B0497D489E72A00A6E76C
:100850000425AAE7002903D1802252021343ACE702
:10086000A26B20210A43A263E26B1F390A43E263B1
:10087000A3E70023E363A36B03229343023A1343EA
:10088000A363002004E0A36B10221343A3630120A1
:1008900070BD0120FCE7C046FDFEFFFF1902FEFF10
:1008A000E7FF3F8330B583B0040000230193343366
:1008B000C35C012B00D181E034230122C2540368C0
:1008C0009A68520770D43E4A4868904253D09A6A58
:1008D00001200D68A84002439A62E36A8022520513
:1008E00093421ED0012B1CD0022B1AD0032B18D000
:1008F000042B16D0052B14D0062B12D0072B10D0AA
:1009000022685069072303408868984209D05069DB
:10091000072398435061206842698D682B40134338
:1009200043610B681A00103A012A01D9002040E007
:10093000244A1268102B09D08023DB031343214A79
:1009400013600B68102B04D0002032E080231B04BE
:10095000F4E71D4B18681D49FFF7D6FB83001B18F1
:100960005B00019302E0019B013B0193019B002B83
:10097000F9D100201DE09A6A01200D68A840824349
:100980009A620B681A00103A012A01D9002010E07F
:100990000C4A1268102B05D00D4B1340094A136006
:1009A000002006E00B4BF8E7836B202213438363A0
:1009B000012034230022E25403B030BD0220FBE7C3
:1009C00001100000082701400800002040420F00ED
:1009D000FFFFBFFFFFFF7FFF70B582B0041E00D195
:1009E0002EE20368DB0726D5AE4B5A680C23134072
:1009F000042B18D0AB4B5A680C231340082B0ED095
:100A00006368012B3CD0002B51D1A64B1A68A64934
:100A10000A401A601A68A5490A401A6036E0A14BDC
:100A20005B68DB03ECD59F4B1B689B0303D56368B6
:100A3000002B00D107E223689B0772D5994B5B68B6
:100A40000C221A425DD0974B5A680C231340082B96
:100A500053D0E368002B00D185E0924A136801214E
:100A60000B43136000F01CFB05008E4B1B689B07BB
:100A700070D400F015FB401B0228F6D90320E0E1FA
:100A8000884A116880235B020B4313606368002B64
:100A900025D000F005FB0500824B1B689B03CAD4E0
:100AA00000F0FEFA401B6428F6D90320C9E1052BAB
:100AB00009D07C4B1A687C490A401A601A687B4945
:100AC0000A401A60E2E7774B19688022D2020A4393
:100AD0001A601968802252020A431A60D6E700F0B1
:100AE000DFFA05006F4B1B689B03A4D500F0D8FA12
:100AF000401B6428F6D90320A3E16A4B5B68DB0343
:100B0000A7D4684B1B689B0703D5E368012B00D073
:100B10009BE164490B68F82293432269D200134396
:100B20000B6023681B0744D5E369002B2ED05D4A78
:100B3000536A01210B43536200F0B2FA0500594B8E
:100B40005B6A9B0735D400F0ABFA401B0228F6D94C
:100B5000032076E153490B68F82293432269D200BF
:100B600013430B60DDE74F4A136801218B43136089
:100B700000F096FA05004B4B1B689B07D1D500F09F
:100B80008FFA401B0228F6D903205AE1454A536ADE
:100B900001218B43536200F083FA0500414B5B6AED
:100BA0009B0706D500F07CFA401B0228F6D90320EB
:100BB00047E123685B0700D480E03A4BDB69DB0048
:100BC0001DD4384AD169802040050143D161D369E1
:100BD00003400193019B0125354B1B68DB0510D5B4
:100BE000A368012B21D0002B36D12E4B1A6A01218C
:100BF0008A431A621A6A03318A431A621AE000258C
:100C0000EAE72B4A116880235B000B43136000F076
:100C100047FA0600264B1B68DB05E1D400F040FADA
:100C2000801B6428F6D903200BE11E4A136A0121B8
:100C30000B431362A368002B24D000F031FA0600A6
:100C4000184B1B6A9B0737D400F02AFA801B194BFC
:100C50009842F5D90320F4E0052B09D0114B1A6A0C
:100C600001218A431A621A6A03318A431A62E1E750
:100C70000C4B1A6A04210A431A621A6A03390A439E
:100C80001A62D7E700F00CFA0600064B1B6A9B07B6
:100C900012D500F005FA801B064B9842F5D90320C7
:100CA000CFE0C04600100240FFFFFEFFFFFFFBFF4A
:100CB0000070004088130000012D33D02368DB064C
:100CC00010D56369012B33D0053351D1654A536B7D
:100CD00004218B435363536BF4318B43A169C900E7
:100CE0000B435363236A002B00D1B0E05D4A516887
:100CF0000C220A40082A00D18AE0022B4FD0594A20
:100D0000136859490B40136000F0CAF90400554BB1
:100D10001B689B017AD500F0C3F9001B0228F6D9A5
:100D200003208EE04F4AD36950490B40D361C5E799
:100D30004C4B5A6B04210A435A635A6B03390A43DA
:100D40005A6300F0ADF90500464B5B6B9B0706D478
:100D500000F0A6F9401B0228F6D9032071E04149B2
:100D60004B6BF8229343A269D20013434B63B9E75C
:100D70003C4B5A6B04210A435A635A6B03398A432A
:100D80005A6300F08DF90500364B5B6B9B07A9D5C4
:100D900000F086F9401B0228F6D9032051E0314AC1
:100DA000136831490B40136000F07AF905002D4BB0
:100DB0001B689B0106D500F073F9401B0228F6D989
:100DC00003203EE0274BDA6A0F218A43E16A0A4397
:100DD000DA625A6826490A40A16A606A01430A43F6
:100DE0005A601968802252040A431A6000F058F9C8
:100DF00004001C4B1B689B0106D400F051F9001B3A
:100E00000228F6D903201CE000201AE0002018E098
:100E1000012B1ED0134B5A68D96A80235B02134002
:100E2000606A834217D10F230B40E16A8B4214D1D1
:100E3000F0239B031A40A36A9A4210D1002000E0DD
:100E4000012002B070BD0120FBE70120F9E700207E
:100E5000F7E70120F5E70120F3E70120F1E70120A2
:100E6000EFE7C04600100240FFFFFFFEFFFFFFEF6D
:100E7000FFFFC2FF10B588B004AA164B13CB13C2F4
:100E80001B6813606A46144B13CB13C21B681360B4
:100E9000124B5A680C231340082B02D0104808B09C
:100EA00010BD910C0733194004A8445C0B49C96A72
:100EB0000B406946C95CD30304D50948FFF724F900
:100EC0006043ECE763011B1B9801C01AC0000019C6
:100ED0000002E4E7B4170008C81700080010024039
:100EE00000127A0070B504000D00002800D17EE0E9
:100EF000434B1A68012313408B420AD240490B68C6
:100F0000012293432B430B600B681A40AA4200D086
:100F10006FE023689A070ED55B0705D5394A5168FB
:100F2000E023DB000B435360364A5368F0218B43C8
:100F3000A1680B4353602368DB072DD56368012B41
:100F40001ED0022B22D02F4A1268920753D52D496A
:100F50004A680320824313434B6000F0A1F8060067
:100F6000284B5B680C221A4063689B009A4213D09E
:100F700000F096F8801B244B9842F1D9032035E00D
:100F8000204A12689203E2D401202FE01D4A126821
:100F90009201DCD4012029E0194B1A680123134087
:100FA000AB4209D916490B68012293432B430B60CE
:100FB0000B681A40AA4220D123685B0706D5114A64
:100FC000536812490B40E1680B435360FFF752FF2F
:100FD0000C4B5A6812090F2313400D4AD35CD840BA
:100FE0000C4B1860002000F017F8002070BD0120A5
:100FF000FCE70120FAE70120F8E70120F6E7C04608
:10100000002002400010024088130000FFF8FFFF9C
:10101000DC1700080800002010B504000F4B1978F9
:10102000FA208000FFF770F801000D4B1868FFF7F9
:101030006BF800F04DF900280DD1032C01D90120E7
:101040000AE0013000222100404200F005F9054B82
:101050001C60002000E0012010BDC0460000002000
:10106000080000200400002010B5064A1368102173
:101070000B4313600020FFF7CFFFFFF721FA00209A
:1010800010BDC04600200240034A1168034B1B7884
:101090005B1813607047C046380100200000002034
:1010A000014B18687047C04638010020F0B5CE46A5
:1010B000474680B583B0002333E0032600E00026D6
:1010C000A64034003C4302329200564E9451564A98
:1010D0001468EA432600AE434F68FF0301D52C4352
:1010E0002600514C26606468260016404F68BF03F6
:1010F00001D52C4326004C4C6660A468260016409F
:101100004F68FF0201D52C432600474CA660E468D7
:1011100022404E68B60201D52A002243424CE260CA
:1011200001330C682200DA4077D001229A40250072
:1011300015401442F4D04C68661E012E03D9112CC0
:1011400001D0122C12D184685F000326BE40B44344
:101150002600CC68BC4034438460446894434A68A9
:101160001609012232409A4022434260C4685F005F
:101170000326BE40F2439446B44326008C68BC402C
:101180003443C4604A68022A01D0122A10D1DE0812
:101190000836B2009146145807221A4092000F26D2
:1011A0009640B4430E699640320022434C4622508A
:1011B00004686246144003224E683240BA4022431B
:1011C00002604A68D200ABD5184CA66901221643CA
:1011D000A661A46922400192019A9A08941CA40075
:1011E000104EA75903241C40A4000F26A640B74365
:1011F0009026F605B04200D161E70D4EB04208D00E
:101200000C4EB04207D00C4EB04200D155E7052637
:1012100056E7012654E7022652E703B0C0BCB946A0
:10122000B046F0BD00000140000401400010024043
:101230000004004800080048000C004803690B4205
:1012400001D0012070470020FCE7002A01D0816115
:1012500070478162FCE7000070B5002811DB83084D
:10126000134EC0339B009D5903242040C000FF2231
:1012700014008440A54389010A4082402A439A51C0
:1012800070BD0F230340083B9B0806339B00094AAF
:10129000944663445C6803221040C000FC32150091
:1012A0008540AC4389010A40824022435A60E7E707
:1012B00000E100E000ED00E0002805DB1F231840FE
:1012C0001E3B8340014A13607047C04600E100E0C6
:1012D000013880235B0498420FD2094A50600948C4
:1012E000036A1B021B0AC02109060B430362002389
:1012F000936007331360002070470120FCE7C0466D
:1013000010E000E000ED00E0704770477047704764
:101310007047704770477047704700003D23C35CBB
:10132000012B1FD13C330222C2540268D368012131
:101330000B43D36003680D4A934208D00C4A934292
:1013400005D01A6801210A431A6000200BE0996851
:1013500007220A40062A07D01A6801210A431A60A8
:10136000002000E0012070470020FCE7002C014035
:101370000004004010B5040003681A69920711D5F3
:10138000DA6892070ED5032252421A6101230377CD
:1013900003689B699B0700D184E09023C35898475A
:1013A0000023237723681A69520714D5DA68520795
:1013B00011D5052252421A610223237723689A69C4
:1013C000C0239B001A4200D174E09023E358200010
:1013D00098470023237723681A69120711D5DA6822
:1013E00012070ED5092252421A610423237723687B
:1013F000DB699B0767D09023E358200098470023C0
:10140000237723681A69D20613D5DA68D20610D575
:10141000112252421A61082323772368DA69C02314
:101420009B001A4258D09023E3582000984700238D
:10143000237723681A69D20709D5DA68D20706D557
:10144000022252421A618023E35820009847236801
:101450001A69120609D5DA68120606D581225242A7
:101460001A61B023E3582000984723681A6952068E
:1014700009D5DA68520606D5412252421A618823FC
:10148000E3582000984723681A69920609D5DA685C
:10149000920606D5212252421A61A823E358200061
:1014A000984710BD9823C35898479C23E3582000C1
:1014B000984775E79823E358200098479C23E35802
:1014C0002000984785E79823E358200098479C23FD
:1014D000E3582000984792E79823E3582000984764
:1014E0009C23E35820009847A1E7000003681A4AAC
:1014F000904202D0194A904203D1702293434A6825
:101500001343154A90420BD0144A904208D0144A13
:10151000904205D0134A904202D0134A904203D120
:10152000124A1340CA681343802293434A69134303
:1015300003608B68C3620B688362074B984205D0D7
:10154000084B984202D0084B984201D10B690363C3
:10155000012343617047C046002C01400004004055
:10156000002000400044014000480140FFFCFFFF14
:101570008023134AC2500433124AC2500433124A21
:10158000C2500433114AC2500433114AC2500433CA
:10159000104AC2500433104AC25004330F4AC2509A
:1015A00004330F4AC25004330E4AC25004330E4A69
:1015B000C25004330D4AC25004330D4AC250704722
:1015C000B7040008091300081513000817130008D2
:1015D0000D1300080F1300080B1300081113000867
:1015E0001313000819130008651600086716000891
:1015F0006916000870B5041E2FD03D23C35C002B74
:101600001CD03D2502236355210001C9FFF76EFF61
:1016100001234622A354083AA3540132A3540132B1
:10162000A3540132A3540132A3540132A354013212
:10163000A3540132A3546355002070BD3C330022F3
:10164000C254FFF795FFA36C002B03D02000A36CBE
:101650009847D6E7024BA364F8E70120EDE7C046C0
:1016600051050008704770477047704710B50B4B25
:101670000B4A01E002CA02C30A498B42FAD30A4B61
:1016800001E0002204C3094A9342FAD3FFF7EDFFB9
:1016900000F058F8FEF7F6FEFEE7C0460000002016
:1016A000F41700080C0000200C0000203C01002072
:1016B000FEE710B5FFF7FCFF10B5FFF7F9FF10B517
:1016C000FFF7F6FF10B5FFF7F3FF10B5FFF7F0FFD8
:1016D00010B5FFF7EDFF10B5FFF7EAFF10B5FFF704
:1016E000E7FF10B5FFF7E4FF10B5FFF7E1FF10B516
:1016F000FFF7DEFF10B5FFF7DBFF10B5FFF7D8FFF0
:1017000010B5FFF7D5FF10B5FFF7D2FF10B5FFF703
:10171000CFFF10B5FFF7CCFF10B5FFF7C9FF10B52D
:10172000FFF7C6FF10B5FFF7C3FF000010B5024872
:10173000FFF720FE10BDC0466800002010B5FFF77F
:10174000F5FF10BD70B500260C4D0D4C641BA410A8
:10175000A64209D1002600F021F80A4D0A4C641B6C
:10176000A410A64205D170BDB300EB5898470136CE
:10177000EEE7B300EB5898470136F2E7EC170008A4
:10178000EC170008EC170008F01700080300821897
:10179000934200D1704719700133F9E7F8B5C0469C
:1017A000F8BC08BC9E467047F8B5C046F8BC08BCFB
:0417B0009E4670479A
:1017B40002030405060708090A0B0C0D0E0F10108E
:1017C400000000000102030405060708090A0B0CC7
:1017D4000D0E0F10000000000000000000000000CB
:0817E4000102030406070809D5
:0417EC00E900000808
:0417F000C10000082C
:0C17F400010000000400000000127A0058
:040000050800166D6C
:00000001FF
