:020000040800F2
:10000000001000202D38000879150008733800080A
:1000100000000000000000000000000000000000E0
:100020000000000000000000000000007B15000838
:1000300000000000000000007D15000821390008C4
:1000400079380008000000007F3800088538000873
:100050008B38000891380008973800089D38000850
:1000600000000000A3380008A9380008AF380008D5
:10007000B5380008BB380008C1380008000000008F
:10008000C73800080000000000000000CD3800085C
:1000900000000000F53800080D390008D3380008CA
:1000A00000000000D938000800000000DF38000818
:1000B0000000000000000000000000000000000040
:1000C00010B5064C2378002B07D1054B002B02D02E
:1000D000044800E000BF0123237010BD140000207D
:1000E0000000000080390008044B10B5002B03D03D
:1000F0000349044800E000BF10BDC04600000000F6
:100100001800002080390008002243088B4274D375
:1001100003098B425FD3030A8B4244D3030B8B4208
:1001200028D3030C8B420DD3FF22090212BA030C11
:100130008B4202D31212090265D0030B8B4219D3F2
:1001400000E0090AC30B8B4201D3CB03C01A524112
:10015000830B8B4201D38B03C01A5241430B8B425A
:1001600001D34B03C01A5241030B8B4201D30B0343
:10017000C01A5241C30A8B4201D3CB02C01A52416A
:10018000830A8B4201D38B02C01A5241430A8B422D
:1001900001D34B02C01A5241030A8B4201D30B0216
:1001A000C01A5241CDD2C3098B4201D3CB01C01A30
:1001B000524183098B4201D38B01C01A524143093A
:1001C0008B4201D34B01C01A524103098B4201D328
:1001D0000B01C01A5241C3088B4201D3CB00C01A95
:1001E000524183088B4201D38B00C01A524143080D
:1001F0008B4201D34B00C01A5241411A00D2014632
:10020000524110467047FFE701B5002000F006F8A4
:1002100002BDC0460029F7D076E770477047C04658
:100220009E2110B5C905041C00F02EFE002803D144
:10023000201C00F097FD10BD9E21201CC90500F078
:10024000E3FB00F08FFD80231B069C466044F2E731
:10025000F0B5C64643025B0A4E0245004F00DA0085
:10026000C40F9C46700A904600B52D0E3F0EC90F74
:10027000B6098C424BD0EA1B002A36DD002F61D034
:10028000FF2D00D1ADE08023DB041E431B2A00DCE0
:10029000D3E001204346181A430100D48CE08001CA
:1002A0008709380000F0FAFD05388740854200DCF8
:1002B000B6E02D1AB3483840430704D00F2303405B
:1002C000042B00D00430430100D478E06A1CFE2DDA
:1002D00065D08001430A9C46D2B26346D0051843DC
:1002E000E407204380BCB846F0BD002A35D07A1B15
:1002F000002D00D0AFE04346002B00D1A7E0531EF5
:10030000012A00D12FE1FF2A69D01A00AAE0E91BD7
:10031000002970DD002F37D0FF2D62D08023DB0451
:100320001E431B2900DCB0E001204044430143D5BB
:100330000135FF2D33D00123934A0340400810407C
:100340001843B9E7002E00D183E0511E012A00D1E5
:10035000D8E0FF2A45D00A0098E7FE276A1C17421A
:1003600000D086E0002D00D0B7E04346002B00D13E
:10037000F3E00022002EB0D0981B430100D4FAE035
:1003800043460C00F01A97E7002E00D1C8E04A1E41
:10039000012900D1AEE0FF2923D01100C1E70023DD
:1003A000FF229C4699E7FE216A1C114277D0FF2A62
:1003B000F5D0150046447008430700D07EE7C30817
:1003C000FF2D0ED05B025B0A9C46EAB285E7002E49
:1003D00007D08022D203134203D0104201D10C0077
:1003E0000300002BDBD08020C00318434002430AE7
:1003F0009C46FF2271E70029D5D07A1B002D60D1E1
:100400004346002B24D0531E012A73D0FF2AE7D085
:100410001A001B2A00DC85E001203D00801985E7D9
:1004200020233A00451B38000135EA405D1BA840F7
:10043000431E9841002510433EE7202330009B1ABD
:1004400031009840D140431E9841084322E70C00F8
:1004500003001500B4E7FF2FC1D080234046DB0422
:10046000184380461B2A51DD01200C003D00301A44
:1004700012E743469F1B7B012BD4002F00D010E7CF
:100480000023002400229C4627E72023320030006E
:10049000CA40591A8840431E9841104345E7002D31
:1004A0004AD14346002B63D00022002E00D114E72E
:1004B00030004044430100D47EE7324B0135184000
:1004C0007AE7FF2F8CD080234146DB04194388460E
:1004D0009FE743460C00F71AE3E64246002A00D0A5
:1004E00075E7002E00D07AE78023DB0300249C46CA
:1004F000FF22F2E6300040440125430100D45BE7CF
:10050000022518E743460125981BC5E620234446EB
:100510004046D4409A1A9040431E98412043A4E795
:100520000D004DE7202341464046D1409A1A9040A5
:10053000431E9841084370E74246002A00D14FE726
:10054000002E00D14DE78022D203134200D148E7AC
:10055000104200D045E7030043E7002E90D00C0086
:1005600084460022B9E643460C00F01A013593E6B2
:1005700084460022B1E6002800D01DE700230024B5
:100580009C46AAE6FFFFFFFBFFFFFF7DF0B54F464D
:100590004646D6464502C0B547000C1C6D0A3F0EC4
:1005A000C60F002F00D170E0FF2F00D175E0EB00E7
:1005B0008025ED041D43002399469A467F3F600243
:1005C000430A984663001B0EE40F002B4ED0FF2B0E
:1005D00046D04246D0008022D204024390460022F8
:1005E0007F3B3100FF1A4B466140C9B213430F2BCA
:1005F00000D9B5E06E489B00C3589F46002398463B
:100600002600454692465346022B00D189E0032B33
:1006100000D19EE0012B18D03B007F33002B69DD19
:100620006A0704D00F222A40042A00D004352A0188
:1006300003D5604B1D403B008033FE2B00DD70E096
:10064000AD016D0AD8B202E00E0000200025C00501
:100650002843F6073043E0BCBA46B146A846F0BD91
:100660004346002B3FD10222FF3F03E04346002BCD
:100670002DD1012231004B466140C9B213430F2BEB
:1006800034D84D489B00C3589F46002D13D10423F6
:100690009946033B00279A4691E7002D05D1082390
:1006A0009946063BFF279A4689E70C239946093B62
:1006B000FF279A4683E7280000F0F0FB7627431FC8
:1006C0009D4000237F4299469A463F1A77E740466D
:1006D00000F0E4FB4246431F9A4076235B4290467B
:1006E0001B1A00227DE7FF2303227AE70E00FF207A
:1006F0000025ACE70120C01A1B28A6DC9E372A0083
:10070000BD40C2406B1E9D4115436B0704D00F23B3
:100710002B40042B00D004356B0144D5012000256B
:1007200095E7FF20002592E780250026FF20ED03B6
:100730008DE7002398468020C003054209D0434638
:10074000034206D1454605436D022600FF206D0A8F
:100750007DE78020C00305436D02FF206D0A76E728
:1007600042466B015001834219D21B220025013FF2
:1007700001261C006D005B00002C01DB984201D8B3
:100780001B1A3543013A002AF3D15A1E93411D43E7
:100790003B007F330E00002B00DD41E7AAE71A2261
:1007A00001251B1AE4E7AD0100206D0A4FE7C046A2
:1007B00098390008FFFFFFF7D8390008F0B54F4619
:1007C0004646D64644024500C0B5640A0F1C2D0EAD
:1007D000C60F002D00D18DE0FF2D00D192E0002347
:1007E000802099469A46E400C00404437F3D780285
:1007F000430A98467B001B0EFF0F002B00D170E0D0
:10080000FF2B00D186E04246D00080227F3BED18CE
:100810000023D204024390469C4631004B46794067
:10082000681C0F2B1CD8764A9B00D3589F46390072
:100830004446E2465346022B0FD0032B00D1D7E0AB
:10084000012B37D100200024C0052043C9070843ED
:10085000E0BCBA46B146A846F0BDFF200024F3E74D
:10086000260C2404220C44462404240C434627006E
:100870001B0C574374435A435E4312193B0C9B189D
:100880009C4203D980225202944666443F041A04D3
:100890003F0CD2199401671EBC411B0C920E9B1990
:1008A00014439B011C431B0100D49BE001236208FD
:1008B0001C40144302007F32002A64DD630704D029
:1008C0000F232340042B00D00434230103D502005E
:1008D0004C4B80321C40FE2ABFDCA401640AD0B21B
:1008E000B2E74346002B3DD14A4601331A439146B5
:1008F0009C4692E7002C29D104239946033B00250E
:100900009A4674E7002C1BD108239946063BFF2525
:100910009A466CE74346FF35002B0BD102234A462B
:100920001A4391469C4678E753463100022B00D08B
:1009300083E792E703234A461A4391469C466CE7B5
:100940000C239946093BFF259A4650E7200000F00A
:10095000A5FA7625431F9C4000236D4299469A468E
:100960002D1A44E7404600F099FA4246431F9A4048
:1009700000232D1A90469C46763D4EE780240021A8
:10098000FF20E40360E701239B1A1B2B00DD59E7DE
:1009900022009E30DA4084401300621E94411C43C2
:1009A000630704D00F232340042B00D004346301D9
:1009B0001AD50120002447E78020C003044209D053
:1009C0004346034206D14446044364023900FF20F3
:1009D000640A39E78020C003044364023100FF2029
:1009E000640A31E7280065E7A4010020640A2BE7C8
:1009F0008020C00304436402FF20640A24E7C04649
:100A0000183A0008FFFFFFF7F8B5CE464746430205
:100A10005B0A4E02DA009446720A914645004A008B
:100A200080B52D0E1F00C40F120EC90FB609FF2A84
:100A30005BD0012041408C4239D0A81A00285ADDF1
:100A4000002A6AD0FF2D00D1D9E08022D2041643BB
:100A50001B2800DCE9E001206346181A430100D49A
:100A6000B4E080018709380000F018FA05388740A3
:100A7000854200DCCCE02D1AB5483840430704D04D
:100A80000F230340042B00D00430430100D4A0E026
:100A90006A1CFE2D00D18DE08001470AD2B2D0053C
:100AA0003843E4072043C0BCB946B046F8BDA81A95
:100AB0008046002845DD002A70D0FF2D00D19EE041
:100AC0008023DB041E4343461B2B00DCD2E00120C5
:100AD000604443017AD50135FF2D6BD001239D4A37
:100AE0000340400810401843C8E7002E20D08C4235
:100AF00023D02800FF38002839D0571B002D00D004
:100B00009DE06346002B00D1DBE07B1E012F00D16E
:100B10000DE1FF2F71D01F0098E0002E00D1A7E05B
:100B2000421E012800D1E6E0FF2868D010008FE7C0
:100B300001204140A14200D07FE7FF204042804693
:100B4000A8444046002838D0511B002D00D1AEE00B
:100B5000FF2A00D1DFE080236046DB04184384468F
:100B60001B2900DCD9E0012015008019B1E7FE2027
:100B70006A1C104271D1002D00D0A6E06346002B04
:100B800000D1D9E00022002E00D188E7981B430154
:100B900000D4E1E063460C00F01A6FE7002E00D1AC
:100BA000B7E00200013A012800D19CE0FF2826D0DE
:100BB000904688E7FF22002771E7FE206A1C10425A
:100BC00064D0FF2AF6D0150066447008430700D0B1
:100BD00056E7C308FF2D12D05B025F0AEAB25EE758
:100BE0006246002A00D196E0002E08D08022D2036F
:100BF000134204D04846104201D10C004B46002B52
:100C0000D8D08027FF031F437F02FF227F0A46E7D9
:100C100020233A00451B38000135EA405D1BA840FF
:100C2000431E98410025104328E720231B1A320059
:100C30009E40C2403000431E984110430CE7FF2AFB
:100C4000DBD080236046DB04184384461B2F56DD2F
:100C500001200C001500301A00E763469F1B7B0142
:100C60003DD4002F00D0FEE600240022002716E726
:100C70000500AFE7320043464146DA4020235B1AC5
:100C80009E403000431E9841104321E7002DA7D11C
:100C90006346002B59D00022002E00D1FFE6300021
:100CA0006044430192D52A4B013518408EE76346D4
:100CB000002B47D04B1E012915D0FF292BD019003E
:100CC0004EE70C004B463D0084E76246002A8BD17C
:100CD000002E92D180270024FF22FF03DFE6634627
:100CE0000C00F71ABFE6300060440125430100D430
:100CF0006CE70225F2E663460125981BAEE6202349
:100D000064466046FC40DF1BB840431E98412043C8
:100D10009FE705005EE74B4671E720236546604686
:100D2000CD40591A8840431E984128431CE763462A
:100D30000C000125F01A91E6002E95D00C004F46CC
:100D40000022ACE64B460D0044E74F460022A6E6E3
:100D5000FFFFFFFBFFFFFF7D002800D036E70024E8
:100D600000279CE641024200C30F490A0020120EF0
:100D70007E2A03DD9D2A02DD094A981870478020EB
:100D800000040143952A07DC9620821AD14048428C
:100D9000002BF3D10800F1E7963A9140F7E7C046FF
:100DA000FFFFFF7F70B5051E0ED000F077F89E2381
:100DB00004001B1A962B0CDC082801DD083CA5401A
:100DC0006D026D0AD8B201E000200025C00528435D
:100DD00070BD992B09DD020029001B3291404A1E8B
:100DE00091410522121AD5400D43052C12DC290031
:100DF0000C4E31406A0709D00F202840042805D046
:100E000004314A0102D59F2331401B1B89014D0A41
:100E1000D8B2DBE7621F95402900024E31406A07D5
:100E2000F4D0E9E7FFFFFFFB844608006146FFE7D7
:100E30001FB500F0BDF8002801D40021C8421FBD35
:100E400010B500F049F84042013010BD10B500F077
:100E5000AFF8002801DB002010BD012010BDC04606
:100E600010B500F0A5F8002801DD002010BD01201C
:100E700010BDC04610B500F055F8002801DC002078
:100E800010BD012010BDC04610B500F04BF8002881
:100E900001DA002010BD012010BDC0461C21012335
:100EA0001B04984201D3000C10391B0A984201D34D
:100EB000000A08391B09984201D30009043902A22B
:100EC000105C40187047C046040302020101010192
:100ED000000000000000000070B5420045024E0214
:100EE0004C00C30F6D0A0120120E760A240EC90FA2
:100EF000FF2A06D0FF2C03D0A24201D1B54206D072
:100F000070BD002DFCD1FF2CFAD1002EF8D18B4200
:100F100006D00120002AF3D12800431E9841EFE7B4
:100F20000020EDE770B5420045024E024C00C30FB1
:100F30006D0A120E760A240EC80FFF2A1BD0FF2C52
:100F40000ED0002A1BD1002C01D1002E1CD0002D68
:100F50000CD083421CD00221581E0840013870BDBD
:100F6000002E22D1002AF4D1002DF2D10028F6D192
:100F700001204042F3E7002D17D1FF2CF0D0002CC8
:100F8000E7D1002EE5D1E6E70020002DE7D0E2E72B
:100F9000A24205DCEADBB54202D8E7D30020DEE757
:100FA0004342584140000138D9E702204042D6E789
:100FB00070B5420045024E024C00C30F6D0A120E7E
:100FC000760A240EC80FFF2A0BD0FF2C0DD0002A62
:100FD0001FD1002C16D1002E14D10020002D10D0CE
:100FE00009E0002D0CD1FF2C13D1002E08D1002ACE
:100FF00008D0834212D00221581E0840013800E078
:10100000022070BD002DF4D10028FAD10120404209
:10101000F7E7002CEDD1002EEBD1ECE7A24205DC86
:10102000F2DBB54202D8EFD30020EAE74342584151
:1010300040000138E5E7C046F0B5CE46474680B5EA
:1010400089B01422002103A802F092FC324B5969A6
:1010500080200003014359615A6902400092009ABE
:10106000596980208002014359615A690240019206
:10107000019A5A698021C9020A435A615B690B408F
:101080000293029B8024A401244B99460022210054
:10109000180001F01CFE9027FF05002226213800D1
:1010A00001F015FE1E4B98461E4D00221900280027
:1010B00001F00DFE03940126049600240594069485
:1010C00003A9484601F034FD2623039304960594B2
:1010D000069403A9380001F02BFD134B03930494ED
:1010E000059403A9380001F023FD0F230393049412
:1010F000059403A9280001F01BFD434603930496C1
:101100000594069403A9280001F012FD09B0C0BCA3
:10111000B946B046F0BDC046001002400008004885
:101120003050000000040048089D000072B6FEE741
:1011300000B585B00C22002101A802F019FC1C4862
:101140001C4B0360002343608360C3600122026183
:1011500004214161037643768376C276C221FF3152
:10116000C16103629E39FF394354826200F03CFE44
:10117000002817D10023019380235B010293802371
:101180005B05039301A90A4800F084FF00280BD1F6
:101190001023019301A9064800F07CFF002805D127
:1011A00005B000BDFFF7C2FFFFF7C0FFFFF7BEFFAE
:1011B000300000200024014010B50948094B0360AD
:1011C0002F234360002383606422C2600361436174
:1011D000836102F0E1F9002800D110BDFFF7A6FFFE
:1011E000240200200044014010B51248124B036055
:1011F000124B4360002383600122C260036143619C
:101200008361C361036201F0D7FB00280CD1002188
:10121000084801F037FC002808D10021054801F0FA
:101220005DFC002804D110BDFFF780FFFFF77EFFB3
:10123000FFF77CFF70000020005400400E090020E2
:1012400000B597B01022002112A802F091FB0822ED
:10125000002110A802F08CFB1C22002109A802F03A
:1012600087FB2022002101A802F082FB2D482E4B93
:101270000360E023FF33436000238360FA2292007F
:10128000C260036143618033836102F085F9002805
:101290003BD180235B01129312A9224802F048F847
:1012A000002834D11F4802F0AFF9002831D10023C3
:1012B0001093119310A91B4802F050FA00282AD16C
:1012C0006023099300230A930B930C930D930E93C1
:1012D0000F93082209A9134801F0AEFF00281CD182
:1012E00000230193029303930493059380229201B8
:1012F0000692089301A90B4802F05EFA00280ED16D
:10130000084800F047FA17B000BDFFF70FFFFFF7DE
:101310000DFFFFF70BFFFFF709FFFFF707FFFFF7D1
:1013200005FFC046BC000020002C014000B589B07C
:101330001C22002101A802F01BFB1748174B036079
:10134000E023FF33436000238360FA229200C260EF
:1013500003618033836102F01FF9002816D10E4823
:1013600002F052F9002813D1602301930023029365
:1013700003930593002201A9074801F05DFF0028AF
:1013800008D1054800F006FA09B000BDFFF7CEFE0F
:10139000FFF7CCFEFFF7CAFE7001002000200040DE
:1013A00010B50A480A4B0360E023FF334360002373
:1013B0008360FA229200C26003614361836102F09C
:1013C000EBF8002800D110BDFFF7B0FED8020020D6
:1013D0000048014000B58FB0102200210AA802F099
:1013E000C7FA0822002108A802F0C2FA1C22002134
:1013F00001A802F0BDFA2248224B0360E023FF332C
:10140000436000238360FA229200C260036183611B
:1014100002F0C2F8002828D180235B010A930AA9B0
:10142000174801F085FF002821D1154802F0ECF89B
:1014300000281ED100230893099308A9104802F040
:101440008DF9002817D160230193002302930393A1
:101450000593002201A90A4801F0EEFE00280CD1F4
:10146000074800F097F90FB000BDFFF75FFEFFF7E8
:101470005DFEFFF75BFEFFF759FEFFF757FEC04624
:101480008C0300200004004010B594B030220021ED
:1014900008A802F06DFA10241022002104A802F01E
:1014A00067FA10220021684602F062FA12230893BC
:1014B000113B0B930D930C940E9401331093A023C6
:1014C0009B03129308A800F07FFE002817D1072382
:1014D0000493053B0593002306930793012104A879
:1014E00001F0F8F800280CD1202300930023039387
:1014F000684601F089F9002805D114B010BDFFF746
:1015000015FEFFF713FEFFF711FE000010B501F006
:1015100031FAFFF7B9FFFFF78FFDFFF709FEFFF77D
:101520004BFEFFF761FEFFF78BFEFFF7FFFEFFF7B5
:1015300037FFFFF74FFF0B4801F014FD0A4801F099
:1015400011FD00F094F90021084801F071FF00211D
:10155000074801F06DFF0821064802F09BF800F0F3
:10156000FFF9FCE7D80200202402002070010020CF
:101570008C030020BC000020FEE77047704700008D
:1015800010B50400074B02689A4204D02268064B4B
:101590009A4203D010BD00F031FAF7E700F068F985
:1015A000F8E7C046004801400044014082B00A4BC1
:1015B000996901221143996199690A400092009A40
:1015C000DA69802149050A43DA61DB690B4001933E
:1015D000019B02B07047C0460010024010B588B0B1
:1015E00004001422002103A802F0C2F92268114B62
:1015F0009A4201D008B010BD0F4B9969802080003D
:10160000014399619A6902400192019A5A698021C5
:1016100089020A435A615B690B400293029B0123D2
:101620000393023304937138FF3803A9C00501F016
:101630007FFADFE70024014000100240F0B5C64603
:1016400000B588B004001422002103A802F090F92C
:1016500022681A4B9A4203D008B080BCB846F0BD4D
:10166000174C62698021C9020A43626163690B40B9
:101670000193019B402303932E3B98460493032739
:101680000697012507950F4E03A9300001F050FA87
:10169000802303934346049305950697079503A972
:1016A000300001F045FAE269802189030A43E261D2
:1016B000E3690B400293029BCEE7C0460054004012
:1016C000001002400004004800B587B003682B4AB0
:1016D00093421ED02A4A934227D02A4A93422ED0C0
:1016E000294A934236D0294A93421CD1284A91690B
:1016F0008020C00201439161936903400593059BDB
:1017000000220321162001F0E9FA162001F016FB51
:1017100009E01F4A916980200001014391619369AA
:1017200003400193019B07B000BD194AD169022310
:101730001943D161D26913400293029BF3E7144A23
:10174000D169802040000143D161D36903400393F4
:10175000039BE8E70E4A9169802080020143916172
:10176000936903400493049B00220121152001F09A
:10177000B5FA152001F0E2FAD5E7C046002C014089
:1017800000040040002000400044014000480140A7
:101790000010024010B588B004001422002103A8F4
:1017A00002F0E6F82368264A934207D0254A93427E
:1017B00019D0254A93422CD008B010BD234A516954
:1017C0008020C00201435161536903400093009B94
:1017D00080231B02039302230493079303A91C484D
:1017E00001F0A6F9E8E7194A516980208002014317
:1017F0005161536903400193019B402303933E3B96
:101800000493013B0793902003A9C00501F090F9D0
:10181000D2E70E4A51698020800201435161536929
:1018200003400293029B102303930E3B0493023365
:101830000793902003A9C00501F07AF9BCE7C046E0
:10184000002C014000040040002000400010024035
:1018500000040048704710B500F0ECF810BD10B55A
:1018600000F094F900F04AF900F0A4F910BD7047B7
:10187000024A1368013313607047C04640040020D9
:10188000014B18687047C0464004002010B50400A2
:10189000FFF7F6FF022C07D0032C08D0012C00D054
:1018A00010BD044B1861FBE7024B9861F8E7014B50
:1018B0001862F5E74004002010B50400FFF7E0FFD0
:1018C000022C0FD0032C10D0012C08D00023C31AF7
:1018D000022C11D0032C13D0012C09D010BD0A4BBF
:1018E0001B69F4E7084B9B69F1E7074B1B6AEEE7BE
:1018F000054A53635061F1E7034A9363D061EDE712
:10190000014AD3635062E9E74004002010B50400A7
:10191000FFF7B6FF022C0FD0032C10D0012C08D0FB
:101920000023C31A022C11D0032C13D0012C09D090
:1019300010BD0A4B9B6AF4E7084BDB6AF1E7074BE3
:101940001B6BEEE7054A13649062F1E7034A5364A8
:10195000D062EDE7014A93641063E9E74004002098
:1019600010B5104A5623D35C012B09D00420FFF791
:101970008DFF0420FFF7A0FF0420FFF7C7FF10BD75
:101980001300094A1A665622002199540320FFF7D2
:101990007DFFFFF760FF0320FFF78EFF0320FFF7B7
:1019A000B5FFECE7400400205718000810B5114BB4
:1019B0005A68501C58605422012199546331FEF733
:1019C00029FC002906D10B4BDA680132DA60562275
:1019D00001319954074B084A9A65542200219954C1
:1019E0000120FFF753FF0120FFF766FF0120FFF7FB
:1019F0008DFF10BD400400205518000810B50B4B9A
:101A00009A6801329A605522012199540849D96592
:101A1000002199540220FFF739FFFFF720FF022031
:101A2000FFF74AFF0220FFF771FF10BD40040020BE
:101A30005F18000810B52F4A136801331360052B97
:101A400002D9130000221A602A4B18680521FEF7FC
:101A5000E1FB002929D19024E40501220231200074
:101A600001F035F901220421200001F030F9224C67
:101A700001221021200001F02AF90122202120005A
:101A800001F025F9802101224901200001F01FF910
:101A900080210122C901200001F019F990200122C2
:101AA0002021C00501F013F910BD9024E4050022A7
:101AB0000221200001F00BF900220421200001F096
:101AC00006F90D4C00221021200001F000F900223F
:101AD0002021200001F0FBF8802100224901200094
:101AE00001F0F5F880210022C901200001F0EFF893
:101AF000D4E7C046A40400200004004810B58021AB
:101B00009024E405C900200001F0DAF8114B1870A8
:101B100080210901200001F0D3F80F4B18708021BB
:101B20004901200001F0CCF80C4B187080214900CD
:101B3000200001F0C5F80A4B18700821200001F0C0
:101B4000BFF8084B187001222021200001F0BFF8D7
:101B500010BDC046A9040020AA040020AB04002048
:101B6000AC040020A8040020014B58637047C04615
:101B700000200040014B58637047C04600040040FD
:101B8000014BD8637047C046002C014010B5064B8E
:101B90001868FFF7E9FF054B1868FFF7EBFF044BE8
:101BA0001868FFF7EDFF10BD00000020B004002012
:101BB0000400002010B54C4C200000F0D7F90A2199
:101BC000200000F003FA002818D0484B00221A70B9
:101BD000454C200000F0CAF90A21200000F0F6F977
:101BE000002814D0424B00221A70404B1B78012B66
:101BF00016D03F4B1B78012B44D010BD3A4800F063
:101C000045FA3C4B1860394B01221A70E0E7364820
:101C100000F03CFA384B1860354B01221A70E4E7AB
:101C2000364B19780131C9B21970354B314A1068F9
:101C30001A689446604418600929DAD9FEF764FAF4
:101C4000FFF7B0F82F49FEF7B9FD2F49FEF79EFCCC
:101C5000FEF7E6FA2D4B1860FFF7A4F8011C2C489C
:101C6000FEF7D2FE2B49FEF7A9FD2B49FEF7CCFE6D
:101C7000FFF778F8294B18600023204A1370204A98
:101C80001360B6E7264B19780131C9B21970254B9C
:101C9000194A10681A689446604418600929ACD93A
:101CA000FEF732FAFFF77EF81F49FEF787FD164967
:101CB000FEF76CFCFEF7B4FA1C4B1860FFF772F8E5
:101CC0001B49FEF7A1FE1B49FEF760FC1A49FEF70F
:101CD000BFFAFFF747F8194B18600023104A13703A
:101CE000104A136089E7C04630000020D00400206D
:101CF000BC040020CC040020B8040020090000200F
:101D0000D404002000409C4500F07F45D80400200A
:101D1000007094459A99193D00002042C8040020A3
:101D200008000020C004002000404E45C4040020EC
:101D300000003E44000020400000C841B4040020E0
:101D400030B583B00400002301930368996803222F
:101D50000A40012A14D09968204A114218D19A6881
:101D600001210A439A601E4B18681E49FEF7CCF900
:101D70000190019B002B16D0019B013B0193F8E7DA
:101D80001A68D20727D4DA681204E4D5002008E0E4
:101D9000A36B10221343A363E36B0F3A1343E36374
:101DA000012003B030BD00F001FE050023681B6870
:101DB000DB070ED400F0FAFD401B0228F6D9A36B16
:101DC00010221343A363E36B0F3A1343E363012031
:101DD000E7E70020E5E70020E3E7C04617000080C2
:101DE0001000002040420F0070B5041E00D1B4E086
:101DF000836B002B00D180E0A36BDB0600D5A6E04F
:101E000022689168042005000D40084200D09EE041
:101E1000A16B534B19400633FF331943A1639168FB
:101E200001330B40012B6ED0D36818218B43A1687E
:101E30000B43D360226813699B009B0861680B43C6
:101E400013612268D36847490B40D360237E9B030C
:101E5000627ED2031343A17E4A031343A26A012A7E
:101E600058D0802252011343E26813432269022AA8
:101E700052D02B432422A25C52001343E27E012A5B
:101E80004CD0E269C221FF318A4202D0216A0A4362
:101E900013432168CA681A43CA60E26A802149056F
:101EA0008A420DD0012A0BD0022A09D0032A07D07A
:101EB000042A05D0052A03D0062A01D0072A0AD110
:101EC0002068416907229143416120684169E56AC0
:101ED0002A400A4342612268D26823490A409A4252
:101EE0002BD0A36B12229343023A1343A363E36BF9
:101EF0000F3A1343E36301202EE0C363342283547B
:101F0000FFF76CFB78E71368DB079AD4D3681B04F0
:101F100097D489E72A00A6E70425AAE7002903D178
:101F2000802252021343ACE7A26B20210A43A26332
:101F3000E26B1F390A43E263A3E70023E363A36B69
:101F400003229343023A1343A363002004E0A36BEC
:101F500010221343A363012070BD0120FCE7C0469B
:101F6000FDFEFFFF1902FEFFE7FF3F8310B50400EF
:101F700003689B685B0723D43423C35C012B21D007
:101F800034230122C254437E012B14D10020A36BC1
:101F90000D4A1A4080235B001343A3630023E363CD
:101FA0003422A3542368183A1A60226893680421E3
:101FB0000B43936010BDFFF7C3FE0028FAD1E6E79C
:101FC0000220F7E70220F5E7FEF0FFFFF8B5040076
:101FD0000D004669082E04D00368DB68DB0719D4BE
:101FE0000C2600F0E3FC070023681A6816421AD199
:101FF0006B1CF9D0002D04D000F0D8FCC01BA84207
:10200000F2D9A36B04221343A36334230022E254C6
:1020100003202CE0836B20221343836334230022AC
:10202000C254012023E0A16B802292000A43A263E4
:10203000D968C0221201114213D1A27E002A10D108
:102040001A6812070DD59A68520711D45A680C21E4
:102050008A435A60A36B0C4A13400432FF32134385
:10206000A363207E00280CD123680C221A60F8BDDF
:10207000A36B20221343A363E36B1F3A1343E36371
:10208000EFE70020F3E7C046FEFEFFFF0368186C91
:102090007047000030B583B004000023019334334F
:1020A000C35C012B00D181E034230122C2540368B8
:1020B0009A68520770D43E4A4868904253D09A6A50
:1020C00001200D68A84002439A62E36A802252050B
:1020D00093421ED0012B1CD0022B1AD0032B18D0F8
:1020E000042B16D0052B14D0062B12D0072B10D0A2
:1020F00022685069072303408868984209D05069D4
:10210000072398435061206842698D682B40134330
:1021100043610B681A00103A012A01D9002040E0FF
:10212000244A1268102B09D08023DB031343214A71
:1021300013600B68102B04D0002032E080231B04B6
:10214000F4E71D4B18681D49FDF7DEFF83001B18DF
:102150005B00019302E0019B013B0193019B002B7B
:10216000F9D100201DE09A6A01200D68A840824341
:102170009A620B681A00103A012A01D9002010E077
:102180000C4A1268102B05D00D4B1340094A1360FE
:10219000002006E00B4BF8E7836B20221343836398
:1021A000012034230022E25403B030BD0220FBE7BB
:1021B00001100000082701401000002040420F00DD
:1021C000FFFFBFFFFFFF7FFF70B582B0041E00D18D
:1021D0002EE20368DB0726D5AE4B5A680C2313406A
:1021E000042B18D0AB4B5A680C231340082B0ED08D
:1021F0006368012B3CD0002B51D1A64B1A68A6492D
:102200000A401A601A68A5490A401A6036E0A14BD4
:102210005B68DB03ECD59F4B1B689B0303D56368AE
:10222000002B00D107E223689B0772D5994B5B68AE
:102230000C221A425DD0974B5A680C231340082B8E
:1022400053D0E368002B00D185E0924A1368012146
:102250000B43136000F0AAFB05008E4B1B689B0725
:1022600070D400F0A3FB401B0228F6D90320E0E164
:10227000884A116880235B020B4313606368002B5C
:1022800025D000F093FB0500824B1B689B03CAD44A
:1022900000F08CFB401B6428F6D90320C9E1052B14
:1022A00009D07C4B1A687C490A401A601A687B493D
:1022B0000A401A60E2E7774B19688022D2020A438B
:1022C0001A601968802252020A431A60D6E700F0A9
:1022D0006DFB05006F4B1B689B03A4D500F066FBEC
:1022E000401B6428F6D90320A3E16A4B5B68DB033B
:1022F000A7D4684B1B689B0703D5E368012B00D06C
:102300009BE164490B68F82293432269D20013438E
:102310000B6023681B0744D5E369002B2ED05D4A70
:10232000536A01210B43536200F040FB0500594BF7
:102330005B6A9B0735D400F039FB401B0228F6D9B5
:10234000032076E153490B68F82293432269D200B7
:1023500013430B60DDE74F4A136801218B43136081
:1023600000F024FB05004B4B1B689B07D1D500F008
:102370001DFB401B0228F6D903205AE1454A536A47
:1023800001218B43536200F011FB0500414B5B6A56
:102390009B0706D500F00AFB401B0228F6D9032054
:1023A00047E123685B0700D480E03A4BDB69DB0040
:1023B0001DD4384AD169802040050143D161D369D9
:1023C00003400193019B0125354B1B68DB0510D5AC
:1023D000A368012B21D0002B36D12E4B1A6A012184
:1023E0008A431A621A6A03318A431A621AE0002584
:1023F000EAE72B4A116880235B000B43136000F06F
:10240000D5FA0600264B1B68DB05E1D400F0CEFAB6
:10241000801B6428F6D903200BE11E4A136A0121B0
:102420000B431362A368002B24D000F0BFFA060010
:10243000184B1B6A9B0737D400F0B8FA801B194B66
:102440009842F5D90320F4E0052B09D0114B1A6A04
:1024500001218A431A621A6A03318A431A62E1E748
:102460000C4B1A6A04210A431A621A6A03390A4396
:102470001A62D7E700F09AFA0600064B1B6A9B0720
:1024800012D500F093FA801B064B9842F5D9032031
:10249000CFE0C04600100240FFFFFEFFFFFFFBFF42
:1024A0000070004088130000012D33D02368DB0644
:1024B00010D56369012B33D0053351D1654A536B75
:1024C00004218B435363536BF4318B43A169C900DF
:1024D0000B435363236A002B00D1B0E05D4A51687F
:1024E0000C220A40082A00D18AE0022B4FD0594A18
:1024F000136859490B40136000F058FA0400554B1B
:102500001B689B017AD500F051FA001B0228F6D90E
:1025100003208EE04F4AD36950490B40D361C5E791
:102520004C4B5A6B04210A435A635A6B03390A43D2
:102530005A6300F03BFA0500464B5B6B9B0706D4E1
:1025400000F034FA401B0228F6D9032071E041491B
:102550004B6BF8229343A269D20013434B63B9E754
:102560003C4B5A6B04210A435A635A6B03398A4322
:102570005A6300F01BFA0500364B5B6B9B07A9D52D
:1025800000F014FA401B0228F6D9032051E0314A2A
:10259000136831490B40136000F008FA05002D4B19
:1025A0001B689B0106D500F001FA401B0228F6D9F2
:1025B00003203EE0274BDA6A0F218A43E16A0A438F
:1025C000DA625A6826490A40A16A606A01430A43EE
:1025D0005A601968802252040A431A6000F0E6F932
:1025E00004001C4B1B689B0106D400F0DFF9001BA4
:1025F0000228F6D903201CE000201AE0002018E091
:10260000012B1ED0134B5A68D96A80235B021340FA
:10261000606A834217D10F230B40E16A8B4214D1C9
:10262000F0239B031A40A36A9A4210D1002000E0D5
:10263000012002B070BD0120FBE70120F9E7002076
:10264000F7E70120F5E70120F3E70120F1E701209A
:10265000EFE7C04600100240FFFFFFFEFFFFFFEF65
:10266000FFFFC2FF10B588B004AA164B13CB13C2EC
:102670001B6813606A46144B13CB13C21B681360AC
:10268000124B5A680C231340082B02D0104808B094
:1026900010BD910C0733194004A8445C0B49C96A6A
:1026A0000B406946C95CD30304D50948FDF72CFDEE
:1026B0006043ECE763011B1B9801C01AC0000019BE
:1026C0000002E4E7583A00086C3A000800100240A3
:1026D00000127A0070B504000D00002800D17EE0E1
:1026E000434B1A68012313408B420AD240490B68BE
:1026F000012293432B430B600B681A40AA4200D07F
:102700006FE023689A070ED55B0705D5394A5168F3
:10271000E023DB000B435360364A5368F0218B43C0
:10272000A1680B4353602368DB072DD56368012B39
:102730001ED0022B22D02F4A1268920753D52D4962
:102740004A680320824313434B6000F02FF90600D0
:10275000284B5B680C221A4063689B009A4213D096
:1027600000F024F9801B244B9842F1D9032035E076
:10277000204A12689203E2D401202FE01D4A126819
:102780009201DCD4012029E0194B1A68012313407F
:10279000AB4209D916490B68012293432B430B60C6
:1027A0000B681A40AA4220D123685B0706D5114A5C
:1027B000536812490B40E1680B435360FFF752FF27
:1027C0000C4B5A6812090F2313400D4AD35CD840B2
:1027D0000C4B1860022000F0A5F8002070BD01200D
:1027E000FCE70120FAE70120F8E70120F6E7C04600
:1027F000002002400010024088130000FFF8FFFF95
:10280000803A00081000002070B582B00400036810
:10281000DB0337D53D4BDB69DB0049D43B4AD1694B
:10282000802040050143D161D36903400193019B9E
:102830000125374B1B68DB053CD5344B1A6AC02396
:102840009B00110019401A4213D0626813408B425A
:102850000FD02E4B186A2F4A02401E6A802149026F
:1028600031431962196A2C4E314019621A62C3074A
:1028700034D4264A136A27490B4061680B4313621C
:10288000012D3AD02368DB0706D5204A136B0321BC
:102890008B43A1680B43136323689B0632D51B4A05
:1028A000136B10218B43E1680B43136300202AE074
:1028B0000025BEE7164A116880235B000B431360B6
:1028C00000F074F80600124B1B68DB05B5D400F06D
:1028D0006DF8801B6428F6D9032014E000F066F838
:1028E00006000A4B1B6A9B07C3D400F05FF8801BED
:1028F0000A4B9842F5D9032005E0D36908490B40FB
:10290000D361BFE7002002B070BDC0460010024096
:1029100000700040FFFCFFFFFFFFFEFF8813000078
:10292000FFFFFFEF10B504000F4B1978FA2080006D
:10293000FDF7EAFB01000D4B1868FDF7E5FB00F021
:1029400009FA00280DD1032C01D901200AE0013039
:1029500000222100404200F0C1F9054B1C6000201C
:1029600000E0012010BDC0460A0000201000002039
:102970000C00002010B5064A136810210B431360A9
:102980000220FFF7CFFFFEF711FE002010BDC0466A
:1029900000200240034A1168034B1B785B18136048
:1029A0007047C046DC0400200A000020014B186874
:1029B0007047C046DC04002010B5041E59D04123E6
:1029C000C35C002B43D041232422E25422681368C5
:1029D00001218B4313602268274B61680B40136110
:1029E0002268936825490B409360E368012B34D03B
:1029F000226884231B02A1680B439360E368022BC7
:102A000032D0226851681E4B0B4353602268D36852
:102A10001A490B40D360236962691343A269120209
:102A200021681343CB602268E369216A0B4313607A
:102A30002268136801210B43136000236364412261
:102A40001F31A15423630132A354002010BD403331
:102A50000022C254FEF7F2FDB5E7226880231B0274
:102A6000A1680B439360C9E72368802212015A6072
:102A7000C7E70120EAE7C046FFFFFFF0FF7FFFFF47
:102A800000800002F0B54123C35C202B20D120330D
:102A9000C35C012B1ED04024012202554125242372
:102AA00043550668336893433360066833680A4FBA
:102AB0003B403360066833681943316001680B6836
:102AC00013430B6020234355002303550020F0BD22
:102AD0000220FCE70220FAE7FFEFFFFFF0B54123F9
:102AE000C35C202B1ED12033C35C012B1CD040249F
:102AF0000122025541252423435506683368934338
:102B0000336006683368094F3B400902194331605E
:102B100001680B6813430B602023435500230355C2
:102B20000020F0BD0220FCE70220FAE7FFF0FFFFE3
:102B3000F0B5CE46474680B583B0002333E0032688
:102B400000E00026A64034003C4302329200564E7C
:102B50009451564A1468EA432600AE434F68FF0377
:102B600001D52C432600514C26606468260016408F
:102B70004F68BF0301D52C4326004C4C6660A46807
:102B8000260016404F68FF0201D52C432600474C13
:102B9000A660E46822404E68B60201D52A002243AE
:102BA000424CE26001330C682200DA4077D0012207
:102BB0009A40250015401442F4D04C68661E012E40
:102BC00003D9112C01D0122C12D184685F00032686
:102BD000BE40B4432600CC68BC40344384604468A3
:102BE00094434A681609012232409A4022434260C7
:102BF000C4685F000326BE40F2439446B4432600F7
:102C00008C68BC403443C4604A68022A01D0122A4E
:102C100010D1DE080836B2009146145807221A4037
:102C200092000F269640B4430E699640320022432C
:102C30004C46225004686246144003224E683240DB
:102C4000BA40224302604A68D200ABD5184CA6694C
:102C500001221643A661A46922400192019A9A08B2
:102C6000941CA400104EA75903241C40A4000F2656
:102C7000A640B7439026F605B04200D161E70D4E5D
:102C8000B04208D00C4EB04207D00C4EB04200D13A
:102C900055E7052656E7012654E7022652E703B01A
:102CA000C0BCB946B046F0BD000001400004014080
:102CB000001002400004004800080048000C0048D2
:102CC00003690B4201D0012070470020FCE7002A75
:102CD00001D0816170478162FCE7000070B5002877
:102CE00011DB8308134EC0339B009D590324204001
:102CF000C000FF2214008440A54389010A4082409D
:102D00002A439A5170BD0F230340083B9B080633AA
:102D10009B00094A944663445C6803221040C0004B
:102D2000FC3215008540AC4389010A4082402243B1
:102D30005A60E7E700E100E000ED00E0002805DB75
:102D40001F2318401E3B8340014A13607047C04652
:102D500000E100E0013880235B0498420FD2094A69
:102D600050600948036A1B021B0AC02109060B4375
:102D70000362002393600733136000207047012033
:102D8000FCE7C04610E000E000ED00E0704770474F
:102D9000704770477047704770477047704770477B
:102DA00030B5036A012293430362036A426884696F
:102DB0007325AC430D682C430225AB438D682B4330
:102DC000114DA84205D0114DA84202D0104DA84285
:102DD00005D10825AB43CD682B430425AB430A4DF1
:102DE000A84205D0094DA84202D0094DA84205D1FC
:102DF000084D2A404D692A438D692A434260846107
:102E00004A684263036230BD002C01400044014027
:102E100000480140FFFCFFFF70B5036A184A1340E9
:102E20000362036A4468C2697325AA430E681643A5
:102E3000144A13408A6812021343134A904216D070
:102E4000114A904205D0114A904202D0104A904255
:102E500007D1104A22404C69240114438A691501A4
:102E60002C434460C6614A68C263036270BD0A4A6B
:102E70001A40CB681B021343084A1340E0E7C046E0
:102E8000FFFEFFFFFFFDFFFF002C0140004401405B
:102E900000480140FFCFFFFFFFF7FFFFFFFBFFFFF1
:102EA00030B5036A114A13400362036A4568C26978
:102EB0000F4C22400C68240222430E4C1C408B68AD
:102EC0001B0323430C4CA04205D00C4CA04202D063
:102ED0000B4CA04204D10B4C25404C69A401254366
:102EE0004560C2614A680264036230BDFFEFFFFFC4
:102EF000FF8CFFFFFFDFFFFF002C0140004401407B
:102F000000480140FFBFFFFF30B5036A046A012596
:102F1000AC4304628469EF35AC43120122430A24B6
:102F2000A3430B438261036230BD000030B5036AE6
:102F30001024A34303628469036A054D2C401203E5
:102F40002243A024A343090119438261016230BDD9
:102F5000FF0FFFFF8368702293430B4307210B434E
:102F6000836070473D23C35C012B1FD13C33022299
:102F7000C2540268D36801210B43D36003680D4A31
:102F8000934208D00C4A934205D01A6801210A43A3
:102F90001A6000200BE0996807220A40062A07D031
:102FA0001A6801210A431A60002000E001207047DE
:102FB0000020FCE7002C01400004004010B5040094
:102FC00003681A69920711D5DA6892070ED50322B1
:102FD00052421A610123037703689B699B0700D162
:102FE00084E09023C35898470023237723681A6905
:102FF000520714D5DA68520711D5052252421A61D8
:103000000223237723689A69C0239B001A4200D1C8
:1030100074E09023E3582000984700232377236827
:103020001A69120711D5DA6812070ED50922524221
:103030001A61042323772368DB699B0767D09023F9
:10304000E358200098470023237723681A69D206A3
:1030500013D5DA68D20610D5112252421A6108231C
:1030600023772368DA69C0239B001A4258D0902343
:10307000E358200098470023237723681A69D20772
:1030800009D5DA68D20706D5022252421A61802396
:10309000E3582000984723681A69120609D5DA68B0
:1030A000120606D5812252421A61B023E35820004D
:1030B000984723681A69520609D5DA68520606D578
:1030C000412252421A618823E3582000984723681E
:1030D0001A69920609D5DA68920606D5212252426B
:1030E0001A61A823E3582000984710BD9823C358BD
:1030F00098479C23E3582000984775E79823E358A6
:10310000200098479C23E3582000984785E79823A0
:10311000E358200098479C23E3582000984792E703
:103120009823E358200098479C23E35820009847B1
:10313000A1E7000003681A4A904202D0194A90425F
:1031400003D1702293434A681343154A90420BD02F
:10315000144A904208D0144A904205D0134A904233
:1031600002D0134A904203D1124A1340CA68134353
:10317000802293434A69134303608B68C3620B68E0
:103180008362074B984205D0084B984202D0084B07
:10319000984201D10B690363012343617047C04624
:1031A000002C014000040040002000400044014089
:1031B00000480140FFFCFFFF30B5036A1022934333
:1031C0000362036A45688469164A14400A68120259
:1031D0001443202293438A6812011343124A9042F7
:1031E00016D0114A904205D0104A904202D0104A9F
:1031F000904207D10F4A2A404D69AD0015438A69B4
:1032000092001543456084614A688263036230BD61
:10321000802293431A00CB681B011343402293433F
:10322000DFE7C046FF8CFFFF002C01400044014057
:1032300000480140FFF3FFFF70B504000D003C2380
:10324000C35C012B63D03C230121C154082A4AD01E
:1032500019D8002A2FD0042A40D129000068FFF78E
:10326000ABFF2268916980231B010B4393612268A5
:10327000936928490B40936121688B692A6912027E
:1032800013438B612AE00C2A28D129000068FFF73C
:1032900007FE2268D16980231B010B43D36122689A
:1032A000D3691C490B40D3612168CB692A6912029A
:1032B0001343CB6112E029000068FFF771FD22681B
:1032C000936908210B4393612268936904398B4306
:1032D00093612268936929690B4393613C2300221F
:1032E000E254002070BD29000068FFF795FD2268B8
:1032F000D36908210B43D3612268D36904398B4316
:10330000D3612268D36929690B43D361E6E70220C0
:10331000E8E7C046FFFBFFFF30B58468034D2C4053
:103320001B0213430B432343836030BDFF00FFFFA9
:1033300010B504003C23C35C012B66D03C23012262
:10334000C25401330132C2540268936830480340CA
:1033500093600B68602B44D024D8402B4BD00BD902
:10336000502B0ED1CA6849682068FFF7CDFD502167
:103370002068FFF7EFFD04E0202B0ED009D9302B99
:103380000BD03D230122E254013B0022E2540020F5
:1033900010BD002B01D0102BF3D119002068FFF7CE
:1033A000D9FDEEE7702B10D0802292019342E8D134
:1033B000CB684A6889682068FFF7AEFF2268916889
:1033C0008023DB010B439360DBE7CB684A688968A5
:1033D0002068FFF7A1FF2268936877210B43936071
:1033E000CFE7CA6849682068FFF7A0FD6021206820
:1033F000FFF7B0FDC5E7CA6849682068FFF784FD9C
:1034000040212068FFF7A6FDBBE70220C0E7C046C9
:103410008800FFFF10B51F23194001248C40036A68
:10342000A3430362036A8A401343036210BD000092
:1034300010B5040000292CD13E23C35C013B5A1E69
:103440009341DBB2002B58D100293BD13E330222FD
:10345000E25401222068FFF7DDFF2368294A9342E6
:1034600005D0294A934202D0284A934204D1596C8C
:10347000802212020A435A642368224A934231D0BE
:10348000234A93422ED01A6801210A431A60002071
:1034900034E0042908D008290DD04123C35C013B46
:1034A0005A1E9341DBB2CDE73F23C35C013B5A1E5A
:1034B0009341DBB2C6E74023C35C013B5A1E9341F4
:1034C000DBB2BFE7042905D0082907D04123022237
:1034D000E254BEE73F230222E254BAE7402302222D
:1034E000E254B6E7996807220A40062A07D01A680C
:1034F00001210A431A60002000E0012010BD0020D5
:10350000FCE7C046002C0140004401400048014057
:10351000000400408023134AC2500433124AC250B0
:103520000433124AC2500433114AC2500433114AC0
:10353000C2500433104AC2500433104AC2500433FC
:103540000F4AC25004330F4AC25004330E4AC250CD
:1035500004330E4AC25004330D4AC25004330D4A9C
:10356000C2507047811500088F2D00089B2D000860
:103570009D2D0008932D0008952D0008912D000821
:10358000972D0008992D00089F2D00082538000868
:10359000273800082938000870B5041E2FD03D23B5
:1035A000C35C002B1CD03D2502236355210001C9BB
:1035B000FFF7C0FD01234622A354083AA354013269
:1035C000A3540132A3540132A3540132A354013253
:1035D000A3540132A3540132A3546355002070BD9B
:1035E0003C330022C254FFF795FFA36C002B03D09D
:1035F0002000A36C9847D6E7024BA364F8E70120AC
:10360000EDE7C046C916000870B5041E2FD03D2353
:10361000C35C002B1CD03D2502236355210001C94A
:10362000FFF788FD01234622A354083AA354013230
:10363000A3540132A3540132A3540132A3540132E2
:10364000A3540132A3540132A3546355002070BD2A
:103650003C330022C254FFF75DFF236E002B03D0E2
:103660002000236E9847D6E7024B2366F8E7012037
:10367000EDE7C0468D2D000810B51F231940042426
:103680008C40036AA3430362036A8A4013430362C4
:1036900010BD000010B50400002923D14223C35CF3
:1036A000013B5A1E9341DBB2002B4FD1002932D18E
:1036B00042330222E25404222068FFF7DDFF226831
:1036C000516C80231B020B4353642368214A9342AD
:1036D00031D0214A93422ED01A6801210A431A6040
:1036E000002034E0042908D008290DD04523C35C0C
:1036F000013B5A1E9341DBB2D6E74323C35C013B37
:103700005A1E9341DBB2CFE74423C35C013B5A1EF0
:103710009341DBB2C8E7042905D0082907D0452327
:103720000222E254C7E743230222E254C3E74423C0
:103730000222E254BFE7996807220A40062A07D00E
:103740001A6801210A431A60002000E0012010BD20
:103750000020FCE7002C01400004004030B53C2371
:10376000C35C012B21D03C230122C254013301321E
:10377000C25403685A689C687025AA430D682A439E
:103780005A6003680A4A934202D00A4A934204D11B
:10379000802294434A6814439C603D230122C25412
:1037A000013B0022C254002030BD0220FCE7C0468D
:1037B000002C01400004004010B53C23C35C012BE9
:1037C00021D03C2201238354104BCC6823408C68C9
:1037D00023430F4C23404C6823430E4C23400C687A
:1037E00023430D4C23400C6923430C4C23404C696C
:1037F00023430B4C2340C9690B4301684B640023EE
:103800008354002010BD0220FCE7C046FFFCFFFFF0
:10381000FFFBFFFFFFF7FFFFFFEFFFFFFFDFFFFFF4
:10382000FFBFFFFF704770477047704710B50B4BE5
:103830000B4A01E002CA02C30A498B42FAD30A4B7F
:1038400001E0002204C3094A9342FAD3FFF7EDFFD7
:1038500000F06AF8FDF75AFEFEE7C04600000020BF
:10386000983A00081400002014000020E004002012
:10387000FEE710B5FFF7FCFF10B5FFF7F9FF10B535
:10388000FFF7F6FF10B5FFF7F3FF10B5FFF7F0FFF6
:1038900010B5FFF7EDFF10B5FFF7EAFF10B5FFF722
:1038A000E7FF10B5FFF7E4FF10B5FFF7E1FF10B534
:1038B000FFF7DEFF10B5FFF7DBFF10B5FFF7D8FF0E
:1038C00010B5FFF7D5FF10B5FFF7D2FF10B5FFF722
:1038D000CFFF10B5FFF7CCFF10B5FFF7C9FF10B54C
:1038E000FFF7C6FF10B50248FFF768FB10BDC046E2
:1038F0002402002010B5FFF7F5FF10BD10B50248F7
:10390000FFF75CFB10BDC046D802002010B5FFF7E2
:10391000F5FF10BD10B5FFF73DF8FEF747F810BDF5
:1039200010B5FFF7F7FF10BD70B500260C4D0D4C1C
:10393000641BA410A64209D1002600F021F80A4D0C
:103940000A4C641BA410A64205D170BDB300EB580D
:1039500098470136EEE7B300EB5898470136F2E797
:10396000903A0008903A0008903A0008943A00080B
:1039700003008218934200D1704719700133F9E7B0
:10398000F8B5C046F8BC08BC9E467047F8B5C046BE
:08399000F8BC08BC9E4670471C
:1039980060070008EC060008480600080006000852
:1039A800480600082807000848060008000600081E
:1039B800EC060008EC0600082807000800060008C6
:1039C800060600080606000806060008360700086E
:1039D800EC060008EC06000848060008FC0500088C
:1039E800480600082807000848060008FC050008E3
:1039F800EC060008EC06000828070008FC0500088B
:103A08000606000806060008060600083207000831
:103A18006008000830080008300800082E08000870
:103A280034080008340800087C0900082E0800083B
:103A3800340800087C090008340800082E0800082B
:103A4800280900082809000828090008B8090008FA
:103A580002030405060708090A0B0C0D0E0F1010C7
:103A6800000000000102030405060708090A0B0C00
:103A78000D0E0F1000000000000000000000000004
:083A880001020304060708090E
:043A9000E900000841
:043A9400C100000865
:103A98002C0100002C0100000A0A010004000000AB
:043AA80000127A008E
:040000050800382D8A
:00000001FF
