:020000040800F2
:100000000010002051620008651700089762000880
:1000100000000000000000000000000000000000E0
:10002000000000000000000000000000671700084A
:100030000000000000000000691700084563000888
:100040009D62000800000000A3620008A962000889
:10005000AF620008B5620008BB620008C162000818
:1000600000000000C7620008CD620008D3620008EB
:10007000D9620008DF620008E562000800000000A5
:10008000EB62000800000000000000001963000897
:100090000000000031630008F1620008F762000808
:1000A00000000000FD62000800000000036300087B
:1000B0000000000000000000000000000000000040
:1000C00010B5064C2378002B07D1054B002B02D02E
:1000D000044800E000BF0123237010BD2000002071
:1000E00000000000B8630008044B10B5002B03D0DB
:1000F0000349044800E000BF10BDC04600000000F6
:1001000024000020B86300080023C25C0133002AE9
:10011000FBD1581E70470000002243088B4274D365
:1001200003098B425FD3030A8B4244D3030B8B42F8
:1001300028D3030C8B420DD3FF22090212BA030C01
:100140008B4202D31212090265D0030B8B4219D3E2
:1001500000E0090AC30B8B4201D3CB03C01A524102
:10016000830B8B4201D38B03C01A5241430B8B424A
:1001700001D34B03C01A5241030B8B4201D30B0333
:10018000C01A5241C30A8B4201D3CB02C01A52415A
:10019000830A8B4201D38B02C01A5241430A8B421D
:1001A00001D34B02C01A5241030A8B4201D30B0206
:1001B000C01A5241CDD2C3098B4201D3CB01C01A20
:1001C000524183098B4201D38B01C01A524143092A
:1001D0008B4201D34B01C01A524103098B4201D318
:1001E0000B01C01A5241C3088B4201D3CB00C01A85
:1001F000524183088B4201D38B00C01A52414308FD
:100200008B4201D34B00C01A5241411A00D2014621
:10021000524110467047FFE701B5002000F0F0F8AA
:1002200002BDC0460029F7D076E7704703460B436E
:100230007FD4002243088B4274D303098B425FD3DF
:10024000030A8B4244D3030B8B4228D3030C8B420B
:100250000DD3FF22090212BA030C8B4202D31212F1
:10026000090265D0030B8B4219D300E0090AC30BC6
:100270008B4201D3CB03C01A5241830B8B4201D373
:100280008B03C01A5241430B8B4201D34B03C01A5C
:100290005241030B8B4201D30B03C01A5241C30AD4
:1002A0008B4201D3CB02C01A5241830A8B4201D345
:1002B0008B02C01A5241430A8B4201D34B02C01A2F
:1002C0005241030A8B4201D30B02C01A5241CDD2D4
:1002D000C3098B4201D3CB01C01A524183098B421F
:1002E00001D38B01C01A524143098B4201D34B0108
:1002F000C01A524103098B4201D30B01C01A52416B
:10030000C3088B4201D3CB00C01A524183088B42F1
:1003100001D38B00C01A524143088B4201D34B00DA
:10032000C01A5241411A00D201465241104670474C
:100330005DE0CA0F00D04942031000D34042534051
:1003400000229C4603098B422DD3030A8B4212D311
:10035000FC22890112BA030A8B420CD38901921143
:100360008B4208D3890192118B4204D389013AD080
:10037000921100E08909C3098B4201D3CB01C01A55
:10038000524183098B4201D38B01C01A5241430968
:100390008B4201D34B01C01A524103098B4201D356
:1003A0000B01C01A5241C3088B4201D3CB00C01AC3
:1003B000524183088B4201D38B00C01A5241D9D2DB
:1003C00043088B4201D34B00C01A5241411A00D25C
:1003D0000146634652415B10104601D34042002B58
:1003E00000D54942704763465B1000D3404201B5D7
:1003F000002000F005F802BD0029F8D016E770478C
:100400007047C0469E2110B5C905041C00F02EFEA1
:10041000002803D1201C00F097FD10BD9E21201C58
:10042000C90500F0E3FB00F08FFD80231B069C460E
:100430006044F2E7F0B5C64643025B0A4E0245004F
:100440004F00DA00C40F9C46700A904600B52D0E8E
:100450003F0EC90FB6098C424BD0EA1B002A36DD8D
:10046000002F61D0FF2D00D1ADE08023DB041E43BF
:100470001B2A00DCD3E001204346181A430100D4B4
:100480008CE080018709380000F0FAFD05388740CC
:10049000854200DCB6E02D1AB3483840430704D04B
:1004A0000F230340042B00D00430430100D478E034
:1004B0006A1CFE2D65D08001430A9C46D2B2634679
:1004C000D0051843E407204380BCB846F0BD002A9D
:1004D00035D07A1B002D00D0AFE04346002B00D171
:1004E000A7E0531E012A00D12FE1FF2A69D01A008C
:1004F000AAE0E91B002970DD002F37D0FF2D62D064
:100500008023DB041E431B2900DCB0E001204044B3
:10051000430143D50135FF2D33D00123934A0340D6
:10052000400810401843B9E7002E00D183E0511E67
:10053000012A00D1D8E0FF2A45D00A0098E7FE271B
:100540006A1C174200D086E0002D00D0B7E0434679
:10055000002B00D1F3E00022002EB0D0981B430105
:1005600000D4FAE043460C00F01A97E7002E00D1C1
:10057000C8E04A1E012900D1AEE0FF2923D01100B6
:10058000C1E70023FF229C4699E7FE216A1C114225
:1005900077D0FF2AF5D0150046447008430700D0F5
:1005A0007EE7C308FF2D0ED05B025B0A9C46EAB2D1
:1005B00085E7002E07D08022D203134203D01042D9
:1005C00001D10C000300002BDBD08020C0031843B6
:1005D0004002430A9C46FF2271E70029D5D07A1BCE
:1005E000002D60D14346002B24D0531E012A73D026
:1005F000FF2AE7D01A001B2A00DC85E001203D001D
:10060000801985E720233A00451B38000135EA4070
:100610005D1BA840431E9841002510433EE7202360
:1006200030009B1A31009840D140431E9841084346
:1006300022E70C0003001500B4E7FF2FC1D0802390
:100640004046DB04184380461B2A51DD01200C0084
:100650003D00301A12E743469F1B7B012BD4002F2D
:1006600000D010E70023002400229C4627E7202327
:1006700032003000CA40591A8840431E9841104346
:1006800045E7002D4AD14346002B63D00022002EBF
:1006900000D114E730004044430100D47EE7324BE0
:1006A000013518407AE7FF2F8CD080234146DB04C8
:1006B000194388469FE743460C00F71AE3E6424693
:1006C000002A00D075E7002E00D07AE78023DB03F4
:1006D00000249C46FF22F2E63000404401254301FD
:1006E00000D45BE7022518E743460125981BC5E6C1
:1006F000202344464046D4409A1A9040431E9841D5
:100700002043A4E70D004DE7202341464046D14059
:100710009A1A9040431E9841084370E74246002AC7
:1007200000D14FE7002E00D14DE78022D2031342C3
:1007300000D148E7104200D045E7030043E7002E10
:1007400090D00C0084460022B9E643460C00F01A13
:10075000013593E684460022B1E6002800D01DE76B
:10076000002300249C46AAE6FFFFFFFBFFFFFF7D5E
:10077000F0B54F464646D6464502C0B547000C1C6C
:100780006D0A3F0EC60F002F00D170E0FF2F00D181
:1007900075E0EB008025ED041D43002399469A4641
:1007A0007F3F6002430A984663001B0EE40F002B54
:1007B0004ED0FF2B46D04246D0008022D2040243C6
:1007C000904600227F3B3100FF1A4B466140C9B280
:1007D00013430F2B00D9B5E06E489B00C3589F46CA
:1007E000002398462600454692465346022B00D1E8
:1007F00089E0032B00D19EE0012B18D03B007F3312
:10080000002B69DD6A0704D00F222A40042A00D099
:1008100004352A0103D5604B1D403B008033FE2B7D
:1008200000DD70E0AD016D0AD8B202E00E000020DC
:100830000025C0052843F6073043E0BCBA46B14660
:10084000A846F0BD4346002B3FD10222FF3F03E004
:100850004346002B2DD1012231004B466140C9B2E5
:1008600013430F2B34D84D489B00C3589F46002D8F
:1008700013D104239946033B00279A4691E7002DA4
:1008800005D108239946063BFF279A4689E70C23A2
:100890009946093BFF279A4683E7280000F0F0FBC2
:1008A0007627431F9D4000237F4299469A463F1A70
:1008B00077E7404600F0E4FB4246431F9A40762328
:1008C0005B4290461B1A00227DE7FF2303227AE752
:1008D0000E00FF200025ACE70120C01A1B28A6DC73
:1008E0009E372A00BD40C2406B1E9D4115436B07D9
:1008F00004D00F232B40042B00D004356B0144D5CA
:100900000120002595E7FF20002592E7802500269D
:10091000FF20ED038DE7002398468020C0030542A9
:1009200009D04346034206D1454605436D022600E1
:10093000FF206D0A7DE78020C00305436D02FF2084
:100940006D0A76E742466B015001834219D21B22A1
:100950000025013F01261C006D005B00002C01DB1F
:10096000984201D81B1A3543013A002AF3D15A1E86
:1009700093411D433B007F330E00002B00DD41E718
:10098000AAE71A2201251B1AE4E7AD0100206D0A2F
:100990004FE7C046D0630008FFFFFFF71064000870
:1009A000F0B54F464646D64644024500C0B5640AF7
:1009B0000F1C2D0EC60F002D00D18DE0FF2D00D194
:1009C00092E00023802099469A46E400C004044344
:1009D0007F3D7802430A98467B001B0EFF0F002BD9
:1009E00000D170E0FF2B00D186E04246D00080228B
:1009F0007F3BED180023D204024390469C46310011
:100A00004B467940681C0F2B1CD8764A9B00D35864
:100A10009F4639004446E2465346022B0FD0032B33
:100A200000D1D7E0012B37D100200024C00520439E
:100A3000C9070843E0BCBA46B146A846F0BDFF204E
:100A40000024F3E7260C2404220C44462404240C3E
:100A5000434627001B0C574374435A435E43121905
:100A60003B0C9B189C4203D9802252029446664458
:100A70003F041A043F0CD2199401671EBC411B0CA1
:100A8000920E9B1914439B011C431B0100D49BE055
:100A9000012362081C40144302007F32002A64DDF7
:100AA000630704D00F232340042B00D00434230118
:100AB00003D502004C4B80321C40FE2ABFDCA4014F
:100AC000640AD0B2B2E74346002B3DD14A46013317
:100AD0001A4391469C4692E7002C29D1042399465B
:100AE000033B00259A4674E7002C1BD10823994646
:100AF000063BFF259A466CE74346FF35002B0BD19A
:100B000002234A461A4391469C4678E753463100F1
:100B1000022B00D083E792E703234A461A4391460B
:100B20009C466CE70C239946093BFF259A4650E703
:100B3000200000F0A5FA7625431F9C4000236D425B
:100B400099469A462D1A44E7404600F099FA4246E3
:100B5000431F9A4000232D1A90469C46763D4EE74F
:100B600080240021FF20E40360E701239B1A1B2B54
:100B700000DD59E722009E30DA4084401300621EF7
:100B800094411C43630704D00F232340042B00D05F
:100B9000043463011AD50120002447E78020C003F4
:100BA000044209D04346034206D14446044364024A
:100BB0003900FF20640A39E78020C003044364023F
:100BC0003100FF20640A31E7280065E7A401002016
:100BD000640A2BE78020C00304436402FF20640AF8
:100BE00024E7C04650640008FFFFFFF7F8B5CE4683
:100BF000474643025B0A4E02DA009446720A914667
:100C000045004A0080B52D0E1F00C40F120EC90FFB
:100C1000B609FF2A5BD0012041408C4239D0A81A86
:100C200000285ADD002A6AD0FF2D00D1D9E08022A9
:100C3000D20416431B2800DCE9E001206346181AA1
:100C4000430100D4B4E080018709380000F018FAAD
:100C500005388740854200DCCCE02D1AB548384085
:100C6000430704D00F230340042B00D0043043017A
:100C700000D4A0E06A1CFE2D00D18DE08001470A5F
:100C8000D2B2D0053843E4072043C0BCB946B046D1
:100C9000F8BDA81A8046002845DD002A70D0FF2D37
:100CA00000D19EE08023DB041E4343461B2B00DC67
:100CB000D2E00120604443017AD50135FF2D6BD08D
:100CC00001239D4A0340400810401843C8E7002E06
:100CD00020D08C4223D02800FF38002839D0571B61
:100CE000002D00D09DE06346002B00D1DBE07B1E91
:100CF000012F00D10DE1FF2F71D01F0098E0002ED1
:100D000000D1A7E0421E012800D1E6E0FF2868D00C
:100D100010008FE701204140A14200D07FE7FF2073
:100D200040428046A8444046002838D0511B002D40
:100D300000D1AEE0FF2A00D1DFE080236046DB0473
:100D4000184384461B2900DCD9E0012015008019D6
:100D5000B1E7FE206A1C104271D1002D00D0A6E040
:100D60006346002B00D1D9E00022002E00D188E795
:100D7000981B430100D4E1E063460C00F01A6FE7D2
:100D8000002E00D1B7E00200013A012800D19CE01A
:100D9000FF2826D0904688E7FF22002771E7FE2033
:100DA0006A1C104264D0FF2AF6D015006644700811
:100DB000430700D056E7C308FF2D12D05B025F0A3D
:100DC000EAB25EE76246002A00D196E0002E08D023
:100DD0008022D203134204D04846104201D10C00B5
:100DE0004B46002BD8D08027FF031F437F02FF22F2
:100DF0007F0A46E720233A00451B38000135EA40C8
:100E00005D1BA840431E98410025104328E720237E
:100E10001B1A32009E40C2403000431E98411043CE
:100E20000CE7FF2ADBD080236046DB0418438446AE
:100E30001B2F56DD01200C001500301A00E7634619
:100E40009F1B7B013DD4002F00D0FEE60024002232
:100E5000002716E70500AFE7320043464146DA4077
:100E600020235B1A9E403000431E9841104321E727
:100E7000002DA7D16346002B59D00022002E00D1AF
:100E8000FFE630006044430192D52A4B01351840FB
:100E90008EE76346002B47D04B1E012915D0FF2952
:100EA0002BD019004EE70C004B463D0084E762460C
:100EB000002A8BD1002E92D180270024FF22FF032D
:100EC000DFE663460C00F71ABFE6300060440125F8
:100ED000430100D46CE70225F2E663460125981B26
:100EE000AEE6202364466046FC40DF1BB840431E4C
:100EF000984120439FE705005EE74B4671E72023BA
:100F000065466046CD40591A8840431E98412843A3
:100F10001CE763460C000125F01A91E6002E95D0DF
:100F20000C004F460022ACE64B460D0044E74F460E
:100F30000022A6E6FFFFFFFBFFFFFF7D002800D099
:100F400036E7002400279CE641024200C30F490A0D
:100F50000020120E7E2A03DD9D2A02DD094A981820
:100F60007047802000040143952A07DC9620821AEE
:100F7000D1404842002BF3D10800F1E7963A914066
:100F8000F7E7C046FFFFFF7F70B5051E0ED000F0EB
:100F900077F89E2304001B1A962B0CDC082801DD31
:100FA000083CA5406D026D0AD8B201E00020002582
:100FB000C005284370BD992B09DD020029001B32B2
:100FC00091404A1E91410522121AD5400D43052C2D
:100FD00012DC29000C4E31406A0709D00F2028404E
:100FE000042805D004314A0102D59F2331401B1B40
:100FF00089014D0AD8B2DBE7621F95402900024EF5
:1010000031406A07F4D0E9E7FFFFFFFB84460800A0
:101010006146FFE71FB500F0BDF8002801D40021AC
:10102000C8421FBD10B500F049F84042013010BD64
:1010300010B500F0AFF8002801DB002010BD012042
:1010400010BDC04610B500F0A5F8002801DD002055
:1010500010BD012010BDC04610B500F055F80028A5
:1010600001DC002010BD012010BDC04610B500F00D
:101070004BF8002801DA002010BD012010BDC04649
:101080001C2101231B04984201D3000C10391B0AB8
:10109000984201D3000A08391B09984201D300097C
:1010A000043902A2105C40187047C04604030202D3
:1010B00001010101000000000000000070B54200C5
:1010C00045024E024C00C30F6D0A0120120E760A33
:1010D000240EC90FFF2A06D0FF2C03D0A24201D153
:1010E000B54206D070BD002DFCD1FF2CFAD1002EE8
:1010F000F8D18B4206D00120002AF3D12800431EEC
:101100009841EFE70020EDE770B5420045024E023E
:101110004C00C30F6D0A120E760A240EC80FFF2A68
:101120001BD0FF2C0ED0002A1BD1002C01D1002E89
:101130001CD0002D0CD083421CD00221581E084028
:10114000013870BD002E22D1002AF4D1002DF2D139
:101150000028F6D101204042F3E7002D17D1FF2CE3
:10116000F0D0002CE7D1002EE5D1E6E70020002DDD
:10117000E7D0E2E7A24205DCEADBB54202D8E7D3DA
:101180000020DEE74342584140000138D9E7022001
:101190004042D6E770B5420045024E024C00C30FF4
:1011A0006D0A120E760A240EC80FFF2A0BD0FF2CF0
:1011B0000DD0002A1FD1002C16D1002E14D10020F2
:1011C000002D10D009E0002D0CD1FF2C13D1002EE2
:1011D00008D1002A08D0834212D00221581E0840AC
:1011E000013800E0022070BD002DF4D10028FAD1B2
:1011F00001204042F7E7002CEDD1002EEBD1ECE7C7
:10120000A24205DCF2DBB54202D8EFD30020EAE7C8
:101210004342584140000138E5E7C046F0B5CE46AC
:10122000474680B58BB01422002105A805F0BBF815
:10123000324B596980200003014359615A690240C9
:101240000192019A59698020C003014359615A698A
:1012500002400292029A596980208002014359613A
:101260005A6902400392039A5A698021C9020A43CB
:101270005A615B690B400493049B8024A401204BBA
:10128000994600222100180003F0A3FB9026F605E2
:1012900000220221300003F09CFB1A4B98461A4FA3
:1012A00000221900380003F094FB059401250695EF
:1012B00000240794089405A9484603F0BDFA0223C8
:1012C000059306950794089405A9300003F0B4FA35
:1012D0000E4B05930694079405A9300003F0ACFA71
:1012E0004346059306950794089405A9380003F032
:1012F000A3FA0BB0C0BCB946B046F0BD0010024026
:10130000000800483B5F000000040048109E0000F9
:1013100072B6FEE700B585B00C22002101A805F0E9
:1013200042F81C481C4B0360002343608360C36089
:101330000122026104214161037643768376C376FC
:10134000C221FF31C16103629E39FF394354826279
:1013500002F05EFC002817D10023019380235B017B
:10136000029380235B05039301A90A4802F0AAFDBA
:1013700000280BD11023019301A9064802F0A2FD19
:10138000002805D105B000BDFFF7C2FFFFF7C0FF81
:10139000FFF7BEFF3C0000200024014010B50A48C2
:1013A0000A4B03602F234360002383606422C260E2
:1013B000036143618033836104F006FC002800D19F
:1013C00010BDFFF7A5FFC0463002002000440140D9
:1013D00010B51248124B0360124B43600023836028
:1013E0000122C260036143618361C361036203F050
:1013F000B1FC00280CD10021084803F06FFF002841
:1014000008D10021054803F095FF002804D110BD44
:10141000FFF77EFFFFF77CFFFFF77AFF7C000020DD
:10142000005400400E09002000B597B010220021A2
:1014300012A804F0B8FF0822002110A804F0B3FF9E
:101440001C22002109A804F0AEFF2022002101A8DF
:1014500004F0A9FF3148324B0360324B4360002354
:101460008360FA229200C26003614361803383612A
:1014700004F0AAFB002842D180235B01129312A939
:10148000264804F05BFA00283BD1244804F0D4FB42
:10149000002838D100231093119310A91F4804F09D
:1014A00075FC002831D16023099300230A930B9324
:1014B0000C930D930E930F93002209A9174804F083
:1014C000B9F9002823D1082209A9144804F0B2F977
:1014D00000281ED1002301930293039304930593E4
:1014E000802292010692089301A90C4804F07CFC2A
:1014F000002810D1094800F033FA17B000BDFFF7FB
:1015000007FFFFF705FFFFF703FFFFF701FFFFF7F7
:10151000FFFEFFF7FDFEFFF7FBFEC046C800002000
:10152000002C0140BF03000010B50A480A4B0360BD
:10153000E023FF33436000238360FA229200C260FD
:1015400003618033836104F03FFB002800D110BDAC
:10155000FFF7DEFE7C0100200020004000B58FB0C8
:10156000102200210AA804F01EFF0822002108A86A
:1015700004F019FF1C22002101A804F014FF2648E2
:10158000264B0360E023FF33436000238360FA228D
:101590009200C2600361836104F016FB00282FD122
:1015A00080235B010A930AA91B4804F0C7F90028AD
:1015B00028D1194804F040FB002825D100230893C6
:1015C000099308A9144804F0E1FB00281ED1602308
:1015D00001930023029303930593002201A90E486F
:1015E00004F028F9002813D1042201A90A4804F0C4
:1015F00021F900280ED1084800F0B2F90FB000BD63
:10160000FFF786FEFFF784FEFFF782FEFFF780FEFE
:10161000FFF77EFEFFF77CFEE4020020000400409E
:1016200010B50B480B4B036096231B02436000234D
:101630008360C36003610C2242618361C361036202
:10164000436204F0CDFD002800D110BDFFF760FE1D
:10165000980300200038014010B594B030220021DA
:1016600008A804F0A0FE10241022002104A804F011
:101670009AFE10220021684604F095FE122308937A
:10168000113B0B930D930C940E9401331093A023F4
:101690009B03129308A802F00BFD002818D1072322
:1016A0000493053B0593002306930793012104A8A7
:1016B00002F084FF00280DD1212300930023029320
:1016C0000393684603F02AF8002805D114B010BD32
:1016D000FFF71EFEFFF71CFEFFF71AFE70B502F0C3
:1016E000B3FCFFF7B9FFFFF799FDFFF713FEFFF714
:1016F00055FEFFF76DFEFFF797FEFFF715FFFFF7AB
:101700002DFFFFF78DFF134C200003F029FF124D32
:10171000280003F025FF114803F022FF104803F0D2
:101720001FFFFA20800002F0B1FC00F0EDF900216B
:10173000280004F095F90421280004F091F9002113
:10174000200004F08DF90821200004F0BBFA00F01D
:1017500059FAFCE7C8000020E40200207C010020C8
:1017600030020020FEE770477047000010B504000B
:10177000074B02689A4204D02268064B9A4203D073
:1017800010BD00F08DFAF7E700F0C4F9F8E7C046A5
:10179000002000400044014082B00A4B99690122B8
:1017A0001143996199690A400092009ADA6980218F
:1017B00049050A43DA61DB690B400193019B02B0E2
:1017C0007047C0460010024010B588B004001422D3
:1017D000002103A804F0E7FD2268114B9A4201D0D2
:1017E00008B010BD0F4B99698020800001439961BA
:1017F0009A6902400192019A5A69802189020A433A
:101800005A615B690B400293029B012303930233ED
:1018100004937138FF3803A9C00503F00DF8DFE722
:101820000024014000100240F0B5C64600B588B063
:1018300004001422002103A804F0B5FD22681A4B0D
:101840009A4203D008B080BCB846F0BD174C62691C
:101850008021C9020A43626163690B400193019BC5
:10186000402303932E3B98460493012505950327B7
:10187000069707950E4E03A9300002F0DDFF802386
:1018800003934346049305950697079503A93000F3
:1018900002F0D2FFE269802189030A43E261E36931
:1018A0000B400293029BCDE7005400400010024021
:1018B0000004004800B585B00368244A93420AD06A
:1018C000234A934212D0234A934219D0224A934288
:1018D00029D005B000BD214A916980200001014353
:1018E0009161936903400093009BF2E71B4AD16921
:1018F00002231943D161D26913400193019BE8E7A8
:10190000164AD169802040000143D161D369034068
:101910000293029B00220321ED3803F061F81320AB
:1019200003F08EF8D5E70D4A9169802080020143CB
:101930009161936903400393039B002201211520C9
:1019400003F04EF8152003F07BF8C2E7002C0140AD
:10195000000400400020004000440140001002400C
:1019600010B588B004001422002103A804F01BFD68
:101970002368244A934204D0234A93422CD008B0CF
:1019800010BD224B59698020C002014359615A6938
:1019900002400092009A5A69802189020A435A61E2
:1019A0005B690B400193019B80231B02039302247C
:1019B0000494079403A9164802F03EFF80235B00BD
:1019C000039304940023059306930794902003A99E
:1019D000C00502F031FFD2E70C4A51698020800235
:1019E00001435161536903400293029BC023039357
:1019F000BE3B0493013B0793902003A9C00502F06E
:101A00001BFFBCE7002C0140000400400010024016
:101A10000004004810B588B004001422002103A877
:101A200004F0C1FC2268174B9A4201D008B010BDE7
:101A3000154B99698020C001014399619A69024060
:101A40000192019A5A69802189020A435A615B69AD
:101A50000B400293029B0C2303930A3B0493013334
:101A60000693023B0793902003A9C00502F0E4FE11
:101A7000002200211B2002F0B3FF1B2002F0E0FF38
:101A8000D4E7C04600380140001002407047000013
:101A900010B500F021F902F003F8124B1B78013B5E
:101AA000DBB2012B08D9104B1A780E4B1A700F4B72
:101AB0001B78012B08D010BD0B4B1B78032BF2D1E8
:101AC0000A4B01221A70EEE7094A13780133DBB2A0
:101AD0001370072BEFD90023044A1370044A1370C4
:101AE000E9E7C046840400209A0400201C0400207A
:101AF0001D04002010B500F0ABFD00F0FBF901F073
:101B0000CDF902F029F810BD10B501F00DFF02F07B
:101B100003F810BD024A1368013313607047C046D2
:101B200020040020014B18687047C04620040020A4
:101B300010B50400FFF7F6FF022C07D0032C08D0E5
:101B4000012C00D010BD044B1861FBE7024B9861DB
:101B5000F8E7014B1862F5E72004002010B50400F7
:101B6000FFF7E0FF022C0FD0032C10D0012C08D07F
:101B70000023C31A022C11D0032C13D0012C09D03E
:101B800010BD0A4B1B69F4E7084B9B69F1E7074B53
:101B90001B6AEEE7054A53635061F1E7034A93631A
:101BA000D061EDE7014AD3635062E9E720040020E9
:101BB00010B50400FFF7B6FF022C0FD0032C10D095
:101BC000012C08D00023C31A022C11D0032C13D0EF
:101BD000012C09D010BD0A4B9B6AF4E7084BDB6A65
:101BE000F1E7074B1B6BEEE7054A13649062F1E7E0
:101BF000034A5364D062EDE7014A93641063E9E756
:101C00002004002010B5104A5623D35C012B09D0C4
:101C10000420FFF78DFF0420FFF7A0FF0420FFF74B
:101C2000C7FF10BD1300094A1A66562200219954B5
:101C30000320FFF77DFFFFF72BFF0320FFF78EFF49
:101C40000320FFF7B5FFECE720040020911A0008FD
:101C500010B5114B5A68501C5860542201219954F8
:101C60006331FEF7DFFA002906D10B4BDA68013247
:101C7000DA60562201319954074B084A9A6554227A
:101C8000002199540120FFF753FF0120FFF766FF61
:101C90000120FFF78DFF10BD200400208D1A0008E1
:101CA00010B50B4B9A6801329A6055220121995464
:101CB0000849D965002199540220FFF739FFFFF741
:101CC00019FF0220FFF74AFF0220FFF771FF10BD46
:101CD00020040020F51A000810B57D4B1A88013247
:101CE00092B21A807B490B8801339BB20B80142A75
:101CF00002D9774A002111800A2B02D9754B0022A4
:101D00001A80754B1B68002B03D1744B1B78012B79
:101D10005CD0714B1B68002B03D1704B1B78012BDF
:101D20005BD16D4B1B68002B03D16C4B1B78022BD6
:101D30005AD0694B1B68002B03D1684B1B78022BD0
:101D400059D1674B1A88674B9A4200D876E0614BAD
:101D50001B88042B56D95F4B1B88042B60D85C4B27
:101D60001B88092B09D85D4B1B78012B00D173E030
:101D70005A4B1B78022B00D17AE0554B1B88092B5C
:101D800009D9564B1B78012B00D17DE0534B1B78B2
:101D9000022B00D184E0544B1B78123BDBB2012BA9
:101DA00000D889E000222021504802F012FE504B5A
:101DB0001B78002B04D1494B1B78022B00D181E00A
:101DC00000221021494802F004FE10BD80210122AA
:101DD0004900464802F0FDFD9BE7802100224900B2
:101DE000424802F0F6FD9CE7902001220221C00546
:101DF00002F0EFFD9DE7902000220221C00502F0D5
:101E0000E8FD9EE78021394C01224901200002F0C3
:101E1000E0FD802100228900200002F0DAFD9AE72F
:101E20008021324C00224901200002F0D2FD8021A5
:101E300001228900200002F0CCFD90E780212B4C8C
:101E400000224901200002F0C4FD80210022890007
:101E5000200002F0BEFD82E71F4B1B68002B00D163
:101E600086E7802101224900204802F0B2FD7FE789
:101E7000194B1B68002B00D17FE790200122022123
:101E8000C00502F0A6FD78E7134B1B68002B00D1BC
:101E90007CE7802100224900144802F09AFD75E792
:101EA0000D4B1B68002B00D175E79020002202210A
:101EB000C00502F08EFD6EE7012220210B4802F0E2
:101EC00088FD74E701221021084802F082FD7CE7BA
:101ED0008604002088040020B8040020AE040020FE
:101EE000AC070020C30900000000002000040048E7
:101EF0009B04002070B5B84B00221A8080219024EA
:101F0000E405C900200002F05DFDB44D2870802179
:101F10000901200002F056FDB14B187080214901E3
:101F2000200002F04FFDAF4B18701021200002F08E
:101F300049FDAD4B18708021C901AC4802F042FD4B
:101F4000AB4B187080218900200002F03BFDA94BAB
:101F500018702B78012B07D0A14B1B78012B03D0D5
:101F6000A04B1B78012B44D18021012289019F487D
:101F700002F02FFD994B1978012941D09E4B002288
:101F80001A80984B1A78012A4CD09C4B002018805C
:101F90009B4B18780300123BDBB2012B17D9954BF2
:101FA0001B78012B51D0012B5CD0002B03D1954C19
:101FB0002478012C67D0012B5DD0924C2370924B7A
:101FC0001C78924B1C70884B1C78914B1C70914B69
:101FD0001B78022B60D08F4B1B78012B00D12DE199
:101FE0008D4B19707E4B19788C4B19708C4B1A7075
:101FF00070BD8021002289017C4802F0EAFCB9E72B
:10200000844B1B78002BB9D17B4A138801339BB2D8
:102010001380632BB5D9130000221A807D4B013247
:102020001A70AEE77B4B1B78032BAED17348038845
:1020300001339BB20380632BAAD9030000201880D0
:10204000744B1870774B1870A2E76E4C2478002CF4
:10205000A9D10124744D2C70744D00262E806A4D38
:102060002C70A2E7604C2478002C9ED1684C247818
:10207000012C9AD1EDE75C4C2478012C9DD1644C65
:102080002478002C99D1684C01252570674C0025D7
:1020900025805D4C257090E7624B1B78002B31D179
:1020A00001290FD04E4B1B78012B1BD0012A00D0E9
:1020B00091E75B4B1B78002B00D08CE7594B012438
:1020C0001C7088E7544B1B78002BEBD1584C2388AD
:1020D000013B1BB22380002B00DB7CE72300642440
:1020E0001C8078E74D4B1B78002BDFD1504C2388A8
:1020F00001331BB22380642B00DC6CE72300002437
:102100001C8068E7012B14D0022B00D063E7012963
:1021100041D0334B1B78012B4DD0012A00D05AE718
:102120003F4B1B78002B00D055E73A4B03241C7023
:1021300051E701290FD02A4B1B78012B1BD0012A14
:1021400000D048E7364B1B78002B00D043E7354BD7
:1021500002241C703FE7304B1B78002BEBD1354C31
:102160002388013B1BB22380002B00DB33E72300D5
:102170003C241C802FE7294B1B78002BDFD12D4CF2
:10218000238801331BB223803C2B00DC23E7230090
:1021900000241C801FE7204B1B78002BB9D1264C54
:1021A0002388013B1BB22380002B00DB13E72300B5
:1021B0003C241C800FE7194B1B78002BADD11E4C23
:1021C000238801331BB223803C2B00DC03E7230070
:1021D00000241C80FFE6C0469E0400208C040020E2
:1021E0008E04002090040020940400200004004885
:1021F0009B0400208A0400209C040020A0040020EE
:10220000000000208B040020920400209304002092
:10221000950400209A0400208D0400208F040020E3
:102220009104002096040020AF040020B004002098
:10223000A2040020A404002098040020012911D049
:102240001B4B1B78012B1BD0012A27D0012A00D061
:10225000C6E6184B1B78002B00D0C1E6164B0320B6
:102260001870BDE6154B1B78002BE9D10138C0B2C0
:10227000134B1870002800D0B2E613301870AFE688
:10228000104B1B78002BDFD10130C0B20C4B187003
:10229000132800D8A4E601201870A1E6054B1B788E
:1022A000002BD3D11128D1D1034B0F38187097E6EA
:1022B0008E040020910400209A0400208D04002048
:1022C000000000208F040020684B1A78132A00D9E0
:1022D000C3E09300664AD3589F46664B5A221A8041
:1022E000654B664A1A60664B41221A807047614B03
:1022F0005A221A80604B634A1A60614B41221A804D
:10230000F4E75C4B5A221A805B4B5E4A1A605C4BC6
:1023100005221A80EAE74123564A1380564A594952
:102320001160574A1380E1E70523524A1380524A4D
:1023300054491160524A1380D8E74E4B5A221A80F2
:102340004D4B504A1A604E4B41221A80CEE7494B02
:1023500028221A80484B4C4A1A60494B05221A80A1
:10236000C4E7444B5A221A80434B474A1A60444BF5
:1023700041221A80BAE73F4B5A221A803E4B3F4A0D
:102380001A603F4B41221A80B0E73A4B5A221A801A
:10239000394B3E4A1A603A4B41221A80A6E7354B28
:1023A0005A221A80344B3A4A1A60354B41221A801D
:1023B0009CE7304B5A221A802F4B324A1A60304B1E
:1023C00041221A8092E72B4B50221A802A4B314A25
:1023D0001A602B4B41221A8088E7264B5A221A801A
:1023E000254B2A4A1A60264B41221A807EE7214B50
:1023F0005A221A80204B264A1A60214B41221A8009
:1024000074E71C4B5A221A801B4B204A1A601C4B43
:1024100028221A806AE7204B1A88164B1A801F4B15
:1024200000229A5E174B5343134A13601C4B1A88C1
:10243000134B1A805AE705230E4A13800E4A11499E
:1024400011600F4A138051E73C230A4A13800A4A5D
:102450000C4911600A4A138048E70023054A13809B
:10246000054A1360064A138040E7C046000000207A
:1024700090640008B4040020B804002060EA000062
:10248000B20400207017000050460000E02E00004B
:1024900030750000C0D40100A2040020A404002074
:1024A00098040020014B98637047C0460004004028
:1024B000014B58637047C04600040040014BD8638D
:1024C0007047C046002C0140014B58637047C0461E
:1024D000002C014010B5544B1B78012B00D16EE04D
:1024E000524B00229B5E524A1268002A0BDD514972
:1024F0000020095E081F984205DC04318B4202DC93
:102500004D49012008704B490020095E4A48007877
:1025100001285AD0484A1278022A62D0CB1A002BDE
:1025200063DD46490A8801320A8045490A88013A32
:102530000A80444A02211170002B62DD424A13884E
:10254000013B13803D4B00229A5EFA239B009A4286
:1025500003DB3A4BFA2292001A80384B00229B5E32
:10256000002B55DD364B00229A5EFA239B009A42DF
:1025700003DB334BFA2292001A80314B00229B5E20
:10258000002B49DD304B00229A5EFA239B009A42D1
:1025900003DB2D4BFA2292001A802B4B00229B5E0C
:1025A000002B3DDD254B1888FFF782FF244B188850
:1025B000FFF778FF244B1888FFF786FF10BD002334
:1025C0001D4A1370184A13708AE7013A18480260CE
:1025D000002A9FDC020000201060174A02301070B1
:1025E00098E71A4A0021515E98E714490A88013A8F
:1025F0000A8013490A8801320A80124A01211170A7
:102600009AE7002B9EDA104A13880133138099E76A
:102610000A4B00221A80A5E7094B00221A80B1E775
:10262000094B00221A80BDE7BD040020CA04002027
:10263000B8040020B4040020BC040020A80400203A
:10264000AA040020AE040020A6040020B20400204A
:1026500010B5364B1B78032B09D1354B1B78012B5A
:1026600030D0344B1B78123BDBB2012B2AD9324BD2
:1026700001221A700023314A1380314A1360314A13
:102680001380314A1380314A1380314A138000206D
:10269000FFF708FF0020FFF70BFF0020FFF714FFF4
:1026A00000222C4B1A702C4B1B78012B14D0002BC2
:1026B00003D12A4B1B78012B25D0294B1888FFF713
:1026C000FDFE10BD1C4B1B78012B02D0FFF702FF53
:1026D000E9E7FFF7F9FDF9E7204A1278012AE6D188
:1026E0001F4A7F2111801F490A88013292B20A8055
:1026F000132ADCD90A0014211180002217490A701C
:1027000017490A80D3E7164B20221A80154A1388EE
:1027100001339BB21380132BCFD9130014221A80DC
:1027200000230E4A13700E4A1380C6E79A04002055
:102730008A04002000000020BD040020B404002012
:10274000B8040020B2040020AA040020A80400203D
:10275000A6040020AE04002092040020AF04002054
:10276000AC040020B004002000B5CB4B984200D947
:1027700081E2CA4B984200D982E2C94B984200D903
:1027800081E2C84B984200D980E2C74B984200D9F9
:102790007FE2C64B984200D97EE2C54B984200D9F1
:1027A0007DE2C44B984200D97CE2C34B984200D9E9
:1027B0007BE2C24B984200D97AE2C14B984200D9E1
:1027C00079E2C04B984200D978E2BF4B984200D9D9
:1027D00076E2BE4B984200D974E2BD4B984200D9D4
:1027E00072E2BC4B984200D970E2BB4B984200D9D0
:1027F0006EE2BA4B984200D96CE2B94B984200D9CC
:102800006AE2B84B984200D968E2B74B984200D9C7
:1028100066E2B64B984200D964E2B54B984200D9C3
:1028200062E2B44B984200D960E2063B984200D97C
:102830005EE2B14B984200D95CE2B04B984200D9BD
:102840005AE2AF4B984200D958E2053B984200D378
:1028500056E2AC4B984200D954E2AB4B984200D9B7
:1028600052E2AA4B984200D950E2A94B984200D9B3
:102870004EE2A84B984200D94CE2A74B984200D9AF
:102880004AE2063B984200D348E2083B984200D90E
:1028900046E2A24B984200D944E2A14B984200D9AB
:1028A00042E2A04B984200D940E29F4B984200D9A7
:1028B0003EE29E4B984200D93CE29D4B984200D9A3
:1028C0003AE29C4B984200D938E29B4B984200D99F
:1028D00036E29A4B984200D934E2994B984200D99B
:1028E00032E2984B984200D930E2974B984200D997
:1028F0002EE2093B984200D92CE2083B984200D9CD
:102900002AE2924B984200D928E2914B984200D992
:1029100026E2904B984200D924E20A3B984200D923
:1029200022E28D4B984200D920E28C4B984200D98C
:102930001EE28B4B984200D91CE20A3B984200D918
:102940001AE2884B984200D918E2874B984200D986
:1029500016E20C3B984200D314E2844B984200D913
:1029600012E2834B984200D910E20D3B984200D905
:102970000EE2804B984200D90CE27F4B984200D97E
:102980000AE27E4B984200D908E27D4B984200D97A
:1029900006E20C3B984200D304E27A4B984200D9FD
:1029A00002E2794B984200D900E20D3B984200D9EF
:1029B000FEE1764B984200D9FCE10C3B984200D3F3
:1029C000FAE1734B984200D9F8E1724B984200D972
:1029D000F6E10D3B984200D9F4E16F4B984200D9E3
:1029E000F2E10C3B984200D3F0E16C4B984200D9E5
:1029F000EEE16B4B984200D9ECE10D3B984200D3DD
:102A0000EAE1684B984200D9E8E1674B984200D967
:102A1000E6E10C3B984200D3E4E1644B984200D9D4
:102A2000E2E1634B984200D9E0E10C3B984200D3CD
:102A3000DEE1604B984200D9DCE15F4B984200D95F
:102A4000DAE10C3B984200D3D8E15C4B984200D9C4
:102A5000D6E10E3B984200D9D4E10C3B984200D31A
:102A6000D2E1574B984200D9D0E1564B984200D959
:102A7000CEE10D3B984200D3CCE1534B984200D9B4
:102A8000CAE1524B984200D9C8E10D3B984200D9A7
:102A9000C6E14F4B9EE0C0462A0700002607000013
:102AA000220700001E0700001A070000160700009A
:102AB000120700000E0700000A07000006070000CA
:102AC00002070000FD060000F9060000F506000000
:102AD000F1060000ED060000E9060000E506000032
:102AE000E1060000DD060000D9060000D306000064
:102AF000CD060000C6060000BA060000B2060000BF
:102B0000AD060000A10600009B0600009306000031
:102B10008C060000850600007E06000069060000A5
:102B2000620600005B060000540600004C06000030
:102B3000430600003B060000320600002A060000A3
:102B4000220600001906000011060000F60500002C
:102B5000EC050000E2050000CE050000C405000001
:102B6000BA050000A60500009C05000082050000D3
:102B7000750500005B0500004E05000041050000E2
:102B8000340500001A0500000D050000F4040000E3
:102B9000DA040000CD040000B40400009A04000030
:102BA0008D04000072040000640400004A04000068
:102BB0003C0400002104000014040000FA0300009B
:102BC000D2030000C5030000AA0300009D0300001B
:102BD00082030000984200D924E1A64B984200D914
:102BE00022E10D3B984200D920E10C3B984200D3F2
:102BF0001EE1A14B984200D91CE10D3B984200D93F
:102C00001AE10C3B984200D318E19C4B984200D942
:102C100016E10E3B984200D914E10C3B984200D3D8
:102C200012E1974B984200D910E1964B984200D997
:102C30000EE10D3B984200D30CE1934B984200D932
:102C40000AE1924B984200D908E10D3B984200D925
:102C500006E18F4B984200D904E18E4B984200D98F
:102C600002E10D3B984200D900E10C3B984200D2B2
:102C7000FEE06D2301E00B235B42874A138000BD19
:102C80000A235B42F9E709235B42F6E708235B422C
:102C9000F3E707235B42F0E706235B42EDE70523FA
:102CA0005B42EAE704235B42E7E703235B42E4E796
:102CB00002235B42E1E701235B42DEE70023DCE71E
:102CC0000123DAE70223D8E70323D6E70423D4E776
:102CD0000523D2E70623D0E70723CEE70823CCE776
:102CE0000923CAE70A23C8E70B23C6E70C23C4E776
:102CF0000D23C2E70E23C0E70F23BEE71023BCE776
:102D00001123BAE71223B8E71323B6E71423B4E775
:102D10001523B2E71623B0E71723AEE71823ACE775
:102D20001923AAE71A23A8E71B23A6E71C23A4E775
:102D30001D23A2E71E23A0E71F239EE720239CE775
:102D400021239AE7222398E7232396E7242394E775
:102D5000252392E7262390E727238EE728238CE775
:102D600029238AE72A2388E72B2386E72C2384E775
:102D70002D2382E72E2380E72F237EE730237CE775
:102D800031237AE7322378E7332376E7342374E775
:102D9000352372E7362370E737236EE738236CE775
:102DA00039236AE73A2368E73B2366E73C2364E775
:102DB0003D2362E73E2360E73F235EE740235CE775
:102DC00041235AE7422358E7432356E7442354E775
:102DD000452352E7462350E747234EE748234CE775
:102DE00049234AE74A2348E74B2346E74C2344E775
:102DF0004D2342E74E2340E74F233EE750233CE775
:102E000051233AE7522338E7532336E7542334E774
:102E1000552332E7562330E757232EE758232CE774
:102E200059232AE75A2328E75B2326E75C2324E774
:102E30005D2322E75E2320E75F231EE760231CE774
:102E400061231AE7622318E7632316E7642314E774
:102E5000652312E7662310E767230EE768230CE774
:102E600069230AE76A2308E76B2306E76C2304E774
:102E70006E2302E7750300004D03000026030000E7
:102E8000FE020000F1020000D6020000C9020000AC
:102E9000AE020000A1020000CA04002010B5464C9A
:102EA000200000F077FF0A21200000F0A3FF002897
:102EB00018D0424B00221A703F4C200000F06AFFED
:102EC0000A21200000F096FF002814D03C4B00227D
:102ED0001A703A4B1B78012B16D0394B1B78012BFB
:102EE00037D010BD344800F0E9FF364B1880334B23
:102EF00001221A70E0E7304800F0E0FF324B188002
:102F00002F4B01221A70E4E7304B19780131C9B216
:102F100019702C4B18882E4B1A6894466044186020
:102F20000929DAD9FDF7F8F8FEF72EF82949FDF757
:102F300037FD2949FDF71CFCFDF764FA80B2274BE9
:102F40001880FFF711FC0023204A1370204A1360F9
:102F5000C3E7234B19780131C9B219701A4B18888D
:102F6000204B1A689446604418600929B9D9FDF7C6
:102F7000D3F8FEF709F81C49FDF712FD1649FDF7D5
:102F8000F7FBFDF73FFA80B2184B1880FDF7FCFF06
:102F90001749FDF72BFE1749FDF7EAFB1649FDF728
:102FA00049FAFDF7D1FF154B188000230C4A137026
:102FB0000C4A136095E7C0463C000020CE04002078
:102FC000C2040020CC040020C00400200200002025
:102FD000D004002000409C4500F07F45D404002030
:102FE00001000020C404002000404E45C804002019
:102FF00000003E44000020400000C841BE04002004
:10300000002306E0044A2021D154044A0B31D15454
:103010000133632BF6DD7047DC06002040070020FB
:10302000014B188059807047D80400207F280ED8A3
:103030001F290CD8012A0BD0CB08DB011818072355
:10304000194001228A4008490B5C93430B54704796
:10305000CB08DB011818072319408A4002490B5C92
:1030600013430B54F3E7C046DC040020F8B5CE460A
:10307000474680B581460D009046244B1B880A7850
:103080009B187F2B3DDC214B5B884A789B181F2BBC
:1030900039DC002620E01D4B1888598843465A42E7
:1030A0005A41D2B2891989B2001980B2FFF7BEFF26
:1030B00001342B78A3420ED93B00A3401B04EAD570
:1030C000124B18885988891989B2001980B2424672
:1030D000FFF7ACFFECE701366B78B34207D94A46FD
:1030E00053439B195B006A689F5A0024E1E72B78E1
:1030F000064A11885B1813804846C0BCB946B046E2
:10310000F8BD0020F9E70020F7E7C046D80400200A
:1031100070B5002415E02500621CD3009B1A7F2B9C
:1031200012DCE000001B80B20021FFF779FF104B9A
:10313000585D2038C0B201220E49FFF797FF0134D5
:10314000E4B2442CE7D970BDFF2B08DC2300123B0E
:103150000720584380B20A21FFF762FFE7E7230008
:10316000243B0720584380B21421FFF759FFDEE7C4
:10317000DC0600200C00002070B5002415E02500BE
:10318000631C9A00D21853007F2B11DCA300E318B4
:10319000580080B20021FFF743FF0B4B585D01221E
:1031A0000A49FFF763FF0134E4B2182CE7D970BD78
:1031B000FF2BF2DC23000C3B0A20584380B20F2186
:1031C000FFF72EFFE9E7C04640070020040000207B
:1031D00013280CD88000644B1B589F46634B102269
:1031E0001A711A325A71263A9A711B32DA71704783
:1031F0005E4B0B22DA700A3A1A7119325A71073291
:103200009A710332DA71F2E7584B0B22DA700A3AFC
:103210001A7119325A7107329A710332DA71E6E77C
:10322000524B0B22DA700A3A1A7119325A71013272
:103230009A710C3ADA71DAE74C4B1422DA700832E0
:103240001A710D325A710E3A9A710C3ADA71CEE750
:10325000464B0B22DA700A3A1A7119325A71123A35
:103260009A711732DA71C2E7404B1422DA700832D1
:103270001A710D325A71213A9A711732DA71B6E722
:103280003A4B06225A7119329A71B0E7374B28220D
:103290005A71093A9A71AAE7344B11221A71043A09
:1032A0005A7112329A71A2E7304B09221A71173201
:1032B0005A71013A9A719AE72C4B11221A7106320F
:1032C0005A7108329A7192E7284B26221A71143AE1
:1032D0005A710D329A718AE7244B05221A711D32F8
:1032E0005A71143A9A711132DA7180E71F4B272212
:1032F0001A710F3A5A7105329A710232DA7176E711
:103300001A4B16221A71143A5A7111329A710632F6
:10331000DA716CE7154B0722DA7000221A71153248
:103320005A7109329A710732DA71233A1A725EE7DA
:103330000E4B0222DA7021321A710F3A5A7108329A
:103340009A710932DA71223A1A7250E7074B022257
:10335000DA7021321A71193A5A7102329A7119329D
:10336000DA71223A1A7242E7E0640008400700204E
:1033700000B585B000236A4613735073322300935F
:10338000303B03AA7821024801F04AFD05B000BD98
:103390007C00002010B5002806D100218022920078
:1033A000024803F000F810BDFF21F7E7DC0400201D
:1033B00010B584B000241BE020005038C0B2FFF7E5
:1033C000D7FF0020FFF7D4FF1020FFF7D1FFE30164
:1033D000094A9B18FA2292000292802201920093DD
:1033E0000123403A7821054801F0D4FD0134E4B2CC
:1033F000072CE1D904B010BDDC0400207C000020C3
:1034000010B5FFF7FDFD044B1878FFF7E1FEFFF75D
:10341000B3FEFFF7CDFF10BD00000020F0B5D6468B
:103420004F464646C0B5FFF7EBFD904D904B2A0046
:1034300013CB13C22800FCF767FE060084B28D4B45
:103440001B889A4664211800FCF766FE80B23C2176
:10345000FCF7E8FE8BB298460A211800FCF7E2FE62
:10346000CFB20A214046FCF757FE80B20A21FCF792
:10347000D9FECBB2984680495046FCF74DFE80B24B
:103480000A21FCF7CFFECBB299467C495046FCF7A7
:1034900043FE80B20A21FCF7C5FEC9B23031A955FE
:1034A000731C49463031E954B31C3A22EA54F31CE8
:1034B00041463031E95404363037AF55E01D80B213
:1034C00028182F3A6E4902F065FF0F34A4B26D4BF5
:1034D00000255D5F002D00DAA7E0202398460A2131
:1034E0002800FCF789FFCEB264212800FCF784FF96
:1034F00008B20A21FCF79AFEC7B2FA218900280017
:10350000FCF77AFF08B26421FCF790FEC0B2A31C5E
:10351000564A4146D154002800D08BE0E31C2021BC
:10352000D154231D3037D754631D3036D654A01DD7
:103530004E4C20180322544902F02CFF2000FCF7C7
:10354000E3FD85B220272754A81C80B2201806224C
:103550004E4902F01FFFEE1DB6B2A7554C4B1C782A
:103560000A212000FCF75EFECFB264212000FCF7A8
:1035700059FECCB20A212000FCF7CEFDC0B2092CC6
:1035800063D93030394A9055731C3037D754B31C47
:103590009BB2364C2027E7540336B0B220180522E0
:1035A0003C4902F0F7FE2000FCF7AEFD0500275471
:1035B000394B1B8898460A211800FCF733FECCB221
:1035C00064214046FCF72EFE88B20A21FCF7A4FDD8
:1035D000C6B2FA2189004046FCF724FE88B2642175
:1035E000FCF79AFDC7B22D494046FCF71BFE88B296
:1035F000FA218900FCF790FDC0B200282BD003000F
:1036000030331A4A53556B1C3037D754AB1C303605
:10361000D654033530345455FFF77AFDFFF7C8FE12
:10362000E0BCBA46B146A846F0BD6D422DB22D238E
:10363000984654E7E31C30300C4AD054231D3037F1
:10364000D754631D3036D65471E70835AEB23037E3
:10365000064B9F559BE76A1C3037044B9F54AA1CAE
:1036600030369E54033530345C55D5E7DC060020F7
:1036700030650008B80400207017000060EA000000
:103680003C650008CA040020486500084C65000835
:103690000000002054650008AC070020102700003F
:1036A000F8B5FFF7ADFC184D184B2A0013CB13C229
:1036B000196811609B8893802800FCF725FD84B26F
:1036C00020232B540934A4B2114B1F780A2138004F
:1036D000FCF7A8FDCEB264213800FCF7A3FDC8B208
:1036E0000A21FCF719FDC0B25B232B55631C303057
:1036F000E854A31C3036EE5403345D232B55FFF7FA
:1037000007FDFFF755FEF8BDDC0600205C650008EC
:1037100000000020F8B5FFF773FC794B1B78002BF5
:1037200009D0012B5BD0022B00D195E0FFF7F0FC14
:10373000FFF73EFEF8BD734D734B2A0013CB13C247
:10374000196811609B8893802800FCF7DDFC84B227
:1037500020232B540534A4B26C4B0027DF5F0A21D1
:103760003800FCF749FECDB264213800FCF744FE76
:1037700008B20A21FCF75AFDC6B2FA2189003800C6
:10378000FCF73AFE08B26421FCF750FDC0B20028F5
:1037900016D0631C30305B4AD054A31C3036D6544C
:1037A000E31C3035D554201D564C201806225849AC
:1037B00002F0F0FD2000FCF7A7FC20232354B5E71E
:1037C000002E07D0A31C30364E4AD654E31C3035A9
:1037D000D554E8E7E31C30354A4AD554E3E7494D70
:1037E0004C4B2A0013CB13C2196811609B8893803D
:1037F0002800FCF789FC84B220232B540534A4B2A2
:10380000454B00255D5F0A212800FCF7F5FDCEB28F
:1038100064212800FCF7F0FD08B20A21FCF706FD40
:10382000C0B2002813D0A31C3030364AD054E31C59
:103830003036D654201D334C20180522374902F06B
:10384000A9FD2000FCF760FC202323546EE7E31C55
:1038500030362C4AD654EDE72A4C314B220023CB8C
:1038600023C2196811601B7913712000FCF74CFC0E
:1038700083B22022225406339CB22A4B0027DF5FFA
:103880000A213800FCF7B8FDCDB264213800FCF7FE
:10389000B3FD08B20A21FCF7C9FCC6B2FA218900BF
:1038A0003800FCF7A9FD08B26421FCF7BFFCC0B2E8
:1038B000002816D0631C3030124AD054A31C303676
:1038C000D654E31C3035D554201D0E4C201806224A
:1038D0000F4902F05FFD2000FCF716FC2023235463
:1038E00024E7002E07D0A31C3036064AD654E31C2A
:1038F0003035D554E8E7E31C3035024AD554E3E7C8
:1039000096040020DC06002070650008A204002058
:10391000846500088C650008A4040020A0650008E8
:10392000A86500089804002010B5AE20FFF720FD20
:103930000A2000F0ABFBA820FFF71AFD0A2000F0D8
:10394000A5FB1F20FFF714FD0A2000F09FFBD320EA
:10395000FFF70EFD0A2000F099FB0020FFF708FD9D
:103960000A2000F093FB4020FFF702FD0A2000F040
:103970008DFBA120FFF7FCFC0A2000F087FBC8208C
:10398000FFF7F6FC0A2000F081FB8120FFF7F0FC36
:103990000A2000F07BFB7F20FFF7EAFC0A2000F002
:1039A00075FBA420FFF7E4FC0A2000F06FFBA620C3
:1039B000FFF7DEFC0A2000F069FBD520FFF7D8FCFA
:1039C0000A2000F063FB8020FFF7D2FC0A2000F001
:1039D0005DFB8D20FFF7CCFC0A2000F057FB142084
:1039E000FFF7C6FC0A2000F051FB2E20FFF7C0FCB9
:1039F0000A2000F04BFB2020FFF7BAFC0A2000F061
:103A000045FB1020FFF7B4FC0A2000F03FFBDA2052
:103A1000FFF7AEFC0A2000F039FB0220FFF7A8FCFC
:103A20000A2000F033FBD920FFF7A2FC0A2000F0A7
:103A30002DFB2220FFF79CFC0A2000F027FBDB2057
:103A4000FFF796FC0A2000F021FB2020FFF790FCF6
:103A50000A2000F01BFBB020FFF78AFC0A2000F0D0
:103A600015FB0020FFF784FC0A2000F00FFB10205C
:103A7000FFF77EFC0A2000F009FBAF20FFF778FC7F
:103A80000A2000F003FB0020FFF784FCFFF790FC06
:103A9000FFF7B6FAFFF73CFBFFF78AFC10BD00000A
:103AA00010B50A4B1B78032B06D0012B07D0022B35
:103AB00008D0FFF7A5FC10BDFFF7B0FCFBE7FFF750
:103AC000EFFDF8E7FFF726FEF5E7C0469A04002071
:103AD00010B584B0642302935C3B01930A4C0094BC
:103AE000073B0222B421094801F024FB227812028C
:103AF00063781343064A1380A2781202E3781343D3
:103B0000044A138004B010BDA40700207C000020EC
:103B1000AC070020B007002070B584B00C4CF42333
:103B200023700C4DFA26B6000096F33B2200B42118
:103B3000280001F075F91023237002960F3B0193C2
:103B400000940122B421280001F024FA04B070BDD1
:103B5000AE0700207C00002010B5FFF7B9FF10BDB4
:103B600030B583B0040000230193036899680322F1
:103B70000A40012A14D09968224A114218D19A6841
:103B800001210A439A60204B18682049FCF7C4FAC7
:103B90000190019B002B15D0019B013B0193F8E79D
:103BA0001A68D2072BD4DA681204E4D5002024E086
:103BB000A36B10221343A363E36B0F3A1343E36336
:103BC00001201AE000F05CFA050023681B68DB079F
:103BD00012D400F055FA401B0228F6D923681B685E
:103BE000DB07F2D4A36B10221343A363E36B0F3AFA
:103BF0001343E363012000E0002003B030BD002048
:103C0000FBE7C046170000801C00002040420F0068
:103C100070B5041E00D1B4E0836B002B00D180E0AE
:103C2000A36BDB0600D5A6E022689168042005009E
:103C30000D40084200D09EE0A16B534B1940063363
:103C4000FF331943A163916801330B40012B6ED000
:103C5000D36818218B43A1680B43D3602268136992
:103C60009B009B0861680B4313612268D368474936
:103C70000B40D360237E9B03627ED2031343A17E5D
:103C80004A031343A26A012A58D0802252011343E7
:103C9000E26813432269022A52D02B432422A25CF9
:103CA00052001343E27E012A4CD0E269C221FF3167
:103CB0008A4202D0216A0A4313432168CA681A4320
:103CC000CA60E26A802149058A420DD0012A0BD0E0
:103CD000022A09D0032A07D0042A05D0052A03D0D6
:103CE000062A01D0072A0AD1206841690722914398
:103CF000416120684169E56A2A400A4342612268BD
:103D0000D26823490A409A422BD0A36B12229343D4
:103D1000023A1343A363E36B0F3A1343E3630120B7
:103D20002EE0C36334228354FDF74EFD78E7136819
:103D3000DB079AD4D3681B0497D489E72A00A6E747
:103D40000425AAE7002903D1802252021343ACE7DD
:103D5000A26B20210A43A263E26B1F390A43E2638C
:103D6000A3E70023E363A36B03229343023A1343C5
:103D7000A363002004E0A36B10221343A36301207C
:103D800070BD0120FCE7C046FDFEFFFF1902FEFFEB
:103D9000E7FF3F8310B5040003689B685B0723D4EB
:103DA0003423C35C012B21D034230122C254437E2F
:103DB000012B14D10020A36B0D4A1A4080235B0015
:103DC0001343A3630023E3633422A3542368183A04
:103DD0001A602268936804210B43936010BDFFF7BB
:103DE000BFFE0028FAD1E6E70220F7E70220F5E758
:103DF000FEF0FFFFF8B504000E004769082F04D05D
:103E00000368DB68DB0718D40C2700F039F90500DC
:103E100023681A6817421FD1731CF9D0002E15D1E0
:103E200023681B681F42F3D1A36B04221343A363CF
:103E300034230022E254032032E0836B2022134318
:103E4000836334230022C254012029E000F018F9D2
:103E5000401BB042DCD9E3E7A16B802292000A4309
:103E6000A263D968C0221201114213D1A27E002A96
:103E700010D11A6812070DD59A68520711D45A68E2
:103E80000C218A435A60A36B0B4A13400432FF3261
:103E90001343A363207E00280CD123680C221A60F0
:103EA000F8BDA36B20221343A363E36B1F3A1343B4
:103EB000E363EFE70020F3E7FEFEFFFF0368186C03
:103EC0007047000030B583B0040000230193343301
:103ED000C35C012B00D181E034230122C25403686A
:103EE0009A68520770D43E4A4868904253D09A6A02
:103EF00001200D68A84002439A62E36A80225205BD
:103F000093421ED0012B1CD0022B1AD0032B18D0A9
:103F1000042B16D0052B14D0062B12D0072B10D053
:103F200022685069072303408868984209D0506985
:103F3000072398435061206842698D682B401343E2
:103F400043610B681A00103A012A01D9002040E0B1
:103F5000244A1268102B09D08023DB031343214A23
:103F600013600B68102B04D0002032E080231B0468
:103F7000F4E71D4B18681D49FCF7CEF883001B18A9
:103F80005B00019302E0019B013B0193019B002B2D
:103F9000F9D100201DE09A6A01200D68A8408243F3
:103FA0009A620B681A00103A012A01D9002010E029
:103FB0000C4A1268102B05D00D4B1340094A1360B0
:103FC000002006E00B4BF8E7836B2022134383634A
:103FD000012034230022E25403B030BD0220FBE76D
:103FE00001100000082701401C00002040420F0083
:103FF000FFFFBFFFFFFF7FFF10B504000F4B1978D5
:10400000FA208000FCF788F801000D4B1868FCF7D7
:1040100083F800F021FD00280DD1032C01D90120E7
:104020000AE0013000222100404200F0D9FC054B9B
:104030001C60002000E0012010BDC04614000020DC
:104040001C0000201800002010B5064A136810213B
:104050000B4313600220FFF7CFFFFDF79DFB00200D
:1040600010BDC04600200240034A1168034B1B7874
:104070005B1813607047C046B4070020140000208E
:10408000014B18687047C046B407002070B50400A3
:10409000FFF7F6FF0500631C02D0044B1B78E41801
:1040A000FFF7EEFF401BA042FAD370BD14000020C2
:1040B00070B582B0041E00D12EE20368DB0726D55E
:1040C000AE4B5A680C231340042B18D0AB4B5A68E4
:1040D0000C231340082B0ED06368012B3CD0002B1F
:1040E00051D1A64B1A68A6490A401A601A68A54918
:1040F0000A401A6036E0A14B5B68DB03ECD59F4BAE
:104100001B689B0303D56368002B00D107E223687B
:104110009B0772D5994B5B680C221A425DD0974B76
:104120005A680C231340082B53D0E368002B00D1AE
:1041300085E0924A136801210B431360FFF7A0FF4B
:1041400005008E4B1B689B0770D4FFF799FF401B3F
:104150000228F6D90320E0E1884A116880235B0237
:104160000B4313606368002B25D0FFF789FF050020
:10417000824B1B689B03CAD4FFF782FF401B642855
:10418000F6D90320C9E1052B09D07C4B1A687C497C
:104190000A401A601A687B490A401A60E2E7774BC6
:1041A00019688022D2020A431A60196880225202DA
:1041B0000A431A60D6E7FFF763FF05006F4B1B68E1
:1041C0009B03A4D5FFF75CFF401B6428F6D90320AE
:1041D000A3E16A4B5B68DB03A7D4684B1B689B07B2
:1041E00003D5E368012B00D09BE164490B68F822FA
:1041F00093432269D20013430B6023681B0744D505
:10420000E369002B2ED05D4A536A01210B435362B0
:10421000FFF736FF0500594B5B6A9B0735D4FFF764
:104220002FFF401B0228F6D9032076E153490B6883
:10423000F82293432269D20013430B60DDE74F4A13
:10424000136801218B431360FFF71AFF05004B4BE6
:104250001B689B07D1D5FFF713FF401B0228F6D937
:1042600003205AE1454A536A01218B435362FFF709
:1042700007FF0500414B5B6A9B0706D5FFF700FF70
:10428000401B0228F6D9032047E123685B0700D4CE
:1042900080E03A4BDB69DB001DD4384AD1698020CD
:1042A00040050143D161D36903400193019B01257E
:1042B000354B1B68DB0510D5A368012B21D0002BE3
:1042C00036D12E4B1A6A01218A431A621A6A0331C7
:1042D0008A431A621AE00025EAE72B4A1168802314
:1042E0005B000B431360FFF7CBFE0600264B1B68F9
:1042F000DB05E1D4FFF7C4FE801B6428F6D9032058
:104300000BE11E4A136A01210B431362A368002BC1
:1043100024D0FFF7B5FE0600184B1B6A9B0737D465
:10432000FFF7AEFE801B194B9842F5D90320F4E04D
:10433000052B09D0114B1A6A01218A431A621A6AA5
:1043400003318A431A62E1E70C4B1A6A04210A43DB
:104350001A621A6A03390A431A62D7E7FFF790FE16
:104360000600064B1B6A9B0712D5FFF789FE801BD0
:10437000064B9842F5D90320CFE0C046001002401A
:10438000FFFFFEFFFFFFFBFF0070004088130000EF
:10439000012D33D02368DB0610D56369012B33D0A0
:1043A000053351D1654A536B04218B435363536BDF
:1043B000F4318B43A169C9000B435363236A002B7B
:1043C00000D1B0E05D4A51680C220A40082A00D1B1
:1043D0008AE0022B4FD0594A136859490B401360A9
:1043E000FFF74EFE0400554B1B689B017AD5FFF783
:1043F00047FE001B0228F6D903208EE04F4AD369FE
:1044000050490B40D361C5E74C4B5A6B04210A431A
:104410005A635A6B03390A435A63FFF731FE0500AA
:10442000464B5B6B9B0706D4FFF72AFE401B022816
:10443000F6D9032071E041494B6BF8229343A269FE
:10444000D20013434B63B9E73C4B5A6B04210A4338
:104450005A635A6B03398A435A63FFF711FE05000A
:10446000364B5B6B9B07A9D5FFF70AFE401B022862
:10447000F6D9032051E0314A136831490B401360EB
:10448000FFF7FEFD05002D4B1B689B0106D5FFF7CE
:10449000F7FD401B0228F6D903203EE0274BDA6ADD
:1044A0000F218A43E16A0A43DA625A6826490A40C0
:1044B000A16A606A01430A435A6019688022520463
:1044C0000A431A60FFF7DCFD04001C4B1B689B01CC
:1044D00006D4FFF7D5FD001B0228F6D903201CE007
:1044E00000201AE0002018E0012B1ED0134B5A6860
:1044F000D96A80235B021340606A834217D10F237D
:104500000B40E16A8B4214D1F0239B031A40A36A4B
:104510009A4210D1002000E0012002B070BD0120BD
:10452000FBE70120F9E70020F7E70120F5E701208C
:10453000F3E70120F1E70120EFE7C0460010024059
:10454000FFFFFFFEFFFFFFEFFFFFC2FF10B588B0C8
:1045500004AA164B13CB13C21B6813606A46144B94
:1045600013CB13C21B681360124B5A680C23134001
:10457000082B02D0104808B010BD910C0733194029
:1045800004A8445C0B49C96A0B406946C95CD30363
:1045900004D50948FBF7C0FD6043ECE763011B1B32
:1045A0009801C01AC00000190002E4E7A8720008D0
:1045B000BC7200080010024000127A0070B50400BE
:1045C0000D00002800D17EE0434B1A680123134000
:1045D0008B420AD240490B68012293432B430B6064
:1045E0000B681A40AA4200D06FE023689A070ED5E4
:1045F0005B0705D5394A5168E023DB000B43536064
:10460000364A5368F0218B43A1680B4353602368FB
:10461000DB072DD56368012B1ED0022B22D02F4A39
:104620001268920753D52D494A68032082431343E9
:104630004B60FFF725FD0600284B5B680C221A40F3
:1046400063689B009A4213D0FFF71AFD801B244B2E
:104650009842F1D9032035E0204A12689203E2D44F
:1046600001202FE01D4A12689201DCD4012029E0CC
:10467000194B1A6801231340AB4209D916490B683C
:10468000012293432B430B600B681A40AA4220D1AE
:1046900023685B0706D5114A536812490B40E1684D
:1046A0000B435360FFF752FF0C4B5A6812090F235C
:1046B00013400D4AD35CD8400C4B18600220FFF722
:1046C0009BFC002070BD0120FCE70120FAE70120DF
:1046D000F8E70120F6E7C046002002400010024043
:1046E00088130000FFF8FFFFD07200081C000020B4
:1046F000014B18687047C0461C00002010B5FFF73A
:10470000F7FF044B5A68120A07231340024AD35C8E
:10471000D84010BD00100240E072000870B582B0B1
:1047200004000368DB0337D53D4BDB69DB0049D46C
:104730003B4AD169802040050143D161D3690340E0
:104740000193019B0125374B1B68DB053CD5344B9E
:104750001A6AC0239B00110019401A4213D06268E4
:1047600013408B420FD02E4B186A2F4A02401E6A0C
:104770008021490231431962196A2C4E3140196275
:104780001A62C30734D4264A136A27490B4061686A
:104790000B431362012D3AD02368DB0706D5204A6C
:1047A000136B03218B43A1680B43136323689B06A0
:1047B00032D51B4A136B10218B43E1680B43136303
:1047C00000202AE00025BEE7164A116880235B001E
:1047D0000B431360FFF754FC0600124B1B68DB050C
:1047E000B5D4FFF74DFC801B6428F6D9032014E0F4
:1047F000FFF746FC06000A4B1B6A9B07C3D4FFF772
:104800003FFC801B0A4B9842F5D9032005E0D36991
:1048100008490B40D361BFE7002002B070BDC0461D
:104820000010024000700040FFFCFFFFFFFFFEFF92
:1048300088130000FFFFFFEFF0B583B0002357E0BF
:1048400084685F000326BE40B4432600CC68BC40A9
:1048500034438460446894434A6816090122324014
:104860009A402243426053E0DC080834A4002658F2
:1048700005321A4092000F279740BE430F699740B8
:104880003A003243225057E0032600E00026A640BB
:1048900034003C4302329200444E9451444A14681E
:1048A000EA432600AE434F68FF0301D52C432600A0
:1048B0003F4C26606468260016404F68BF0301D550
:1048C0002C4326003A4C6660A468260016404F68C8
:1048D000FF0201D52C432600354CA660E468224037
:1048E0004E68B60201D52A002243314CE260013302
:1048F0000C682200DA4057D001229A40250015406A
:104900001442F4D003244E683440013C012C97D962
:1049100003224C682240032A09D0C2685E000324A7
:10492000B440A24314008A68B2402243C26003220A
:104930004C682240022A97D004685E0003221700C8
:10494000B740BC434F683A40B24022430260C022A5
:1049500092024C681442CAD0164CA6690122164332
:10496000A661A46922400192019A9A08941CA400AD
:104970000E4EA75903241C40A4000F26A640B7439F
:104980009026F605B04281D00B4EB04208D00B4EB7
:10499000B04207D00A4EB04200D175E7052676E74F
:1049A000012674E7022672E703B0F0BD0000014063
:1049B00000040140001002400004004800080048C4
:1049C000000C004803690B4201D001207047002011
:1049D000FCE7002A01D0816170478162FCE700009A
:1049E00070B5002811DB8308134EC0339B009D591E
:1049F00003242040C000FF2214008440A543890105
:104A00000A4082402A439A5170BD0F230340083B5D
:104A10009B0806339B00094A944663445C68032262
:104A20001040C000FC3215008540AC4389010A40AB
:104A3000824022435A60E7E700E100E000ED00E039
:104A4000002805DB1F2318401E3B8340014A1360EA
:104A50007047C04600E100E0013880235B049842C3
:104A60000FD2094A50600948036A1B021B0AC02181
:104A700009060B4303620023936007331360002091
:104A800070470120FCE7C04610E000E000ED00E0C8
:104A900003689A69920701D500229A6203689A69AD
:104AA000D20703D49A6901210A439A617047000032
:104AB00070B504686068049D6D0D8026F6002E4078
:104AC000064D3543A8438905890D12041143194346
:104AD000049B19430143616070BDC046FF63FF033F
:104AE000F8B505000F00160003689A69D2063BD599
:104AF0005A68920104D459688022D2010A435A604C
:104B00002B689C69A20615D47B1CF9D0FFF7B8FA74
:104B1000801BB84201D8002FF2D16B6C20221343C6
:104B20006B644123EA5400232232AB54023AAB5463
:104B300001201AE01022DA612B682024DC612800B1
:104B4000FFF7A6FF2A68536808490B4053606B6C57
:104B5000042213436B644123EC5400233E32AB54D4
:104B6000023AAB54012000E00020F8BD00E800FE4E
:104B700070B504000D00160023689B699B071CD4C8
:104B8000320029002000FFF7ABFF002817D16B1C73
:104B9000F2D0FFF775FA801BA84201D8002DEBD1A7
:104BA000636C2022134363644123E25400232232C6
:104BB000A354023AA354012000E0002070BD01205C
:104BC000FCE7F0B5C64600B507000D0090461E0094
:104BD0003B689C692C40641B63425C41444516D190
:104BE000731CF5D0FFF74CFA069BC01AB04201D8EF
:104BF000002EEDD17B6C202213437B644123FA54B9
:104C000000232232BB54023ABB54012000E00020B2
:104C100080BCB846F0BD000070B582B0040015003D
:104C20001E008023F2B2194800905B042000FFF7B9
:104C30003FFF079A06992000FFF79AFF00281ED130
:104C4000012E0ED12368EDB29D62079B0093069B57
:104C5000002280212000FFF7B4FF002813D102B00A
:104C600070BD23682A0A9A62079A06992000FFF706
:104C70007FFF002805D12368EDB29D62E5E70120A2
:104C8000EDE70120EBE70120E9E7C04600200080C6
:104C900070B582B0040015001E00DAB2184B009304
:104CA0000023FFF705FF079A06992000FFF760FF32
:104CB00000281ED1012E0ED12368EDB29D62079B04
:104CC0000093069B002240212000FFF77AFF002876
:104CD00013D102B070BD23682A0A9A62079A069916
:104CE0002000FFF745FF002805D12368EDB29D6243
:104CF000E5E70120EDE70120EBE70120E9E7C04609
:104D00000020008070B505000C0016002B689B6920
:104D10009B061AD4320021002800FFF7E1FE00288C
:104D200015D1FFF7ADF9801BA04201D8002CEDD1C1
:104D30006B6C202213436B644123EA54002322321C
:104D4000AB54023AAB54012070BD0020FCE70120B7
:104D5000FAE7000010B5041E59D04123C35C002BB4
:104D600043D041232422E2542268136801218B435B
:104D700013602268274B61680B40136122689368B7
:104D800025490B409360E368012B34D022688423CB
:104D90001B02A1680B439360E368022B32D02268A8
:104DA00051681E4B0B4353602268D3681A490B406D
:104DB000D360236962691343A26912022168134315
:104DC000CB602268E369216A0B4313602268136891
:104DD00001210B4313600023636441221F31A1545E
:104DE00023630132A354002010BD40330022C2547B
:104DF000FCF71AFDB5E7226880231B02A1680B436C
:104E00009360C9E72368802212015A60C7E7012036
:104E1000EAE7C046FFFFFFF0FF7FFFFF00800002D0
:104E2000F0B585B004000F00029203930A9D412360
:104E3000C35C202B00D09BE02033C35C012B00D14E
:104E400099E040230122C254FFF71AF9060080219D
:104E500000901923012209022000FFF7B2FE00286A
:104E600000D08AE041232122E2540133113AE25476
:104E700000236364029A6262039A62856363638DAE
:104E80009BB2FF2B0BD9FF2323857F3B3F4A009228
:104E90005B04FF2239002000FFF70AFE18E0628D54
:104EA00092B222858023D2B2384900919B04390006
:104EB0002000FFF7FDFD0BE0628D92B2228580237A
:104EC000D2B2002100919B0439002000FFF7F0FDD1
:104ED000638D9BB2002B34D0320029002000FFF7F5
:104EE00047FE00284BD12368626A12789A62636A8F
:104EF00001336362638D013B9BB26385238D013B6C
:104F00009BB22385628D92B2002AE1D0002BDFD1C3
:104F100000962B00002280212000FFF752FE00287F
:104F20002FD1638D9BB2FF2BC6D9FF2323857F3BF7
:104F3000002200925B04FF3239002000FFF7B8FD29
:104F4000C6E7320029002000FFF7DCFE00281AD156
:104F500023682022DA6121684B680D4D2B404B609D
:104F60004123E25400232232A354023AA35400E026
:104F7000022005B0F0BD0220FBE70120F9E7012087
:104F8000F7E70120F5E70120F3E7C04600200080A5
:104F900000E800FEF0B587B0040003910492059389
:104FA0000CAB20CB1F884123C35C202B00D0B3E087
:104FB000002D18D0002F16D04023C35C012B00D148
:104FC000ADE040230122C254FFF75AF806008021C9
:104FD00000901923012209022000FFF7F2FD0028AA
:104FE00006D0012099E080239B006364012094E0B7
:104FF00041232122E25401331F32E254002363642F
:1050000065626785636301960E9B0093059B049A16
:1050100003992000FFF700FE00280FD1638D9BB29B
:10502000FF2B10D9FF2323857F3B002200925B04D6
:10503000FF3203992000FFF73BFD21E040230022CF
:10504000E254012069E0628D92B222858023D2B2BF
:10505000002100919B0403992000FFF729FD0FE038
:10506000628D92B222858023D2B2002100919B04EE
:1050700003992000FFF71CFD638D9BB2002B34D0F9
:1050800032000E992000FFF773FD002849D12368F4
:10509000626A12789A62636A01336362638D013BCC
:1050A0009BB26385238D013B9BB22385628D92B2B7
:1050B000002AE1D0002BDFD100960E9B0022802138
:1050C0002000FFF77EFD00282DD1638D9BB2FF2BC2
:1050D000C6D9FF2323857F3B002200925B04FF3269
:1050E00003992000FFF7E4FCC6E732000E99200088
:1050F000FFF708FE002818D123682022DA61216812
:105100004B680B4D2B404B604123E254002322326D
:10511000A354023AA35400E0022007B0F0BD0220DD
:10512000FBE70120F9E70120F7E70120F5E7C0469A
:1051300000E800FEF0B587B00400039104920593E7
:105140000CAB20CB1F884123C35C202B00D0B5E0E3
:10515000002D18D0002F16D04023C35C012B00D1A6
:10516000AFE040230122C254FEF78AFF06008021EF
:1051700000901923012209022000FFF722FD0028D8
:1051800006D001209BE080239B006364012096E011
:1051900041232222E25401331E32E254002363648D
:1051A00065626785636301960E9B0093059B049A75
:1051B00003992000FFF76CFD00280FD1638D9BB28F
:1051C000FF2B10D9FF2323857F3B424A00925B04CB
:1051D000FF2203992000FFF76BFC21E0402300220F
:1051E000E25401206BE0628D92B222858023D2B21C
:1051F000384900919B0403992000FFF759FC0FE008
:10520000628D92B222858023D2B2002100919B044C
:1052100003992000FFF74CFC638D9BB2002B36D026
:1052200000960E9B002204212000FFF7CAFC0028F4
:1052300049D123685B6A626A1370636A01336362EF
:10524000238D013B9BB22385628D013A92B2628528
:10525000628D92B2002ADFD0002BDDD100960E9B2A
:10526000002280212000FFF7ACFC00282DD1638DA7
:105270009BB2FF2BC4D9FF2323857F3B00220092E2
:105280005B04FF3203992000FFF712FCC4E73200F1
:105290000E992000FFF736FD002818D12368202240
:1052A000DA6121684B680C4D2B404B604123E2547E
:1052B00000232232A354023AA35400E0022007B094
:1052C000F0BD0220FBE70120F9E70120F7E701200C
:1052D000F5E7C0460024008000E800FEF0B5412359
:1052E000C35C202B20D12033C35C012B1ED0402473
:1052F0000122025541252423435506683368934310
:105300003360066833680A4F3B4033600668336891
:105310001943316001680B6813430B602023435528
:10532000002303550020F0BD0220FCE70220FAE72D
:10533000FFEFFFFFF0B54123C35C202B1ED12033CC
:10534000C35C012B1CD0402401220255412524239B
:105350004355066833689343336006683368094FE2
:105360003B4009021943316001680B6813430B602D
:1053700020234355002303550020F0BD0220FCE705
:105380000220FAE7FFF0FFFF704770477047704751
:1053900070477047704770477047704730B5036A71
:1053A000012293430362036A426884697325AC4314
:1053B0000D682C430225AB438D682B43114DA84249
:1053C00005D0114DA84202D0104DA84205D10825A4
:1053D000AB43CD682B430425AB430A4DA84205D00F
:1053E000094DA84202D0094DA84205D1084D2A40D6
:1053F0004D692A438D692A43426084614A68426349
:10540000036230BD002C01400044014000480140CF
:10541000FFFCFFFF70B5036A184A13400362036A7A
:105420004468C2697325AA430E681643144A1340A0
:105430008A6812021343134A904216D0114A9042CE
:1054400005D0114A904202D0104A904207D1104A2A
:1054500022404C69240114438A6915012C4344609D
:10546000C6614A68C263036270BD0A4A1A40CB68CB
:105470001B021343084A1340E0E7C046FFFEFFFF4C
:10548000FFFDFFFF002C01400044014000480140A7
:10549000FFCFFFFFFFF7FFFFFFFBFFFF30B5036A02
:1054A000114A13400362036A4568C2690F4C2240E7
:1054B0000C68240222430E4C1C408B681B032343C0
:1054C0000C4CA04205D00C4CA04202D00B4CA04288
:1054D00004D10B4C25404C69A40125434560C261B1
:1054E0004A680264036230BDFFEFFFFFFF8CFFFFDD
:1054F000FFDFFFFF002C0140004401400048014055
:10550000FFBFFFFF30B5036A046A0125AC430462A4
:105510008469EF35AC43120122430A24A3430B43B1
:105520008261036230BD000030B5036A1024A343DA
:1055300003628469036A054D2C4012032243A024B0
:10554000A343090119438261016230BDFF0FFFFFD0
:105550008368702293430B4307210B43836070479A
:105560003D23C35C012B1FD13C330222C25402688D
:10557000D36801210B43D36003680D4A934208D0DE
:105580000C4A934205D01A6801210A431A60002090
:105590000BE0996807220A40062A07D01A68012101
:1055A0000A431A60002000E0012070470020FCE759
:1055B000002C01400004004010B5040003681A6983
:1055C000920711D5DA6892070ED5032252421A616A
:1055D0000123037703689B699B0700D184E0902334
:1055E000C35898470023237723681A69520714D5B4
:1055F000DA68520711D5052252421A610223237735
:1056000023689A69C0239B001A4200D174E090235A
:10561000E358200098470023237723681A6912076C
:1056200011D5DA6812070ED5092252421A610423F5
:1056300023772368DB699B0767D09023E35820001A
:1056400098470023237723681A69D20613D5DA68AE
:10565000D20610D5112252421A61082323772368FB
:10566000DA69C0239B001A4258D09023E3582000E7
:1056700098470023237723681A69D20709D5DA6887
:10568000D20706D5022252421A618023E358200035
:10569000984723681A69120609D5DA68120606D5F2
:1056A000812252421A61B023E358200098472368B0
:1056B0001A69520609D5DA68520606D541225242C5
:1056C0001A618823E3582000984723681A699206D4
:1056D00009D5DA68920606D5212252421A61A8231A
:1056E000E3582000984710BD9823C35898479C233F
:1056F000E3582000984775E79823E358200098471F
:105700009C23E3582000984785E79823E35820001E
:1057100098479C23E3582000984792E79823E35842
:10572000200098479C23E35820009847A1E70000F9
:1057300003681A4A904202D0194A904203D170225B
:1057400093434A681343154A90420BD0144A90423F
:1057500008D0144A904205D0134A904202D0134A0E
:10576000904203D1124A1340CA68134380229343E4
:105770004A69134303608B68C3620B688362074BFB
:10578000984205D0084B984202D0084B984201D16C
:105790000B690363012343617047C046002C01403D
:1057A0000004004000200040004401400048014047
:1057B000FFFCFFFF30B5036A102293430362036AC4
:1057C00045688469164A14400A681202144320226C
:1057D00093438A6812011343124A904216D0114A29
:1057E000904205D0104A904202D0104A904207D110
:1057F0000F4A2A404D69AD0015438A69920015434E
:10580000456084614A688263036230BD80229343AD
:105810001A00CB681B01134340229343DFE7C046C5
:10582000FF8CFFFF002C0140004401400048014074
:10583000FFF3FFFF70B504000D003C23C35C012B98
:1058400000D16AE03C230121C154082A50D01CD861
:10585000002A38D0042A16D129000068FFF7AAFFD1
:105860002268916980231B010B439361226893692D
:105870002B490B40936121688B692A6912021343FB
:105880008B6100201BE0080019E00C2A16D12900CA
:105890000068FFF703FE2268D16980231B010B43D8
:1058A000D3612268D3691E490B40D3612168CB695B
:1058B0002A6912021343CB61002000E001203C233F
:1058C0000022E25470BD29000068FFF767FD2268DE
:1058D000936908210B4393612268936904398B43D0
:1058E00093612268936929690B4393610020E6E77D
:1058F00029000068FFF78EFD2268D36908210B4359
:10590000D3612268D36904398B43D3612268D36998
:1059100029690B43D3610020D1E70220D2E7C046BA
:10592000FFFBFFFF30B58468034D2C401B0213437F
:105930000B432343836030BDFF00FFFF10B504001D
:105940003C23C35C012B00D178E03C230122C254EC
:1059500001330132C25402689368394803409360AE
:105960000B68602B50D02AD8402B58D00CD9502B24
:1059700023D1CA6849682068FFF7C4FD5021206818
:10598000FFF7E6FD002005E0202B0ED009D9302BD3
:105990000BD001203D230122E254013B0022E254BE
:1059A00010BD002B01D0102B05D119002068FFF786
:1059B000CFFD0020EEE70120ECE70120EAE780229E
:1059C0005201934236D08022920193420DD1CB688E
:1059D0004A6889682068FFF7A5FF226891688023DC
:1059E000DB010B4393600020D4E7702B24D1CB68FC
:1059F0004A6889682068FFF795FF226893687721D5
:105A00000B4393600020C5E7CA6849682068FFF728
:105A10008BFD60212068FFF79BFD0020BAE7CA6874
:105A200049682068FFF76EFD40212068FFF790FD70
:105A30000020AFE70020ADE70120ABE70220AFE791
:105A40008800FFFF10B51F23194001248C40036A12
:105A5000A3430362036A8A401343036210BD00003C
:105A600010B5040000292CD13E23C35C013B5A1E13
:105A70009341DBB2002B58D100293BD13E330222A7
:105A8000E25401222068FFF7DDFF2368294A934290
:105A900005D0294A934202D0284A934204D1596C36
:105AA000802212020A435A642368224A934231D068
:105AB000234A93422ED01A6801210A431A6000201B
:105AC00034E0042908D008290DD04123C35C013BF0
:105AD0005A1E9341DBB2CDE73F23C35C013B5A1E04
